:020000040800F2
:10000000280800207902000847230008C9200008BA
:100010004523000881040008C923000800000000EF
:100020000000000000000000000000004B2300085A
:100030003F05000800000000492300084D23000888
:10004000930200089302000893020008930200083C
:10005000930200089302000893020008930200082C
:100060009302000893020008930200088504000828
:10007000910400089302000893020008930200080C
:100080009302000800000000930200089302000899
:1000900093020008930200089302000893020008EC
:1000A00093020008930200089302000893020008DC
:1000B00093020008930200089302000893020008CC
:1000C00093020008930200089302000893020008BC
:1000D00093020008930200089302000893020008AC
:1000E000930200089302000893020008930200089C
:1000F0009302000893020008930200080000000029
:1001000000000000930200080000000093020008B5
:100110009302000800000000930200089302000808
:10012000930200089302000893020008930200085B
:100130009302000800000000000000009302000885
:100140009302000893020008000000000000000075
:10015000000000000000000000000000000000009F
:1001600000000000000000000000000093020008F2
:1001700093020008000000000000000000000000E2
:1001800000000000930200080000000000000000D2
:10019000000000000000000000000000000000005F
:1001A0000000000000000000930200089302000815
:1001B0009302000893020008930200080000000068
:1001C0000000000093020008000000000000000092
:1001D000930200089302000800F002F800F03CF8D7
:1001E0000AA090E8000C82448344AAF10107DA4592
:1001F00001D100F031F8AFF2090EBAE80F0013F0A8
:10020000010F18BFFB1A43F00103184758220000E2
:1002100078220000103A24BF78C878C1FAD8520773
:1002200024BF30C830C144BF04680C607047000070
:100230000023002400250026103A28BF78C1FBD8EF
:10024000520728BF30C148BF0B6070471FB502F08E
:10025000FBF81FBD10B510BD00F058F81146FFF7B0
:10026000F5FF02F0C3F800F076F803B4FFF7F2FFF1
:1002700003BC00F07DF800000948804709480047AA
:10028000FEE7FEE7FEE7FEE7FEE7FEE7FEE7FEE746
:10029000FEE7FEE704480549054A064B70470000A3
:1002A000B9230008D90100082802002028080020EE
:1002B00028040020280400204FF0000200B5134657
:1002C00094469646203922BFA0E80C50A0E80C5076
:1002D000B1F12001BFF4F7AF090728BFA0E80C5027
:1002E00048BF0CC05DF804EB890028BF40F8042B20
:1002F00008BF704748BF20F8022B11F0804F18BF8D
:1003000000F8012B7047704770477047754600F042
:100310002BF8AE4605006946534620F00700854697
:1003200018B020B5FFF7B6FFBDE820404FF000063B
:100330004FF000074FF000084FF0000B21F00701CD
:10034000AC46ACE8C009ACE8C009ACE8C009ACE810
:10035000C0098D46704710B50446AFF300802046B3
:10036000BDE81040FFF781BF00487047C80100207A
:1003700001491820ABBEFEE726000200704710B509
:10038000846AE16D11F0500F06D0E16DC90625D5E4
:10039000204600F051FB10BDE06D40F40070E065B8
:1003A00020680168090716D501F0A1FE78B1206820
:1003B000C068800400280ADBE06D20F48070E065EE
:1003C000E06DC00403D4E06D40F00100E06520461C
:1003D00000F030FB10BDC0688007EBE7616D496B32
:1003E000BDE81040084710B5806AC16D41F040017A
:1003F000C165016E41F00401016600F01DFB10BDF6
:1004000010B5806A00F017FB10BD000070B50446FF
:100410000068816811F0010F2DD18168174A1142DF
:100420001AD18168D5432940491C816001F0C4F884
:1004300006461BE0816811F0010F03D18168294055
:10044000491C816001F0B8F8801B02280ED9206891
:100450000068C043C00709D0E06D40F01000E065BF
:10046000206E40F001002066012070BD2068016808
:10047000C943C907DED1002070BD00003F000080E5
:10048000FEE70000014800F05EBE000054010020BD
:10049000014800F058BE0000F40000200D49026839
:1004A0008A4201D20C4901E00B492031D2B2142317
:1004B000083AB2FBF3F2436C02F01F0223F003038D
:1004C0001944816404498031C1640121914001656E
:1004D0007047000008040240000802400179074A02
:1004E00002EB81024265054A4432491E826501F0F1
:1004F0001F0201219140C16570470000FC080240C5
:1005000030B5D0E913456560446D14B1D0E91645A6
:10051000656090F8444004F01F050124AC40056C70
:100520006C60046863608368102B036803D0996073
:100530000068C26030BD9A600068C16030BD70471D
:1005400072B6FEE72DE9F047044690F858009CB0DB
:100550000E464FF00009012815D0012084F85800FC
:1005600000251795189520684FF0A04840450ED1FA
:10057000284F0097384601F0B6FD8246206801F00A
:10058000B2FD60B10EE002201CB0BDE8F087E06D66
:1005900040F02000E06584F858500120F4E7BAF1FB
:1005A000000F09D0E06D40F02000E0654FF0010938
:1005B00084F858504846E7E71748326840F61F71FC
:1005C000002A826822F4604216D094F8383042EA59
:1005D000433273681A438260D8F80820BB6802F07F
:1005E000010203F001031A43E2D1B36832681A43EF
:1005F00083688B431A430BE08260D8F80820BB68FD
:1006000002F0010203F001031A43D1D182688A4348
:100610008260CDE700010050000300502DE9F84F43
:1006200000270446009790F85800DFF8D8930D464D
:10063000B846012811D0012684F85860206801F0DE
:100640004EFD60B1E06D40F02000E0655FF0010715
:1006500084F858803846BDE8F88F0220FBE7D5E9DA
:1006600000210C23206803EA91131844036B01F066
:100670001F014FF01F0C0CFA01FCC2F3846223EA45
:100680000C038A4013430363206801F028FD82466F
:10069000206801F020FD5AEA00003CD1AA682968D0
:1006A0002068B2F1004F37D001F029FD2068416980
:1006B00021F00041416120686969C268C2F3C1024A
:1006C000520091402A69042A31D000EB82002B6845
:1006D000026EDFF834C303F0F84302EA0C020B4366
:1006E0001A4342F00041016620682A69A96900EBBB
:1006F0008200026E22F080720A430266297F22681D
:100700002869012910D0002102EB8000026E22F03E
:1007100000720A4302667DE0002201F0F0FC2068CE
:10072000416941F00041C5E74FF00071ECE700215D
:1007300001F0CBFC400320684FF0000172D001F0C3
:10074000C4FC90FAA0F0B0FA80F1286842036ED0A1
:1007500090FAA0F0B0FA80F0814204D10022114654
:10076000206801F0DBFC0121206801F0AEFC4003B1
:1007700020684FF001015DD001F0A7FC90FAA0F0D5
:10078000B0FA80F12868420359D090FAA0F0B0FA8C
:1007900080F0814204D100220121206801F0BEFCDA
:1007A0000221206801F091FC400320684FF0020113
:1007B00048D001F08AFC90FAA0F0B0FA80F12868E5
:1007C000420344D090FAA0F0B0FA80F0814204D104
:1007D00000220221206801F0A1FC0321206801F021
:1007E00074FC400320684FF0030133D001F06DFC2E
:1007F00090FAA0F0B0FA80F1286842032FD090FA66
:10080000A0F0B0FA80F0814204D1002203212068D8
:1008100001F084FC2068816811F0010F22D0A8E06B
:1008200000E004E001F051FCC0F384618DE7C0F307
:10083000846091E701F049FCC0F38461A2E7C0F352
:100840008460A6E701F041FCC0F38461B7E7C0F320
:100850008460BBE701F039FCC0F38461CCE7C0F3EE
:100860008460D0E7EB6829684B4550F8B03FC1F38E
:10087000120101D10B4300E08B430360E868484557
:1008800077D1286841031CD090FAA0F1B1FA81F128
:10089000491C01F01F0109294FEA403132D80029D3
:1008A00012D000BF90FAA0F1B1FA81F101F101017B
:1008B00001F01F0106FA01F609D100BFC0F38461FF
:1008C00009E0C0F38461E3E7C0F38461EEE790FAE6
:1008D000A0F1B1FA81F101F1010101F01F0146EA35
:1008E000816102D1C0F3846003E090FAA0F0B0FA15
:1008F00080F000F1010000F01F0000EB400041EA31
:10090000005132E000290ED090FAA0F1B1FA81F145
:1009100001F1010101F01F0106FA01F606D100BF45
:10092000C0F3846106E0C0F38461F1E790FAA0F1BE
:10093000B1FA81F101F1010101F01F0146EA816183
:1009400002D1C0F3846003E090FAA0F0B0FA80F026
:1009500000F1010000F01F002C4A00EB400002EB08
:10096000005041EA000141F00071AA68206801F0DE
:10097000C6FB27482A6802423FF46AAE25488168D0
:10098000254B01F0E0719A4202D0244B9A421CD1CF
:100990000B021AD42268B2F1A04F7FF459AE8268DC
:1009A00041F4000122F0E0720A4382601C481D49B4
:1009B0000068B0FBF1F0401C00EB4000800000E05C
:1009C000401E00900028FBD142E6174D174BAA426B
:1009D00007D1CD0105D422689A42F5D041F080714B
:1009E00009E0134DAA42EFD14A02EDD422689A429F
:1009F000EAD041F48001826822F0E0720A4382600A
:100A000026E6000000007F4000F0FF03000020FE0B
:100A10000000088000030050000021C31000C090B7
:100A200018000020400D0300000052C700010050D4
:100A3000000084CB7047704770470000F8B54FF056
:100A4000000504002E46009502D0E06D10B107E0CD
:100A50000120F8BD204600F0EFF8266684F85860C3
:100A600020688168C1F3407119B181686A4A1140F8
:100A7000816020688168C1F3007189B98168674A23
:100A8000114041F080518160654866490068B0FBC3
:100A9000F1F04000801C00E0401E00900028FBD1D7
:100AA00020688168C1F3007141B9E16D41F0100126
:100AB000E165216E41F001012166012501F00FFB86
:100AC000E16DC90600D430B1E06D40F01000E06582
:100AD00001252846F8BDE06D20F4807040F002004A
:100AE000E0652068806810F0010F11D14FF0A04040
:100AF00080684D4900F00100896801F00101084358
:100B000006D14A486168826822F47C120A438260F6
:100B1000E168E06B627F0843A16841EA4231084323
:100B200094F8241040EA0140012904D1218D404A63
:100B300002EB41410843E16A29B101F47871226B6B
:100B4000014342EA01002168CA683A4B1A40024355
:100B5000CA6020680169626B21F040611143016144
:100B6000206801F0BCFA0646206801F0B4FA304370
:100B70002ED1207F94F83810800340EA410220688B
:100B8000C16844F2020399431143C16020690028FF
:100B9000206801690AD041F480310161206850F871
:100BA000C01F22696FF30D01114307E021F480316A
:100BB0000161206850F8C01F6FF30D01016094F8C7
:100BC000400001280CD02068016921F00101016179
:100BD000606901282068016B21F00F0111D013E03A
:100BE000D4E911010843D4E91312114308432168E1
:100BF0000A6940F2FC739A43104340F00100086117
:100C0000E6E7226A521E11430163E06D20F0020004
:100C100040F00100E0655CE7C0FFFF5FC0FFFF7FC1
:100C200018000020400D0300000100500003005098
:100C30000000FEFF0740F0FF2DE9F04F97B0064699
:100C4000142111A8FFF738FB44216846FFF734FB55
:100C50004FF40042316800259003494F494C4FF052
:100C600003084FF080094FF4807A4FF4806BB1F1A4
:100C7000A04F10D0444B994251D100920F9068463A
:100C800000F098FD08B1FFF75BFC3868401C386045
:100C9000012847D04EE000920F90684600F08AFD90
:100CA00008B1FFF74DFC3868401C3860012807D1B7
:100CB000E06C40F40050E064E06C00F400501690EA
:100CC000E06C40F00100E064E06C00F00100169080
:100CD000E06C40F00200E064E06C11A900F002005A
:100CE00016900120444681E831004FF0904000F01A
:100CF0003FFB11A9022081E83100244800F038FBB5
:100D0000244C234801C40520E4E802052020A4E87F
:100D1000200E64E807051F482BE07465A66217B033
:100D2000BDE8F08FE06C40F40050E064E06C00F44B
:100D300000501690E06C40F00400E064E06C139505
:100D400000F0040016901020CDE9110811A91248F6
:100D500000F00EFB0F4C0E486034143801C4242000
:100D6000E4E802052020A4E8200E64E8070509480D
:100D7000603000F045FA0028CFD0FFF7E1FBCCE768
:100D8000080000200010024000010050000400484C
:100D90001C000240F4000020000800482DE9F0414A
:100DA0000446344817468846806800F01F052068CE
:100DB00001F095F900285AD194F85800012856D02E
:100DC000012084F85800002625B1052D02D0092DF8
:100DD00000D003E02046FFF719FB18B184F85860F3
:100DE000BDE8F081E06D40F60161884340F4807019
:100DF000E06521492068884202D14FF0A04100E01F
:100E00000146814200D01DB9E06D20F48010E065FC
:100E1000E06DC00404D5206E20F00600206600E0DE
:100E20002666616D1548C862616D15480863616D7D
:100E30001448486321681C20086084F858602068C2
:100E4000416841F0100141602068C16841F0010132
:100E5000C16021683B4642464031606D00F030FA87
:100E600021688A68084B1A40121D8A60B8E7022080
:100E7000B6E7000000030050000100507F030008A7
:100E800001040008E7030008C0FFFF7F2DE9F047D9
:100E90000446407990460D4601280BD04FF00109D9
:100EA00084F8059002202071A96808F01006042932
:100EB00003D045E00220BDE8F08700F07DFB074647
:100EC0005FEA08004FF0030805D01CE000F074FB57
:100ED000C01B01280FD82068406B0004F6D4012005
:100EE00000F034FA2168686A086416E000F064FBD8
:100EF000C01B012807D9206940F00800206184F850
:100F000004800320D7E72068406B0028EEDB012037
:100F100000F01CFA2168686A48642068816C40F21D
:100F2000FF32B2409143AA6AB24011438164206803
:100F3000C16CFF22B2409143EA6AB2401143C164DE
:100F4000E869012808D12268916B1F20B0408143D5
:100F5000286AB040084390632068C06B0721B14005
:100F60008843A969012903D0022955D06969E9B3E9
:100F700000216B69AA681A430A434FF4807101FA91
:100F800006F398432B79012B00D0002111434FF435
:100F9000007202FA06F398436B79012B00D000220D
:100FA00020F44047286842EA0108022836D0074367
:100FB000216808FA06F03843C863206801684FF4D6
:100FC0008042B240914301602268116840F6FE7091
:100FD000B0408143E868B040084310602068016871
:100FE000C022B24091430160287B00E014E0297CDC
:100FF0002268C0F3830001F03C0140EA8110116EC9
:1010000040F60F73B3409943B0400143116684F832
:101010000490002060714EE70121AAE700F0FCFD7A
:101020000549884202D947F40047C1E7034988428D
:10103000BED947F48047BBE70068890900B4C404FF
:1010400070B5040003D02079002510B105E001201F
:1010500070BD6571204600F007F8022020712561FF
:1010600001202071002070BD10B586B00446142107
:101070006846FFF721F91149206888421BD11048C2
:10108000C16C41F48031C164C16C01F480310591BF
:10109000C16C41F00101C164C06C694600F00100FF
:1010A00005901020009003200190002002904FF046
:1010B000904000F05DF906B010BD0000000800503F
:1010C0000010024018B50068C46B0090104421B1B4
:1010D000143000900360002018BD0830F9E72DE9B6
:1010E000F041044640790D46012822D04FF0010816
:1010F00084F805800226267121680A6805F0100729
:1011000008FA07F002430A60404600F01FF9206821
:10111000016885B101F47811BE40B14203D1416844
:1011200041F00201416084F8048000206071BDE854
:10113000F0810220FBE7C1F344010129F3D14168AA
:1011400041F00101EEE7F0B4016C0C6801680D6834
:1011500090F8442002F01F06042202FA06F323420C
:1011600011D06B070FD50B689B0603D40B6823F0D7
:1011700004030B6090F8441001F01F018A40016CD9
:101180004A60016B1DE0022303FA06F727424FF085
:10119000000C4FF0010218D0AF0716D50C68A4065A
:1011A00005D40C6824F00A040C6080F8252090F81F
:1011B000441001F01F018B40016C4B6080F824C08B
:1011C000C16A00291AD0F0BC08470823B340234263
:1011D00014D02B0712D50B6823F00E030B6090F888
:1011E0004410036C01F01F0102FA01F15960C2635F
:1011F00080F8252080F824C0416BE2E7F0BC7047FE
:1012000070B504000CD02B4A21681420914209D2F9
:10121000294A0A44B2FBF0F08000606427480AE0E3
:10122000012070BD234A52420A44B2FBF0F0800014
:101230006064204808382064022084F825000A6889
:1012400047F6F0708243D4E902031843D4E9043529
:101250002B431843A3691843E3691843236A1843CF
:10126000104308602046FFF719F9A0680025B0F583
:10127000804F00D16560A16C20790860D4E913012A
:1012800041606068401E032808D82046FFF726F911
:10129000606D0560D4E91601416002E06565A565F1
:1012A000E565E563012084F8250084F824500020DA
:1012B00070BD000008040240F8FFFDBF00000240BE
:1012C00070B5044690F82400002501280CD00120B8
:1012D00084F8240094F825600020012E06D084F8BC
:1012E00024000225284670BD022070BD022684F825
:1012F0002560E0632068066826F001060660204647
:10130000FFF7FEF8206B00282068016802D041F04A
:101310000E0106E021F0040101602068016841F03F
:101320000A010160A06C0168C90303D5016841F49A
:1013300080710160606D18B1016841F480710160D5
:101340002068016841F001010160CBE770B50446F7
:1013500000F032F90546601C02D00448406804449D
:1013600000F02AF9401BA042FAD370BD0C00002007
:101370002DE9F04FDFF82092002301260324A9F184
:10138000040B85B00F2709F1040AABF1040EFAE053
:1013900006FA03F52A407CD091F804C00CF0030C47
:1013A000BCF1010F02D0BCF1020F26D1D0F808C069
:1013B000CDF800C04FEA430C04FA0CF8CDF810C089
:1013C000DDF800C02CEA080CCDF800C0D1F80C8084
:1013D000DDF810C008FA0CF8DDF800C048EA0C0887
:1013E000C0F80880D0F804C02CEA050C0D79C5F3CC
:1013F00000159D4045EA0C0545600D79ED43AD07AC
:101400000ED0C5684FEA430804FA08FC25EA0C052B
:10141000D1F808C00CFA08FC4CEA050CC0F80CC066
:101420000D7905F00305022D16D1DD0800EB850CC2
:10143000CDF808C0DCF820805D074FEAD56C07FACC
:101440000CF528EA05080D6905FA0CF5DDF808C069
:1014500045EA0805CCF8205005684FEA430CCDF862
:1014600008C004FA0CFC25EA0C0591F804C00CF045
:101470000308DDF808C008FA0CF848EA0508C0F8C7
:1014800000804D6815F4403F7CD0444DD5F860C0D5
:1014900000E077E04CF0010CC5F860C02D6E23F041
:1014A000030C05F0010500953D4D65440295AD68BE
:1014B0004FEA837C4FEA1C7807FA08FC25EA0C0502
:1014C000B0F1904F06D0DFF8DCC0604505D14FF099
:1014D000010C20E04FF0000C1DE0DFF8CCC06045AF
:1014E00002D14FF0020C16E0DFF8C0C0604502D117
:1014F0004FF0030C0FE0DFF8B8C0604502D14FF0A9
:10150000040C08E0DFF8ACC0604502D14FF0050CD8
:1015100001E04FF0060C0CFA08FC4CEA050C029DA9
:10152000C5F808C0D9F80050CC46D1F804809543DE
:101530005FEAC82800D51543CCF80050DAF800500F
:10154000D446D1F8048095435FEA882800D5154336
:10155000CCF80050DBF80050DC46D1F8048095430D
:101560005FEA883800D51543CCF80050DEF800500B
:10157000F446D1F8048095435FEAC83800D5154396
:10158000CCF800505B1C0A6832FA03F57FF400AF18
:1015900005B0BDE8F08F00000804014000100240D3
:1015A000000001400004004800080048000C00480A
:1015B000001000480014004801488068704700008F
:1015C0000C00002002488168426811448160704725
:1015D0000C00002010B50024032000F073F80F2049
:1015E00000F008F808B1012401E000F025F82046D9
:1015F00010BD000070B50E4E05460024706898B10D
:101600004FF47A71B1FBF0F00A490968B1FBF0F0D0
:1016100000F046FD40B9102D06D200222946501E8A
:1016200000F030F8356000E00124204670BD000075
:101630000C000020180000200A4882B0016E41F022
:1016400001010166016E01F001010091816D41F01F
:1016500080518165806D00F08050009002B000F0F4
:10166000A1B8000000100240002809DB00F01F02B2
:10167000012191404009800000F1E020C0F80011F4
:1016800070470000F0B40E4B1B680C46C3F30223F6
:10169000C3F10705042D00D90425191D072901D21E
:1016A000002300E0DB1E012606FA05F1491E214059
:1016B00099409E40761E16403143F0BC00F085BE36
:1016C0000CED00E0064900F0070208684FF6FF0342
:1016D000184040EA0220034A1043086070470000A7
:1016E0000CED00E00000FA052B492C4B0A68322172
:1016F0004A432B4940B1B0F5007F086829D020F457
:10170000C06040F480602CE00868C0F341200228EB
:1017100004D051F8800F20F4807022E0D1F88000CE
:1017200020F48070C1F88000086820F4C06040F4A4
:1017300000700860B2FBF3F0401C00E0401E4A69F4
:10174000520501D50028F9D1486940050AD5032082
:101750007047C0F34120022806D051F8800F40F4B2
:101760008070086000207047D1F8800040F48070DD
:10177000C1F88000086820F4C06040F40070086080
:10178000B2FBF3F0401C00E0401E4A695205DBD575
:101790000028F9D1D8E700001800002040420F00CF
:1017A000007000400248816841F4804181607047C8
:1017B000007000402DE9F8430446006800269D4D66
:1017C00000035ED5A86D0027C00008D4A86D40F0C6
:1017D0008050A865A86D012700F080500090DFF8C8
:1017E0005892D9F8001041F48071C9F80010FFF741
:1017F000E3FE804606E000BFFFF7DEFEA0EB080038
:1018000002282BD8D9F80000C005F5D5D5F89000EE
:1018100010F4407014D0216C814211D0D5F89000A2
:10182000D5F8901020F4407041F48031C5F8901044
:10183000D5F8901021F48031C5F89010C5F89000CB
:10184000C00711D0FFF7B8FE804641F2883907E0A3
:10185000FFF7B2FEA0EB0801494501D903260BE0D2
:10186000D5F890008007F3D5D5F89000216C20F4CE
:1018700040700843C5F890001FB1A86D20F080505B
:10188000A8652078C00707D0D5F88800616820F0E7
:1018900003000843C5F888002078800707D5D5F8ED
:1018A0008800A16820F00C000843C5F88800207863
:1018B000400707D5D5F88800E16820F030000843DC
:1018C000C5F888002078000707D5D5F88800216979
:1018D00020F0C0000843C5F888002078800607D5AE
:1018E000D5F88800616920F440600843C5F8880095
:1018F0002078400607D5D5F88800A16920F440502B
:101900000843C5F888002078000607D5D5F8880078
:10191000E16920F440400843C5F888002088C005EC
:1019200007D5D5F88800216A20F440300843C5F86F
:1019300088002088800507D5D5F88800616A20F4E2
:1019400040200843C5F88800208840050FD5D5F809
:101950008800A16A20F440100843C5F88800A06AF6
:10196000B0F5801F03D1E86840F48010E86020885B
:1019700000050FD5D5F88800E16A20F4400008433F
:10198000C5F88800E06AB0F5800F03D1E86840F43C
:101990008010E8602088C0040FD5D5F88800216B3E
:1019A00020F040700843C5F88800206BB0F1807FBC
:1019B00003D1E86840F48010E86020884FF00061AF
:1019C00080040ED5D5F88800626B20F0406010438B
:1019D000C5F88800606B884203D1E86840F4801045
:1019E000E860208840040ED5D5F88800A26B20F06E
:1019F00040601043C5F88800A06B884203D1E868B6
:101A000040F48010E860208800040FD5D5F88800E5
:101A1000E16B20F040500843C5F88800E06BB0F15E
:101A2000805F03D1E86840F48030E8603046BDE86C
:101A3000F883000000100240007000402DE9F047DC
:101A40000E4605004FF0000725D0DFF8AC81D8F82E
:101A5000000000F00F00B0420CD2D8F8001021F0C6
:101A60000F013143C8F80010D8F8000000F00F0053
:101A7000B04210D12968614CC80741F2883A5AD067
:101A80006868DFF87C91032808D0022820682DD0F0
:101A9000400500282CDB0120BDE8F087206880018C
:101AA000F9D5E06800F00302E068C0F30310401CC1
:101AB000032A19D0534A00BFB2FBF0F0E268C2F328
:101AC00006225043E268C2F34162521C5200B0FB4E
:101AD000F2F0484517D9A06810F0F00F0CD0880735
:101AE00011D5A86840B10EE0474AE5E78003D0E78A
:101AF00000F098F8484506D9A06820F0F00040F0C2
:101B00008000A0608027A068696820F00300084377
:101B1000A060FFF751FD814606E000BFFFF74CFDD6
:101B2000A0EB090151453AD8A068696800F00C00A3
:101B3000B0EB810FF2D12868810714D5400703D597
:101B4000A06840F4E060A0602878000705D5A06890
:101B500020F4605040F4E060A060A068A96820F024
:101B6000F000084304E0802F03D1A06820F0F000CB
:101B7000A060D8F80010404601F00F01B14216D91C
:101B8000016821F00F0131430160FFF715FD0746A1
:101B900007E000BFFFF710FDC11B514501D903202D
:101BA0007AE7D8F8000000F00F00B042F2D12878B0
:101BB000400705D5A068E96820F4E0600843A0600C
:101BC0002878000706D5A068296920F4605040EA0B
:101BD000C100A06000F026F8A1680C4AC1F303110F
:101BE000515C01F01F01C8400949086009480068BC
:101BF000BDE8F047FFF7FEBC0020024000100240A5
:101C000000B4C4040024F40040787D01522400088C
:101C1000180000200C0000200148006870470000F8
:101C200018000020184910B58868C0F381021748D1
:101C3000012A0BD08A68164BC2F38102022A06D011
:101C40008A68C2F38102032A03D0002010BD18461F
:101C500010BDCA6802F00304CA68C2F30312521C22
:101C6000032C02D0B0FBF2F001E0B3FBF2F0CA6843
:101C7000C968C2F306225043C1F34161491C4900BF
:101C8000B0FBF1F010BD0000001002400024F40091
:101C900040787D012DE9F84304007AD02078FA4D90
:101CA000C00747D0A868E96800F00C0001F0030104
:101CB0000C2802D0082817D001E0032914D060684E
:101CC000B0F5803F17D0B0F5A02F286817D020F4CA
:101CD00080302860286820F4802028606068E0B1A7
:101CE000FFF76AFC064614E02868800322D5606886
:101CF0000028D2D01EE0286840F48030EDE740F4A0
:101D000080202860F7E700BFFFF756FC801B64289F
:101D100070D828688003F7D50CE0FFF74DFC064625
:101D200005E000BFFFF748FC801B6428F0D8286856
:101D30008003F7D4207880074CD5A868E96800F0C4
:101D40000C0001F003010C2802D004280DD001E0A2
:101D500002290AD0E068002828682BD040F480705F
:101D60002860FFF729FC064619E02868400502D5DF
:101D7000E068002891D06868217C20F0FE4040EAAD
:101D800001606860C1480068FFF734FC002800D19A
:101D900020E076E1FFF710FC801B0228B8D8286805
:101DA0004005F7D56868217C20F0FE4040EA0160DC
:101DB00068600FE020F480702860FFF7FDFB0646A6
:101DC00005E000BFFFF7F8FB801B0228A0D82868B9
:101DD0004005F7D42078000729D560690028D5F898
:101DE000940013D040F00100C5F89400FFF7E4FB25
:101DF000064606E090E000BFFFF7DEFB801B0228EE
:101E000086D8D5F894008007F6D510E020F00100C0
:101E1000C5F89400FFF7D0FB064604E0FFF7CCFBC3
:101E2000801B022878D8D5F894008007F6D4207853
:101E3000400761D5A86D0026C00008D4A86D40F009
:101E40008050A865A86D012600F080500090904851
:101E50000168C90511D40168804641F480710160B0
:101E6000FFF7AAFB074604E0FFF7A6FBC01B02280A
:101E700052D8D8F80000C005F6D5A068012815D0C2
:101E80000528D5F8900016D020F00100C5F8900084
:101E9000D5F8900020F00400C5F89000A06841F249
:101EA0008838B8B1FFF788FB07460EE0D5F89000F8
:101EB00040F00100F0E740F00400C5F89000F5E7BD
:101EC000FFF77AFBC11B414526D8D5F89000800763
:101ED000F6D50CE0FFF770FB074604E0FFF76CFB5C
:101EE000C11B414518D8D5F890008007F6D41EB123
:101EF000A86D20F08050A8652078800629D5A069BB
:101F00000028D5F8980013D040F00100C5F89800DB
:101F1000FFF752FB064606E077E000BFFFF74CFBF9
:101F2000801B022877D8D5F898008007F6D510E0F6
:101F300020F00100C5F89800FFF73EFB064604E0DC
:101F4000FFF73AFB801B022865D8D5F89800800778
:101F5000F6D4E069F0B3A968C1F38101032961D027
:101F60000228286820F0807028600BD0E86820F0F4
:101F70000300E860E86847490840E860FFF71CFB99
:101F800004464BE0FFF718FB064604E0FFF714FB9E
:101F9000801B02283FD828688001F7D4F4E90801A3
:101FA0006FF00F0202EB01110843218A5204490825
:101FB00002EB4151A26841EA02210843217D4FF022
:101FC0007E42490802EB41610843217B40EAC1603F
:101FD000E96800E062E0304A11400843E8602868A0
:101FE00040F080702860E86840F08070E860FFF79B
:101FF000E3FA044605E000BFFFF7DEFA001B022803
:1020000009D828688001F7D548E004E0FFF7D4FA42
:10201000001B022802D90320BDE8F883286880014C
:10202000F4D43BE00128F7D0E868226A00F003010D
:10203000914226D1616A00F0F00209011039914203
:102040001FD1A26A00F4FE41B1EB022F19D194F81E
:102050002C2000F07841B1EBC26F12D1218E00F438
:10206000C00249084905A1F50011914209D194F82F
:10207000341000F0C06049084906A1F100718142A6
:102080000CD00120C8E70000001002400C00002026
:1020900000700040FFFFEEFE0C809F010020BBE7B8
:1020A00010B5401EB0F1807F01D3012010BD4FF06C
:1020B000E02460610F21601700F087F90020A06123
:1020C00007202061002010BDFEE700EB8100006EBC
:1020D00000F0F84070478068C0F3C0007047806827
:1020E000C0F3800070478068C0F380007047C0680C
:1020F00010F4406F01D00020704701207047042386
:1021000003EAD15310B518444369C1F304510724BD
:102110008C40A3438A401343436110BD00EB810010
:10212000016E21F0004111430166704730B58BB05C
:10213000002408940994202168460A94FEF7BCF80C
:1021400022484FF0A041042501604FF44031C0E91E
:10215000011485610121C460C0E90441047741771D
:102160000222026280F82440C462046380F83810BE
:10217000C46380F84040FEF761FC08B1FEF7E0F967
:1021800008A912480894FEF7DDF908B1FEF7D8F95E
:102190000F4800900620CDE901057F200594CDE988
:1021A000030569460948FEF739FA08B1FEF7C8F990
:1021B000084800900C20019069460448FEF72EFA6A
:1021C000002801D0FEF7BCF90BB030BD1C00002088
:1021D000020030040010603230B589B0202168461A
:1021E000FEF76AF819481849002401604FF440319D
:1021F000C0E90114C46004250461C0E90545047701
:1022000001214177016280F82440C462046380F8B0
:102210003810C46380F84040FEF710FC08B1FEF7A8
:102220008FF90B4800900620CDE901057F20059429
:10223000CDE9030569460548FEF7F0F9002801D00D
:10224000FEF77EF909B030BD000100508800002083
:102250002000F01400B58DB030216846FEF72CF850
:102260001149104808600846FEF7EAFE08B1FEF77B
:1022700067F90220009000208DF804008DF8050019
:102280000290039001210490CDE9050102460790D8
:1022900069460548FEF7FAFD002801D0FEF750F91F
:1022A0000DB000BD00080050B4010020114808B571
:1022B000816C41F004018164816C01F004010091A2
:1022C000816C41F001018164806C002200F001000A
:1022D000009011460B20FFF7D5F90B20FFF7C4F94A
:1022E000002211460C20FFF7CDF9BDE808400C2074
:1022F000FFF7BAB900100240114808B5C16C41F0AF
:102300002001C164C16C01F020010091C16C41F059
:102310000101C164C16C01F001010091C16C41F087
:102320000401C164C16C01F004010091C16C41F071
:102330000201C164C06C00F00200009008BD000002
:1023400000100240FEE7FEE770477047FFF73AB91A
:1023500010B594B038216846FDF7AEFF14210EA8E1
:10236000FDF7AAFF0020FFF7BFF90120009000044D
:10237000032405210190CDE9084102204421CDE943
:102380000A1007900C900D906846FFF783FC08B187
:1023900072B6FEE70F20CDE90E04002010901190D8
:1023A000129004210EA8FFF749FB002801D072B655
:1023B000FEE714B010BD00000248016841F470014E
:1023C0000160704788ED00E0FEE70907090E00286C
:1023D00004DB00F1E02080F80014704700F00F00EB
:1023E00000F1E02080F8141D70470000FFF7F2F8BC
:1023F000FFF7AEFFFFF780FFFFF758FFFFF796FEEE
:10240000FFF7EAFEFFF726FF02220B490B48FEF713
:10241000C5FC09490122891E0948FEF7BFFC064890
:102420000022001F114603880648FEF74BFE0021DC
:102430000448FEF754FEFEE7040000201C000020C4
:1024400088000020B40100204FF04070E1EE100A37
:1024500070470000000000000000010203040607AE
:102460000809000084240008000000201C0000006F
:1024700014020008A02400081C0000200C08000022
:1024800030020008F401000000000000000000001D
:102490001000000001000000000000000024F40013
:04000005080001D915
:00000001FF
