:020000040800F2
:1000000068200020B902000843430008513E000860
:1000100041430008B1050008AB680008000000007B
:10002000000000000000000000000000A1480008DF
:100030002906000800000000BF460008AD4800087F
:10004000D3020008D3020008D3020008D30200083C
:10005000D3020008D3020008D3020008D30200082C
:10006000D3020008D3020008D3020008D30200081C
:10007000D3020008D3020008D3020008D30200080C
:10008000D30200080000000031050008D302000878
:100090003D680008D3020008D3020008D30200081C
:1000A000D3020008D3020008D3020008D3020008DC
:1000B000D3020008D3020008D3020008D3020008CC
:1000C000D3020008D3020008D3020008D3020008BC
:1000D000D3020008D3020008D3020008D3020008AC
:1000E000D3020008D3020008D3020008D30200089C
:1000F000D3020008D3020008D30200080000000069
:1001000000000000D302000800000000D302000835
:10011000D302000800000000D3020008D302000848
:10012000D3020008D3020008D3020008D30200085B
:10013000D30200080000000000000000D302000805
:10014000D3020008D30200080000000000000000F5
:10015000000000000000000000000000000000009F
:10016000000000000000000000000000D3020008B2
:10017000D3020008000000000000000000000000A2
:1001800000000000D3020008000000000000000092
:10019000000000000000000000000000000000005F
:1001A0000000000000000000D3020008D302000895
:1001B000D3020008D3020008D302000800000000A8
:1001C00000000000D3020008000000000000000052
:1001D000D3020008D302000800F002F800F05CF837
:1001E0000AA090E8000C82448344AAF10107DA4592
:1001F00001D100F051F8AFF2090EBAE80F0013F088
:10020000010F18BFFB1A43F0010318478C7C000054
:10021000AC7C00000A444FF0000C10F8013B13F0D6
:10022000070408BF10F8014B1D1108BF10F8015B4F
:10023000641E05D010F8016B641E01F8016BF9D142
:1002400013F0080F1EBF10F8014BAD1C0C1B09D199
:100250006D1E58BF01F801CBFAD505E014F8016B0B
:1002600001F8016B6D1EF9D59142D6D3704700009D
:100270000023002400250026103A28BF78C1FBD8AF
:10028000520728BF30C148BF0B6070471FB507F049
:10029000C8FD1FBD10B510BD00F014F91146FFF7E1
:1002A000F5FF06F083FF00F032F903B4FFF7F2FF29
:1002B00003BC00F037F900000948804709480047AF
:1002C000FEE7FEE7FEE7FEE7FEE7FEE7FEE7FEE706
:1002D000FEE7FEE704480549054A064B7047000063
:1002E00021490008D9010008681A00206820002070
:1002F000681C0020681C002053EA020C00F0698092
:100300002DE9F04B4FF00006002B1FBFB3FA83F529
:1003100003FA05F424FA05F65E4012BF1643B2FA5A
:1003200082F502FA05F4C5F120051EBF22FA05FC8C
:1003300044EA0C04203556EA044C4FEA144418BF32
:10034000641C4FF000084FF00009904271EB030C61
:1003500039D3002919BFB1FA81F701FA07F6B0FACB
:1003600080F700FA07F6C7F120071EBF20FA07FC46
:1003700046EA0C062037B6FBF4FCA7EB0507103F56
:1003800007F01F0BCBF120060CFA0BFB2CFA06F63C
:1003900044BFB3460026202FA4BF5E464FF0000B9B
:1003A0005BEA060C08BF4FF0010B19EB0B09ABFB26
:1003B000027C48EB0608C01B06FB02CC0BFB03CCFF
:1003C00071EB0C01C1E70B46024641464846BDE8C9
:1003D000F08B13B54FF000004FF00001AFF3008039
:1003E000BDE81C40704710B5203AC0F00B80B1E862
:1003F0001850203AA0E81850B1E81850A0E818505A
:10040000BFF4F5AF5FEA027C24BFB1E81850A0E862
:10041000185044BF18C918C0BDE810405FEA827C7C
:1004200024BF51F8043B40F8043B08BF7047D20793
:1004300028BF31F8023B48BF11F8012B28BF20F834
:10044000023B48BF00F8012B70474FF0000200B597
:10045000134694469646203922BFA0E80C50A0E8E7
:100460000C50B1F12001BFF4F7AF090728BFA0E895
:100470000C5048BF0CC05DF804EB890028BF40F861
:10048000042B08BF704748BF20F8022B11F0804FA3
:1004900018BF00F8012B704770477047704710B5C0
:1004A00000F008F8006810BD10B5044600F002F82E
:1004B000046010BD00487047041A002000487047CF
:1004C000041A00207546FFF7F9FFAE46050069469D
:1004D000534620F00700854618B020B5FFF7FAFE16
:1004E000BDE820404FF000064FF000074FF0000835
:1004F0004FF0000B21F00701AC46ACE8C009ACE8B6
:10050000C009ACE8C009ACE8C0098D46704710B519
:100510000446AFF300802046BDE81040FFF7C5BE9B
:100520007047000001491820ABBEFEE7260002001C
:10053000014800F0A5BE0000B001002070B50446DF
:100540000068816811F0010F2DD18168174A1142AE
:100550001AD18168D5432940491C816001F0BAFB5A
:1005600006461BE0816811F0010F03D18168294024
:10057000491C816001F0AEFB801B02280ED9206867
:100580000068C043C00709D0E06D40F01000E0658E
:10059000206E40F001002066012070BD20680168D7
:1005A000C943C907DED1002070BD00003F000080B4
:1005B000FEE70020704700207047000010B50022C1
:1005C0000449054804F093FF0449034804F086FFFA
:1005D000002010BD5411002084080020540D00207C
:1005E00010B50146034804F079FF024804F03EFFCD
:1005F000002010BD8408002000207047094A10B573
:10060000D2F8BC22D2F814220AB1012010BD0A4649
:100610000146044804F06BFFBDE81040014804F0B7
:10062000D0BF00008408002070470000FEB5832082
:100630008DF80400FF201C4F8DF80500002240219A
:10064000384601F041FB4FF47A742346012201A998
:10065000164802F073FE02AA012301AD1348D11E11
:10066000009402F02FFF02AE0123691C0F48721C98
:10067000009402F027FF0123B21C691C0B48009470
:1006800002F020FF01224021384601F01DFB9DF8B9
:1006900009009DF8082080089DF80A10920242EA9D
:1006A000001040EA1110FEBD000400483002002096
:1006B00010B5FFF7BBFF00EE100ADFED080A064990
:1006C000B8EEC00A086020EE200ADFED050A20EE31
:1006D000200A81ED020A10BDC81900200000B43ABA
:1006E00035FA8E3C0F4800219FED0F0AC160016171
:1006F00080ED050A80ED060A80ED070A80ED080A04
:1007000080ED090A80ED0A0A80ED0B0A80ED0C0AE3
:100710009FED060A80ED0D0A9FED050A80ED0E0A99
:1007200070470000C81900200000000000007A4552
:100730000024744A72B6FEE7704700002DE9F84FB6
:100740004FF000080446CDF800800D4694F858207C
:10075000DFF80094616947464046012A0AD0012625
:10076000FD4A84F8586041B1296A012905D0A36E79
:10077000EBB129E00220BDE8F88F6868092838D17C
:10078000A96A4FF4785041B12B6801F07C0100EA6E
:1007900053400843E96A084302E0296800EA5140EF
:1007A0002168CB6C13400343CB64606621E0C4E94D
:1007B0001971A96A286A31B101F07C01401E084311
:1007C000E96A084300E0401E29682B79C1F384617F
:1007D00003F01F0399400143A06E401EA066636EA4
:1007E00043EA0103636604D12068C16C11401943D8
:1007F000C164206803F05AFB58B995F8250098B1F8
:100800002068C16895F8262021F4401141EA425140
:10081000C160206803F052FB8246206803F046FB6B
:100820005AEA00000DD0FBE095F8260095F8241058
:10083000400540EA01512068C26822F44012114389
:10084000E6E7A86A30B1E86A20B195F825000128EA
:100850005ED003E095F82500012804D02068C16827
:1008600021F0007103E02068C16841F00071C160AF
:1008700095F83000012852D02068016921F002016A
:100880000161AA6829682068B2F1004F38D003F0EE
:1008900030FB2068416921F00041416120686969AD
:1008A000C268C2F3C102520091402A69042A44D0AE
:1008B00000EB82002B68026EDFF8A0C203F0F84361
:1008C00002EA0C020B431A4342F000410166206821
:1008D0002A69A96900EB8200026E22F080720A4345
:1008E0000266297F22682869012923D05FF0000170
:1008F00002EB8000026E22F000720A4302668FE073
:10090000002203F0F6FA2068416941F00041C4E793
:10091000E06D40F02000E0654FF00108A8E7D5E960
:100920000D1001432068026922F4FF7242F00202B6
:100930001143A5E74FF00071DAE7002103F0ACFAAC
:10094000400320684FF0000172D003F0A5FA90FA3E
:10095000A0F0B0FA80F1286842036ED090FAA0F0BF
:10096000B0FA80F0814204D100221146206803F0E1
:10097000D7FA0121206803F08FFA400320684FF076
:1009800001015DD003F088FA90FAA0F0B0FA80F18E
:100990002868420359D090FAA0F0B0FA80F0814262
:1009A00004D100220121206803F0BAFA0221206854
:1009B00003F072FA400320684FF0020148D003F0C0
:1009C0006BFA90FAA0F0B0FA80F12868420344D0A4
:1009D00090FAA0F0B0FA80F0814204D10022022106
:1009E000206803F09DFA0321206803F055FA4003C4
:1009F00020684FF0030133D003F04EFA90FAA0F0D4
:100A0000B0FA80F1286842032FD090FAA0F0B0FA33
:100A100080F0814204D100220321206803F080FA93
:100A20002068816811F0010F22D0AFE000E004E0FF
:100A300003F032FAC0F384618DE7C0F3846091E77C
:100A400003F02AFAC0F38461A2E7C0F38460A6E74A
:100A500003F022FAC0F38461B7E7C0F38460BBE718
:100A600003F01AFAC0F38461CCE7C0F38460D0E7E6
:100A7000EB6829684B4550F8B03FC1F3120101D132
:100A80000B4300E08B430360E86848457ED128684B
:100A900041031CD090FAA0F1B1FA81F1491C01F098
:100AA0001F0109294FEA403132D8002912D000BF76
:100AB00090FAA0F1B1FA81F101F1010101F01F01F9
:100AC00006FA01F609D100BFC0F3846109E0C0F362
:100AD0008461E3E7C0F38461EEE790FAA0F1B1FA34
:100AE00081F101F1010101F01F0146EA816102D1AA
:100AF000C0F3846003E090FAA0F0B0FA80F000F157
:100B0000010000F01F0000EB400041EA005139E015
:100B100000290ED090FAA0F1B1FA81F101F10101A2
:100B200001F01F0106FA01F606D100BFC0F384618F
:100B300006E0C0F38461F1E790FAA0F1B1FA81F127
:100B400001F1010101F01F0146EA816109D1C0F301
:100B500084600AE000007F400040100400F0FF03C2
:100B600014E090FAA0F0B0FA80F000F1010000F07B
:100B70001F002B4A00EB400002EB005041EA00014D
:100B800041F00071AA68206803F0B3F925482A688B
:100B9000024240D024488168244B01F0E0719A421F
:100BA00002D0234B9A421BD10B0219D42268B2F116
:100BB000A04F30D1826841F4000122F0E0720A4374
:100BC00082601C481C490068B0FBF1F0801C00EBFF
:100BD0004000800000E0401E00900028FBD11AE099
:100BE000164D174BAA4207D1CD0105D422689A426F
:100BF00011D041F0807109E0124DAA420BD14A0296
:100C000009D422689A4206D041F48001826822F019
:100C1000E0720A43826084F858704046ABE50000F9
:100C2000000020FE0000088000030050000021C3E7
:100C30001000C09074000020400D0300000052C757
:100C400000010050000084CB034910B5884201D157
:100C500006F044F910BD0000B0010020704700000C
:100C60002DE9F04104464548806800F01F052068E2
:100C700003F01CF908BB2168C868C96C00F000408B
:100C800011F4C07F00D190B194F85800012814D01D
:100C9000012084F858002046FFF750FC01004FF077
:100CA00000020CD084F858200846BDE8F081E06DC1
:100CB00040F02000E0650120F7E70220F5E7E06D55
:100CC000C00504D5206E20F00800206600E02266F2
:100CD000E06D42F20103984340F48050E065284BF8
:100CE00020684FF0A046984201D1374600E0074601
:100CF000874200D01DB9E76D27F48017E7656027AC
:100D0000076084F858202068C268920203D54268C0
:100D100042F480624260A06908282068426807D0D7
:100D200022F0400242602068426842F0200206E061
:100D300022F0200242602068426842F04002426095
:100D40002068984201D1324600E00246824209D032
:100D500045B1062D06D0072D04D0E06D40F480107B
:100D6000E065A1E7C26812F0007F9DD18268054B63
:100D70001A4042F00802826096E70000000300502B
:100D800000010050C0FFFF7F704770472DE9F0471A
:100D9000044690F858009CB00E464FF00009012818
:100DA00015D0012084F85800002517951895206863
:100DB0004FF0A04840450ED1284F0097384603F029
:100DC0007DF88246206803F079F860B10EE00220D9
:100DD0001CB0BDE8F087E06D40F02000E06584F8CD
:100DE00058500120F4E7BAF1000F09D0E06D40F04F
:100DF0002000E0654FF0010984F858504846E7E7C5
:100E00001748326840F61F71002A826822F4604257
:100E100016D094F8383042EA433273681A4382603D
:100E2000D8F80820BB6802F0010203F001031A435E
:100E3000E2D1B36832681A4383688B431A430BE0EC
:100E40008260D8F80820BB6802F0010203F00103B9
:100E50001A43D1D182688A438260CDE700010050F5
:100E6000000300502DE9F84F00270446009790F842
:100E70005800DFF8D8930D46B846012811D0012656
:100E800084F85860206803F015F860B1E06D40F018
:100E90002000E0655FF0010784F858803846BDE81F
:100EA000F88F0220FBE7D5E900210C23206803EA34
:100EB00091131844036B01F01F014FF01F0C0CFA43
:100EC00001FCC2F3846223EA0C038A4013430363E8
:100ED000206802F0EFFF8246206802F0E3FF5AEA42
:100EE00000003CD1AA6829682068B2F1004F37D0D1
:100EF00002F0F0FF2068416921F000414161206863
:100F00006969C268C2F3C102520091402A69042A89
:100F100031D000EB82002B68026EDFF834C303F09F
:100F2000F84302EA0C020B431A4342F00041016607
:100F300020682A69A96900EB8200026E22F08072A3
:100F40000A430266297F22682869012910D00021FE
:100F500002EB8000026E22F000720A4302667DE01E
:100F6000002202F0B7FF2068416941F00041C5E767
:100F70004FF00071ECE7002102F088FF4003206889
:100F80004FF0000172D002F081FF90FAA0F0B0FAA9
:100F900080F1286842036ED090FAA0F0B0FA80F099
:100FA000814204D100221146206802F0B1FF0121E4
:100FB000206802F06BFF400320684FF001015DD014
:100FC00002F064FF90FAA0F0B0FA80F128684203C2
:100FD00059D090FAA0F0B0FA80F0814204D10022FA
:100FE0000121206802F094FF0221206802F04EFFE8
:100FF000400320684FF0020148D002F047FF90FA0A
:10100000A0F0B0FA80F12868420344D090FAA0F032
:10101000B0FA80F0814204D100220221206802F05F
:1010200077FF0321206802F031FF400320684FF072
:10103000030133D002F02AFF90FAA0F0B0FA80F159
:10104000286842032FD090FAA0F0B0FA80F08142D5
:1010500004D100220321206802F05AFF2068816831
:1010600011F0010F22D0A8E000E004E002F00EFF32
:10107000C0F384618DE7C0F3846091E702F006FF5E
:10108000C0F38461A2E7C0F38460A6E702F0FEFE2D
:10109000C0F38461B7E7C0F38460BBE702F0F6FEFB
:1010A000C0F38461CCE7C0F38460D0E7EB682968C3
:1010B0004B4550F8B03FC1F3120101D10B4300E0A2
:1010C0008B430360E868484577D1286841031CD00A
:1010D00090FAA0F1B1FA81F1491C01F01F01092930
:1010E0004FEA403132D8002912D000BF90FAA0F167
:1010F000B1FA81F101F1010101F01F0106FA01F6D7
:1011000009D100BFC0F3846109E0C0F38461E3E763
:10111000C0F38461EEE790FAA0F1B1FA81F101F138
:10112000010101F01F0146EA816102D1C0F3846030
:1011300003E090FAA0F0B0FA80F000F1010000F0B6
:101140001F0000EB400041EA005132E000290ED0C0
:1011500090FAA0F1B1FA81F101F1010101F01F0152
:1011600006FA01F606D100BFC0F3846106E0C0F3C1
:101170008461F1E790FAA0F1B1FA81F101F1010186
:1011800001F01F0146EA816102D1C0F3846003E0EF
:1011900090FAA0F0B0FA80F000F1010000F01F001A
:1011A0002C4A00EB400002EB005041EA000141F004
:1011B0000071AA68206802F08DFE27482A68024262
:1011C0003FF46AAE25488168254B01F0E0719A42F0
:1011D00002D0244B9A421CD10B021AD42268B2F1DD
:1011E000A04F7FF459AE826841F4000122F0E07212
:1011F0000A4382601C481D490068B0FBF1F0401CA6
:1012000000EB4000800000E0401E00900028FBD171
:1012100042E6174D174BAA4207D1CD0105D42268EB
:101220009A42F5D041F0807109E0134DAA42EFD106
:101230004A02EDD422689A42EAD041F480018268E1
:1012400022F0E0720A43826026E6000000007F4040
:1012500000F0FF03000020FE0000088000030050A3
:10126000000021C31000C09074000020400D030056
:10127000000052C700010050000084CB7047704747
:101280002DE9F05F0446006806684568DFF854B24F
:10129000DBF8080000F01F07B0070ED5A8070CD533
:1012A000E06DC00603D4E06D40F40060E0652046C8
:1012B000FFF742FA216802200860DFF82CA27007CD
:1012C0004FF0A04801D5680703D4300737D5280769
:1012D00035D5E06DC00603D4E06D40F40070E065E4
:1012E000206802F0EFFD20B32068504501D142464E
:1012F00000E00246824208D03FB1052F05D0092FF9
:1013000003D0504503D1414602E0C16801E00146E7
:10131000C96889040DD4016809070AD502F0CAFD1D
:1013200058B3E06D40F01000E065206E40F0010021
:1013300020662046FFF7A2FF21680C200860B00657
:1013400001D5A80603D4700658D5680656D5E06DB9
:10135000C00603D4E06D40F40050E0652068C16C25
:1013600011F4C07F1AD00021894602F0ABFD02467D
:101370002068504514D1434613E02068416821F0AD
:101380000C014160E06D20F48070E065E06DC00408
:10139000CFD4E06D40F00100E065CAE70121E3E74A
:1013A0000346834208D03FB1062F05D0072F03D054
:1013B000504503D1414602E0C16801E00146C968D9
:1013C000B9F1000F14D08B0102D58AB18A040FD471
:1013D000026852060CD589020AD402F063FDE8B314
:1013E000E06D40F01000E065206E40F001002066E6
:1013F0002046FFF729FC21686020086030060BD5E5
:10140000280609D5E06D40F48030E065204600F004
:101410006BF9216880200860F0050CD5E8050AD535
:10142000E06D40F40030E0652046FFF7ADFC216838
:101430004FF480700860B0050CD5A8050AD5E06DA2
:1014400040F48020E0652046FFF79FFC21684FF4C0
:1014500000700860F0062ED5E80600E008E02AD506
:10146000E06BD0B1AFB1DBF8080000F4604013E0EE
:101470002068416821F060014160E06D20F48050F7
:10148000E065E06DC005B3D4E06D40F00100E065BB
:10149000AEE72068C068C00750B1E06D40F48060DE
:1014A000E065206E40F0020020662046FFF7E7FE70
:1014B000216810200860700512D5680510D5E06D10
:1014C00040F48040E065206E40F00800206621680E
:1014D0004FF4806008602046BDE8F05FFFF7BEBBB8
:1014E000BDE8F09F0003005000010050F8B54FF038
:1014F000000504002E46009502D0E06D10B107E013
:101500000120F8BD204600F0F1F8266684F8586006
:1015100020688168C1F3407119B181686A4A11403D
:10152000816020688168C1F3007189B98168674A68
:10153000114041F080518160654866490068B0FB08
:10154000F1F04000801C00E0401E00900028FBD11C
:1015500020688168C1F3007141B9E16D41F010016B
:10156000E165216E41F001012166012502F0A2FC36
:10157000E16DC90600D430B1E06D40F01000E065C7
:1015800001252846F8BDE06D20F4807040F002008F
:10159000E0652068806810F0010F11D14FF0A04085
:1015A00080684D4900F00100896801F0010108439D
:1015B00006D14A486168826822F47C120A4382603C
:1015C000E168E06B627F0843A16841EA4231084369
:1015D00094F8241040EA0140012904D1218D404AA9
:1015E00002EB41410843E16A29B101F47871226BB1
:1015F000014342EA01002168CA683A4B1A4002439B
:10160000CA6020680169626B21F040611143016189
:10161000206802F04FFC0646206802F043FC30438D
:101620002ED1207F94F83810800340EA41022068D0
:10163000C16844F2020399431143C1602069002844
:10164000206801690AD041F480310161206850F8B6
:10165000C01F22696FF30D01114307E021F48031AF
:101660000161206850F8C01F6FF30D01016094F80C
:10167000400001280CD02068016921F001010161BE
:10168000606901282068016B21F00F0111D013E07F
:10169000D4E911010843D4E9131211430843216826
:1016A0000A6940F2FC739A43104340F0010008615C
:1016B000E6E7226A521E11430163E06D20F002004A
:1016C00040F00100E0655CE7C0FFFF5FC0FFFF7F07
:1016D00074000020400D0300000100500003005082
:1016E0000000FEFF0740F0FF7047000030B597B0E4
:1016F0000446142111A8FEF7A8FE44216846FEF70F
:10170000A4FE2068B0F1A04F3CD14FF400400090FF
:1017100080030F90684601F0CFF808B1FFF70AF890
:101720001948C16C41F40051C164C16C01F400510D
:101730001691C16C41F00401C164C16C01F0040157
:101740001691C16C41F00101C164C06C11A900F097
:101750000100169001200324002581E831000B4888
:1017600000F086F911A9072081E831004FF0904080
:1017700000F07EF900221146122000F011FB122029
:1017800000F000FB17B030BD001002400008004818
:101790002DE9F0470446407990460D4601280BD0CC
:1017A0004FF0010984F8059002202071A96808F023
:1017B0001006042903D045E00220BDE8F08700F0C0
:1017C00089FA07465FEA08004FF0030805D01CE0DD
:1017D00000F080FAC01B01280FD82068406B00047D
:1017E000F6D4012000F032F92168686A086416E036
:1017F00000F070FAC01B012807D9206940F00800EA
:10180000206184F804800320D7E72068406B00281B
:10181000EEDB012000F01AF92168686A486420684C
:10182000816C40F2FF32B2409143AA6AB240114348
:1018300081642068C16CFF22B2409143EA6AB240E1
:101840001143C164E869012808D12268916B1F2007
:10185000B0408143286AB040084390632068C06B61
:101860000721B1408843A969012903D0022955D035
:101870006969E9B300216B69AA681A430A434FF406
:10188000807101FA06F398432B79012B00D00021D7
:1018900011434FF4007202FA06F398436B79012B5F
:1018A00000D0002220F44047286842EA01080228BC
:1018B00036D00743216808FA06F03843C863206829
:1018C00001684FF48042B240914301602268116880
:1018D00040F6FE70B0408143E868B04008431060B5
:1018E00020680168C022B24091430160287B00E07B
:1018F00014E0297C2268C0F3830001F03C0140EA37
:101900008110116E40F60F73B3409943B04001430C
:10191000116684F80490002060714EE70121AAE767
:1019200001F0FCF90549884202D947F40047C1E7B4
:1019300003498842BED947F48047BBE7006889095C
:1019400000B4C40470B5040003D02079002510B1A0
:1019500005E0012070BD6571204600F007F8022007
:101960002071256101202071002070BD10B586B066
:10197000044614216846FEF768FD11492068884234
:101980001BD11048C16C41F48031C164C16C01F4B9
:1019900080310591C16C41F00101C164C06C6946A0
:1019A00000F001000590102000900320019000201D
:1019B00002904FF0904000F05BF806B010BD0000C0
:1019C000000800500010024018B50068C46B009079
:1019D000104421B1143000900360002018BD08307D
:1019E000F9E72DE9F041044640790D46012822D05F
:1019F0004FF0010884F805800226267121680A68E4
:101A000005F0100708FA07F002430A60404600F0AC
:101A10001DF82068016885B101F47811BE40B1421B
:101A200003D1416841F00201416084F80480002044
:101A30006071BDE8F0810220FBE7C1F34401012998
:101A4000F3D1416841F00101EEE7000070B50446B2
:101A500000F040F90546601C02D004484068044488
:101A600000F038F9401BA042FAD370BD6800002096
:101A70002DE9F04FDFF82092002301260324A9F17D
:101A8000040B85B00F2709F1040AABF1040EFAE04C
:101A900006FA03F52A407CD091F804C00CF0030C40
:101AA000BCF1010F02D0BCF1020F26D1D0F808C062
:101AB000CDF800C04FEA430C04FA0CF8CDF810C082
:101AC000DDF800C02CEA080CCDF800C0D1F80C807D
:101AD000DDF810C008FA0CF8DDF800C048EA0C0880
:101AE000C0F80880D0F804C02CEA050C0D79C5F3C5
:101AF00000159D4045EA0C0545600D79ED43AD07A5
:101B00000ED0C5684FEA430804FA08FC25EA0C0524
:101B1000D1F808C00CFA08FC4CEA050CC0F80CC05F
:101B20000D7905F00305022D16D1DD0800EB850CBB
:101B3000CDF808C0DCF820805D074FEAD56C07FAC5
:101B40000CF528EA05080D6905FA0CF5DDF808C062
:101B500045EA0805CCF8205005684FEA430CCDF85B
:101B600008C004FA0CFC25EA0C0591F804C00CF03E
:101B70000308DDF808C008FA0CF848EA0508C0F8C0
:101B800000804D6815F4403F7CD0444DD5F860C0CE
:101B900000E077E04CF0010CC5F860C02D6E23F03A
:101BA000030C05F0010500953D4D65440295AD68B7
:101BB0004FEA837C4FEA1C7807FA08FC25EA0C05FB
:101BC000B0F1904F06D0DFF8DCC0604505D14FF092
:101BD000010C20E04FF0000C1DE0DFF8CCC06045A8
:101BE00002D14FF0020C16E0DFF8C0C0604502D110
:101BF0004FF0030C0FE0DFF8B8C0604502D14FF0A2
:101C0000040C08E0DFF8ACC0604502D14FF0050CD1
:101C100001E04FF0060C0CFA08FC4CEA050C029DA2
:101C2000C5F808C0D9F80050CC46D1F804809543D7
:101C30005FEAC82800D51543CCF80050DAF8005008
:101C4000D446D1F8048095435FEA882800D515432F
:101C5000CCF80050DBF80050DC46D1F80480954306
:101C60005FEA883800D51543CCF80050DEF8005004
:101C7000F446D1F8048095435FEAC83800D515438F
:101C8000CCF800505B1C0A6832FA03F57FF400AF11
:101C900005B0BDE8F08F00000804014000100240CC
:101CA000000001400004004800080048000C004803
:101CB0000010004800140048426921EA02030A406B
:101CC00043EA0241816170470AB1816170478162D4
:101CD00070470000014880687047000068000020DD
:101CE00002488168426811448160704768000020A2
:101CF00010B50024032000F073F80F2000F008F85E
:101D000008B1012401E000F025F8204610BD0000D4
:101D100070B50E4E05460024706898B14FF47A7184
:101D2000B1FBF0F00A490968B1FBF0F001F0FBFCEF
:101D300040B9102D06D200222946501E00F030F87E
:101D4000356000E00124204670BD000068000020DE
:101D5000740000200A4882B0016E41F00101016662
:101D6000016E01F001010091816D41F080518165AA
:101D7000806D00F08050009002B000F095BD000032
:101D800000100240002809DB00F01F0201219140F1
:101D90004009800000F1E020C0F800117047000009
:101DA000F0B40E4B1B680C46C3F30223C3F10705C6
:101DB000042D00D90425191D072901D2002300E0B4
:101DC000DB1E012606FA05F1491E214099409E407E
:101DD000761E16403143F0BC04F07BBD0CED00E0F4
:101DE000064900F0070208684FF6FF03184040EA72
:101DF0000220034A10430860704700000CED00E029
:101E00000000FA0501220168C0F8E822002280F8EB
:101E1000E02231F8540F40F001000880088840F0BB
:101E2000020008801046704770B50F4D044669B136
:101E300001290AD1D4F8F00203F090FEA06900282D
:101E400003D0286840F00600286070BDA06928B162
:101E500002F02EFD286820F006002860D4F8F00279
:101E6000BDE8704003F012BE10ED00E010B50C06A6
:101E700007D501F0070101EB810100EBC10028301B
:101E800005E001EB810100EBC10000F5B47099B2EF
:101E900032B1012202730181190C4181002010BD71
:101EA00000220273C180F9E701EB810200EBC2025C
:101EB000D0F8F002D26B03F0C6BC01EB810200EB5C
:101EC000C202D0F8F002D2F87C2103F010BD70B548
:101ED00004460B0601F0070000EB800104EBC10192
:101EE0004FF001024FF0000503D581F82920283179
:101EF00003E081F8695101F5B471087094F8A80203
:101F0000012808D084F8A822206804F057F984F842
:101F1000A852002070BD022070BD70B5044601F0CB
:101F20000F006268904201D9012070BD0B0601F0DC
:101F3000070000EB800104EBC1014FF001024FF0FC
:101F4000000503D581F82920283103E081F8695183
:101F500001F5B4718D70087094F8A802012808D0BA
:101F600084F8A822206804F0C8F984F8A852002058
:101F700070BD022070BD2DE9F04704685FEA424859
:101F80000B788D69B4F850804FF0000C4BF68F77CA
:101F900048F2800648F68F7948F2C00A444428D5B2
:101FA00040F2024808EBC30834F80840C4F30904BF
:101FB000A54203D32D1B8D6102D00BE0C1F818C0E0
:101FC000D0F800C03CF823503D4085F4005535431F
:101FD0002CF82350520609D50B78056835F82320D4
:101FE00002EA090242EA0A0225F8232074B30A89A8
:101FF00027E040F2064808EBC30834F80840C4F371
:102000000904A54203D32D1B8D6102D00BE0C1F85A
:1020100018C0D0F800C03CF823503D4085F400556E
:1020200035432CF82350520609D40D78036833F851
:10203000252002EA090242EA0A0223F825202CB1EF
:102040004A8949690068234604F001FC2046BDE83E
:10205000F0872DE9F047054600680C465FEA4268C4
:102060001646D1F818C02278B0F8508048F68F771D
:102070004CF280094FF400434FF6FF7A4FF0000115
:1020800040447BD540F2024808EBC20830F8080013
:10209000C0F30900844514D9BCEB000CC4F818C087
:1020A00010D0760408D5D5F800C03CF822603E4038
:1020B00046EA09062CF8226094F82420012A50D020
:1020C0004EE1A161607810B1012813D01AE02868B0
:1020D000B0F85030184400EBC200B0F8022422F4EB
:1020E000F842A0F80224B0F8022442F40042A0F81A
:1020F000022407E02868B0F85030184400EBC20012
:10210000A0F802146278286812B1012A11D018E0F0
:10211000B0F850100844217800EBC100B0F8061464
:1021200021F4F841A0F80614B0F8061441F4004177
:1021300005E0B0F850201044227800EBC200A0F86F
:10214000061421782846FFF7AFFE7004B8D5217831
:102150002A6832F82100384040EA090022F82100BC
:10216000FEE0626902446261E2690244E26126695A
:10217000226AB24203D33046111A04E038E084F8F0
:1021800024100AB110462162617811B1012923D0CF
:102190002BE02968B1F850203E281144227801EB49
:1021A000C20101F2024106D94209C60600D1521EFF
:1021B00043EA82220EE030B14208C30700D0521C2D
:1021C0000AEA822206E00A8822F4F8420A800A8893
:1021D00042F400420A8008E02968B1F85020114416
:1021E000227801EBC201A1F8020483B22289B3E094
:1021F00040F2064808EBC20830F80800C0F30900B6
:10220000844514D3BCEB000CC4F818C010D076047D
:1022100008D4D5F800C03CF822603E4046EA0906E2
:102220002CF8226094F82420012A50D098E0A16173
:10223000607810B1012813D01AE02868B0F8503047
:10224000184400EBC200B0F8022422F4F842A0F8CF
:102250000224B0F8022442F40042A0F8022407E06D
:102260002868B0F85030184400EBC200A0F80214FF
:102270006278286812B1012A11D018E0B0F8501025
:102280000844217800EBC100B0F8061421F4F841AD
:10229000A0F80614B0F8061441F4004105E0B0F8C7
:1022A00050201044227800EBC200A0F806142178D8
:1022B0002846FFF7F9FD700452D42278296831F8D6
:1022C0002200384040EA090021F8220048E0626913
:1022D00002446261E2690244E2612669226AB24212
:1022E00003D33046111A216204E00AB1104621627C
:1022F00084F824106278296812B1012A22D029E0DA
:10230000B1F850203E281144227801EBC20101F2BD
:10231000064106D94209C60600D1521E43EA82226E
:102320000EE030B14208C30700D0521C0AEA8222F4
:1023300006E00A8822F4F8420A800A8842F4004241
:102340000A8007E0B1F850201144227801EBC20165
:10235000A1F80604628983B26169286804F092FAE0
:102360002278296831F8220048F6BF73184080F0BF
:10237000300048F28003184321F822000020BDE815
:10238000F08701F0070101EB810100EBC100D0F8FB
:10239000840170472DE9F04104460F0601F0070063
:1023A00000EB800104EBC1014FF001064FF0000586
:1023B00003D581F82960283103E081F8695101F5DE
:1023C000B47108700A61CB704A7802B1C881022BDF
:1023D00000D10D7194F8A802012809D084F8A862F0
:1023E000206803F0B7FD284684F8A852BDE8F081C4
:1023F0000220FBE770B50C4601F0070505EB8501EF
:1024000000EBC101C1E95F230022C1F8842181F8FA
:10241000692181F8685101F5B4716207006803F021
:10242000C1FF002070BD70B5044601F0070062686E
:10243000904201D9012070BD0B064FF000054FF00E
:10244000010207D500EB800104EBC10181F82920CE
:10245000283107E001EB810104EBC10181F86951EA
:1024600001F5B4718A70087094F8A802012808D0A8
:1024700084F8A822206803F07CFF84F8A85200208A
:1024800070BD022070BD70B50C4601F0070505EB6C
:10249000850100EBC101C1E90F23012281F84C2025
:1024A0008B6400234B6481F8292001F8285F6207C0
:1024B000006803F077FF002070BD10B50446006887
:1024C00004F0C2F9010404D52046BDE8104001F033
:1024D00039BF41050ED5206830F8441F21F48061D2
:1024E0000180204600F014F92046BDE8104000218C
:1024F00000F03AB9410405D5206830F8441F21F4B2
:1025000080417DE0810405D5206830F8441F21F426
:10251000005175E0C1041FD5206830F8401F21F03C
:1025200004010180206830F8401F21F0080101807B
:1025300094F8E002012806D1002084F8E002014668
:102540002046FFF771FC204600F0F6F8206830F8CE
:10255000441F21F4805153E0010512D5206830F862
:10256000401F41F008010180206830F8441F21F429
:1025700000610180206830F8401F41F004010180B3
:102580000AE0010629D5206830F8441F21F08001B7
:10259000018094F8E00218B1204600F015F910BD52
:1025A000206830F8401F41F004010180206830F8B5
:1025B000401F41F008010180012084F8E0022068FA
:1025C000B0F854003C2101EA9000C4F8E40220462F
:1025D000BDE810400121FFF727BC810509D520681F
:1025E00030F8441F21F400710180204600F0B8F853
:1025F00010BDC005FCD5206830F8441F21F480715F
:10260000018010BD70B586B0040004D094F8A90212
:10261000002518B107E0012006B070BD84F8A8526B
:10262000204600F049F8032084F8A902206803F04E
:102630005CFE002001260EE000EB800104EBC101EE
:1026400081F8296001F8280FC881CD700D614D61B6
:10265000401CC0B28D6161688142EDD8002011E05C
:1026600000EB800104EBC10181F8695181F8680138
:1026700081F86B51C1F87851C1F87C51401CC0B24F
:10268000C1F8805161688142EAD8142204F1100136
:102690006846FDF7A8FE94E80F0003F01DFE84F8DD
:1026A000245084F8A962E069012802D12046FFF78E
:1026B000A9FB0020B0E7000010B592B00446442109
:1026C0006846FDF7C2FE1049206888421AD14014BE
:1026D000009000200D90684600F0EEF808B1FEF77B
:1026E00029F80A48816D41F400018165806D00225E
:1026F00000F40000119011461420FFF751FB142044
:10270000FFF740FB12B010BD005C0040001002401B
:1027100070B5044680680125022801D0FEF70AF84A
:102720002946D4F8F00203F0CBF9D4F8F002BDE862
:10273000704003F07EB9000010B50446806930B1E6
:102740000648016821F00601016002F0B1F8D4F8F2
:10275000F002BDE8104003F099B9000010ED00E070
:10276000D0F8F00203F09CB910B5044690F8A80226
:1027700001280BD0012084F8A80284F824102068D6
:1027800004F079F8002084F8A80210BD022010BDE2
:10279000D0F8F02200F52C71104603F09DB910B569
:1027A000044690F8A80201280CD0012084F8A80261
:1027B000206804F03AF8206803F087FD002084F8D0
:1027C000A80210BD022010BD10B50446D0F8F002DA
:1027D00003F0C4F9A069002804D00348016841F05F
:1027E0000601016010BD000010ED00E02B492C4BEC
:1027F0000A6832214A432B4940B1B0F5007F08688E
:1028000029D020F4C06040F480602CE00868C0F358
:102810004120022804D051F8800F20F4807022E07B
:10282000D1F8800020F48070C1F88000086820F49E
:10283000C06040F400700860B2FBF3F0401C00E0A0
:10284000401E4A69520501D50028F9D14869400562
:102850000AD503207047C0F34120022806D051F862
:10286000800F40F48070086000207047D1F880002D
:1028700040F48070C1F88000086820F4C06040F423
:1028800000700860B2FBF3F0401C00E0401E4A6993
:102890005205DBD50028F9D1D8E7000074000020EC
:1028A00040420F00007000400248816841F48041BE
:1028B00081607047007000402DE9F84304460068CD
:1028C00000269D4D00035ED5A86D0027C00008D4EA
:1028D000A86D40F08050A865A86D012700F08050D9
:1028E0000090DFF85892D9F8001041F48071C9F8CF
:1028F0000010FFF7EFF9804606E000BFFFF7EAF9A6
:10290000A0EB080002282BD8D9F80000C005F5D5A7
:10291000D5F8900010F4407014D0216C814211D091
:10292000D5F89000D5F8901020F4407041F4803133
:10293000C5F89010D5F8901021F48031C5F89010AA
:10294000C5F89000C00711D0FFF7C4F9804641F2E6
:10295000883907E0FFF7BEF9A0EB0801494501D926
:1029600003260BE0D5F890008007F3D5D5F890004A
:10297000216C20F440700843C5F890001FB1A86D89
:1029800020F08050A8652078C00707D0D5F88800CF
:10299000616820F003000843C5F8880020788007AC
:1029A00007D5D5F88800A16820F00C000843C5F8C9
:1029B00088002078400707D5D5F88800E16820F026
:1029C00030000843C5F888002078000707D5D5F8FF
:1029D0008800216920F0C0000843C5F888002078ED
:1029E000800607D5D5F88800616920F44060084367
:1029F000C5F888002078400607D5D5F88800A16979
:102A000020F440500843C5F888002078000607D518
:102A1000D5F88800E16920F440400843C5F88800F3
:102A20002088C00507D5D5F88800216A20F44030F9
:102A30000843C5F888002088800507D5D5F88800A8
:102A4000616A20F440200843C5F8880020884005CA
:102A50000FD5D5F88800A16A20F440100843C5F8C6
:102A60008800A06AB0F5801F03D1E86840F48010A8
:102A7000E860208800050FD5D5F88800E16A20F4C9
:102A800040000843C5F88800E06AB0F5800F03D124
:102A9000E86840F48010E8602088C0040FD5D5F8BD
:102AA0008800216B20F040700843C5F88800206B37
:102AB000B0F1807F03D1E86840F48010E86020889E
:102AC0004FF0006180040ED5D5F88800626B20F0CD
:102AD00040601043C5F88800606B884203D1E86805
:102AE00040F48010E860208840040ED5D5F88800B6
:102AF000A26B20F040601043C5F88800A06B8842AC
:102B000003D1E86840F48010E860208800040FD505
:102B1000D5F88800E16B20F040500843C5F88800E4
:102B2000E06BB0F1805F03D1E86840F48030E8608A
:102B30003046BDE8F88300000010024000700040FD
:102B40002DE9F0470E4605004FF0000725D0DFF8CD
:102B5000AC81D8F8000000F00F00B0420CD2D8F8D9
:102B6000001021F00F013143C8F80010D8F8000020
:102B700000F00F00B04210D12968614CC80741F243
:102B8000883A5AD06868DFF87C91032808D0022878
:102B900020682DD0400500282CDB0120BDE8F087FF
:102BA00020688001F9D5E06800F00302E068C0F316
:102BB0000310401C032A19D0534A00BFB2FBF0F0A7
:102BC000E268C2F306225043E268C2F34162521C3B
:102BD0005200B0FBF2F0484517D9A06810F0F00F92
:102BE0000CD0880711D5A86840B10EE0474AE5E748
:102BF0008003D0E700F0BCF8484506D9A06820F073
:102C0000F00040F08000A0608027A068696820F094
:102C100003000843A060FFF75DF8814606E000BFAF
:102C2000FFF758F8A0EB090151453AD8A068696848
:102C300000F00C00B0EB810FF2D12868810714D5A9
:102C4000400703D5A06840F4E060A0602878000742
:102C500005D5A06820F4605040F4E060A060A06852
:102C6000A96820F0F000084304E0802F03D1A06899
:102C700020F0F000A060D8F80010404601F00F01ED
:102C8000B14216D9016821F00F0131430160FFF70D
:102C900021F8074607E000BFFFF71CF8C11B5145AC
:102CA00001D903207AE7D8F8000000F00F00B04205
:102CB000F2D12878400705D5A068E96820F4E060E3
:102CC0000843A0602878000706D5A068296920F489
:102CD000605040EAC100A06000F04AF8A1680C4AC8
:102CE000C1F30311515C01F01F01C840094908609C
:102CF00009480068BDE8F047FFF70AB80020024025
:102D00000010024000B4C4040024F40040787D01A7
:102D10005E7E000874000020680000200148006802
:102D20007047000074000020054806490068896863
:102D3000054AC1F30221515C01F01F01C8407047F0
:102D400074000020001002406E7E0008054806490D
:102D500000688968054AC1F3C221515C01F01F0176
:102D6000C840704774000020001002406E7E0008CA
:102D7000184910B58868C0F381021748012A0BD0A2
:102D80008A68164BC2F38102022A06D08A68C2F30F
:102D90008102032A03D0002010BD184610BDCA6866
:102DA00002F00304CA68C2F30312521C032C02D0BF
:102DB000B0FBF2F001E0B3FBF2F0CA68C968C2F3FD
:102DC00006225043C1F34161491C4900B0FBF1F0B8
:102DD00010BD0000001002400024F40040787D0186
:102DE0002DE9F84304007AD02078FA4DC00747D087
:102DF000A868E96800F00C0001F003010C2802D07B
:102E0000082817D001E0032914D06068B0F5803F8E
:102E100017D0B0F5A02F286817D020F48030286094
:102E2000286820F4802028606068E0B1FEF752FF37
:102E3000064614E02868800322D560680028D2D0B6
:102E40001EE0286840F48030EDE740F480202860E0
:102E5000F7E700BFFEF73EFF801B642870D82868A4
:102E60008003F7D50CE0FEF735FF064605E000BF0E
:102E7000FEF730FF801B6428F0D828688003F7D461
:102E8000207880074CD5A868E96800F00C0001F0B4
:102E900003010C2802D004280DD001E002290AD039
:102EA000E068002828682BD040F480702860FEF786
:102EB00011FF064619E02868400502D5E0680028A1
:102EC00091D06868217C20F0FE4040EA0160686093
:102ED000C1480068FEF71CFF002800D120E076E121
:102EE000FEF7F8FE801B0228B8D828684005F7D501
:102EF0006868217C20F0FE4040EA016068600FE0D5
:102F000020F480702860FEF7E5FE064605E000BF6D
:102F1000FEF7E0FE801B0228A0D828684005F7D401
:102F20002078000729D560690028D5F8940013D0CF
:102F300040F00100C5F89400FEF7CCFE064606E01E
:102F400090E000BFFEF7C6FE801B022886D8D5F8A9
:102F500094008007F6D510E020F00100C5F8940039
:102F6000FEF7B8FE064604E0FEF7B4FE801B02281A
:102F700078D8D5F894008007F6D42078400761D53A
:102F8000A86D0026C00008D4A86D40F08050A86548
:102F9000A86D012600F08050009090480168C90596
:102FA00011D40168804641F480710160FEF792FE01
:102FB000074604E0FEF78EFEC01B022852D8D8F860
:102FC0000000C005F6D5A068012815D00528D5F861
:102FD000900016D020F00100C5F89000D5F89000C0
:102FE00020F00400C5F89000A06841F28838B8B11C
:102FF000FEF770FE07460EE0D5F8900040F00100A5
:10300000F0E740F00400C5F89000F5E7FEF762FE37
:10301000C11B414526D8D5F890008007F6D50CE0B5
:10302000FEF758FE074604E0FEF754FEC11B41457B
:1030300018D8D5F890008007F6D41EB1A86D20F0FE
:103040008050A8652078800629D5A0690028D5F889
:10305000980013D040F00100C5F89800FEF73AFE42
:10306000064606E077E000BFFEF734FE801B02282C
:1030700077D8D5F898008007F6D510E020F0010049
:10308000C5F89800FEF726FE064604E0FEF722FE8D
:10309000801B022865D8D5F898008007F6D4E0692F
:1030A000F0B3A968C1F38101032961D0022828681F
:1030B00020F0807028600BD0E86820F00300E86002
:1030C000E86847490840E860FEF704FE04464BE024
:1030D000FEF700FE064604E0FEF7FCFD801B02281A
:1030E0003FD828688001F7D4F4E908016FF00F0297
:1030F00002EB01110843218A5204490802EB4151B5
:10310000A26841EA02210843217D4FF07E4249082E
:1031100002EB41610843217B40EAC160E96800E0BD
:1031200062E0304A11400843E860286840F080704F
:103130002860E86840F08070E860FEF7CBFD044648
:1031400005E000BFFEF7C6FD001B022809D828686D
:103150008001F7D548E004E0FEF7BCFD001B022823
:1031600002D90320BDE8F88328688001F4D43BE04D
:103170000128F7D0E868226A00F00301914226D1C5
:10318000616A00F0F0020901103991421FD1A26A70
:1031900000F4FE41B1EB022F19D194F82C2000F07D
:1031A0007841B1EBC26F12D1218E00F4C002490800
:1031B0004905A1F50011914209D194F8341000F0AD
:1031C000C06049084906A1F1007181420CD001207C
:1031D000C8E70000001002406800002000700040B6
:1031E000FFFFEEFE0C809F010020BBE770B50400DE
:1031F00009D0606A002540B125616561A56294F837
:103200005D0040B10CE0012070BD6068B0F5827FC8
:10321000F4D0E561F2E784F85C50204600F05CF8F9
:10322000022084F85D002068016821F040010160FF
:10323000E1684FF4E062914201D9002001E04FF4CF
:103240008050B1F5706F02D0914200D0A562A18884
:10325000228901F4827102F404421143227C02F0BB
:1032600002021143227D02F001021143228B02F47B
:1032700000721143227F02F03802114394F820209B
:1032800002F080021143228D02F4005211432268A1
:103290001160A169042202EA114194F8242000F48B
:1032A000805002F01002114394F8342002F008021A
:1032B0001143A28902F47062114301432068416006
:1032C0002068C16921F40061C1612566012084F88C
:1032D0005D00002070BD000010B586B004461421CA
:1032E0006846FDF7B2F81249206888421DD111489E
:1032F000016E41F480510166016E01F48051059127
:10330000C16C41F00201C164C06C694600F002006A
:103310000590382000900220019000200290039038
:10332000052004900448FEF7A3FB06B010BD000082
:103330000030014000100240000400482DE9F84F21
:10334000044690F85C0000271D4616468946012871
:103350000DD04FF0010B84F85CB0FEF7BBFC80464B
:1033600094F85D00BA46012804D00227A4E00220A8
:10337000BDE8F88FB9F1000F74D0002E72D0032091
:1033800084F85D00C4F860A0C4F83890A687E6878A
:10339000C4F840A0A4F844A0A4F846A0C4F850A0E3
:1033A000C4F84CA0A068B0F5004F09D120680168AE
:1033B00021F0400101602068016841F48041016012
:1033C00020680168490603D4016841F040010160AA
:1033D000E068B0F5E06F606823D908B1012E1CD118
:1033E000A06B21680088C86006E0206881688907B2
:1033F00009D5A16B0988C160A06B801CA063E08F18
:10340000401EE08709E0FEF765FCA0EB0800A8423B
:1034100002D3681C01D046E0ADB3E08F0028E4D1B0
:1034200036E008B1012E30D1E08F0128A06B03D91E
:1034300021680088C8600FE021680078087314E0F4
:10344000E08722E020688168890714D5E18F01298F
:10345000A16B08D90988C160A06B801CA063E08FB4
:10346000801EEDE727E009780173A06B401CA06384
:10347000E08F401EE4E7FEF72DFCA0EB0800A84219
:1034800002D3681C01D00EE06DB1E08F0028D9D1C5
:1034900042462946204601F013F908B12020206653
:1034A000A06810B105E0032706E02068C1688068C5
:1034B0000090206E00B1012784F85DB084F85CA014
:1034C000384655E72DE9F05F044690F85C00002788
:1034D0000A9E1D4692468B464FF0010901280ED0E8
:1034E000012084F85C00FEF7F5FB804694F85D004F
:1034F000616801280CD0B1F5827F07D102E002207B
:10350000BDE8F09FA16809B9042801D0022700E1B5
:10351000BBF1000F24D0BAF1000F21D005B394F80D
:103520005D00042802D0052084F85D00002020669C
:10353000C4F840A0A4F84650A4F84450C4F838B0E9
:10354000E587A587E0642065E0684FF4E061884284
:1035500001D8012D06D92068426822F4805205E086
:103560000127D6E02068426842F480524260206819
:103570000268520603D4026842F040020260E0682A
:103580008842606845D908B1012D3AD1A06B216805
:103590000088C860A06B801CA063E08F401EE0879D
:1035A0002FE02068816889070FD5E18F69B1B9F1F3
:1035B000010F0AD1A16B0988C160A06B801CA063B8
:1035C000E08F401EE0874FF0000920688168C9073E
:1035D0000FD0B4F8461061B1C068216C0880206C2F
:1035E000801C2064B4F84600401EA4F846004FF04A
:1035F0000109FEF76FFBA0EB0800B04201D3701C7D
:1036000075D1E08F0028CCD1B4F846000028C8D18D
:1036100076E008B1012D6CD1E08F0128A06B08D9AC
:1036200021680088C860A06B801CA063E08F801EAA
:1036300007E0216800780873A06B401CA063E08F4E
:10364000401EE08755E02068816889071AD5E18F20
:10365000C1B1B9F1010F15D1E18F0129A16B07D9D2
:103660000988C160A06B801CA063E08F801E06E00B
:1036700009780173A06B401CA063E08F401EE087B7
:103680004FF0000920688168C90728D0B4F84610B7
:1036900029B3B4F84610012914D9C068216C0880F8
:1036A000206C801C2064B4F84600801EA4F84600FC
:1036B000B4F84600012810D82068416841F48051D0
:1036C00041600AE0007B216C0870206C401C206483
:1036D000B4F84600401EA4F846004FF00109FEF77A
:1036E000F9FAA0EB0800B04202D3701C01D018E038
:1036F000BEB1E08F0028A6D1B4F846000028A2D1C0
:1037000042463146204600F0DBFF10B10127202061
:103710002066012084F85D00002084F85C003846B3
:10372000EEE60327F5E710B5401EB0F1807F01D328
:10373000012010BD4FF0E02460610F21601703F0FD
:10374000C8F80020A06107202061002010BD000003
:10375000F0B590F83C20012A4AD0012280F83C20A4
:10376000CA688B6822F440721A434B6822F4806264
:103770001A430B6822F400621A430B6922F4805248
:103780001A434B6922F400521A430B6B22F4804215
:103790001A430B8B22F4702242EA0342154C036851
:1037A0000026154DA34201D0AB4203D1CF6922F0D0
:1037B00080523A43A34201D0AB4214D10F8D22F480
:1037C000700242EA07520F6A22F080723A434F6A4F
:1037D00022F000723A43A34201D0AB4203D1C96A3E
:1037E00022F000520A435A6480F83C600020F0BD89
:1037F0000220F0BD002C014000340140F0B590F8EB
:103800003C20012A3AD0012580F83C50022280F861
:103810003D2003685A689C68194E1A4FB34201D084
:10382000BB4204D122F4700C4A6842EA0C02DFF871
:1038300058C002EA0C02D1F800C04CEA020CC3F8EE
:1038400004C00268B2420DD0B2F1804F0AD00F4BD3
:103850009A4207D00E4B9A4204D0BA4202D00D4B86
:103860009A4204D1896824F080031943916080F85A
:103870003D50002180F83C100846F0BD0220F0BD0C
:10388000002C0140003401408FFFFFFD0004004088
:10389000000800400040014010B50446022249B132
:1038A00004290ED0082913D094F84700012816D017
:1038B000012010BD94F844000128F9D184F8442077
:1038C0000FE094F845000128F2D184F8452008E083
:1038D00094F846000128EBD184F8462001E084F8F2
:1038E00047200422206801F088F82068416C41F4E8
:1038F000004141641049206888420ED0B0F1804FE9
:103900000BD00E49884208D00D49884205D00D4998
:10391000884202D00C49884207D181680B4A114085
:10392000062906D0B1F5803F03D0016841F00101BE
:103930000160002010BD0000002C01400004004088
:103940000008004000340140004001400700010031
:10395000F0B587B0044614216846FCF776FD1E4991
:103960002068884236D11D48C16C41F00201C16413
:10397000C16C01F002010591C16C41F00101C1640B
:10398000C06C022500F0010005904FF4C04000908B
:103990000024CDE901540626114FCDE903466946BE
:1039A0003846FEF765F8A8030090CDE901540420DD
:1039B000CDE9034069463846FEF75AF84FF4E06017
:1039C0000090CDE90154CDE9034669464FF090409F
:1039D000FEF74EF807B0F0BD002C01400010024089
:1039E0000004004870B5044690F83C0000260D46DF
:1039F00001280BD0012084F83C000C2A4AD007DCB7
:103A000082B1042A20D0082A06D131E0022070BDFC
:103A1000102A53D0142A63D00126002084F83C00D9
:103A2000304670BD206800F0F5FF2068816941F0E4
:103A3000080181612068816921F0040181612068A9
:103A400081692A69114311E0206801F031F820688A
:103A5000816941F4006181612068816921F480619C
:103A60008161206881692A6941EA02218161D4E784
:103A7000206801F065F82068C16941F00801C16162
:103A80002068C16921F00401C1612068C1692A6907
:103A9000114311E0206801F09BF82068C16941F4EE
:103AA0000061C1612068C16921F48061C161206841
:103AB000C1692A6941EA0221C161AEE7206801F0CB
:103AC000CFF82068016D41F0080101652068016DA3
:103AD00021F0040101652068016D2A69114311E09C
:103AE000206801F0F5F82068016D41F4006101657E
:103AF0002068016D21F4806101652068016D2A69EB
:103B000041EA0221016588E710B5040003D094F86A
:103B10003D0010B107E0012010BD002084F83C00FA
:103B2000204600F023F8022084F83D00211D206883
:103B300000F0FEFE012084F8480084F83E0084F87E
:103B40003F0084F8400084F8410084F8420084F883
:103B5000430084F8440084F8450084F8460084F863
:103B6000470084F83D00002010BD000008B5006843
:103B70000649884208D10648016E41F40061016699
:103B8000006E00F40060009008BD0000002C0140B1
:103B90000010024030B50446022269B1042912D057
:103BA000082917D00C291CD0102921D094F84300E3
:103BB000012824D0012030BD94F83E000128F9D11D
:103BC00084F83E201DE094F83F000128F2D184F8EB
:103BD0003F2016E094F840000128EBD184F8402003
:103BE0000FE094F841000128E4D184F8412008E076
:103BF00094F842000128DDD184F8422001E084F8E5
:103C000043200122206800F0EBFE194B206819497F
:103C1000194A984209D0884207D0904205D0174DE2
:103C2000A84202D0164DA84203D1456C45F4004588
:103C30004564206898420CD0B0F1804F09D0114BF8
:103C4000984206D0104B984203D0884201D090424F
:103C500007D181680D4A1140062906D0B1F5803F91
:103C600003D0016841F001010160002030BD000077
:103C7000002C01400034014000400140004401405C
:103C80000048014000040040000800400700010017
:103C900090F88010012918D0012180F8801024218B
:103CA000C0F8841050F8641B0A680B6823F0010305
:103CB0000B6022F000510022026050F8643C196051
:103CC000202101620277104670470220704770B5CC
:103CD000044690F8800001281DD0012084F880005F
:103CE0002420C4F8840020680568026822F00102DC
:103CF00002602068826822F060620A438260204687
:103D000001F01EF8206805602020C4F8840000201F
:103D100084F8800070BD022070BD70B5044690F834
:103D2000800001281DD0012084F880002420C4F8E0
:103D3000840020680568026822F0010202602068A1
:103D4000826822F060420A438260204600F0F8FF59
:103D5000206805602020C4F88400002084F88000DA
:103D600070BD022070BD10B5040003D0D4F88400EB
:103D700010B107E0012010BD002084F8800020462B
:103D800000F026F82420C4F884002068016821F09F
:103D900001010160204601F089F80128EBD0A06AFA
:103DA00010B1204600F0EEFF2068416821F49041F8
:103DB00041602068816821F02A01816020680168E3
:103DC00041F0010101602046BDE8104001F03EB81D
:103DD00010B598B00446142111A8FCF736FB442115
:103DE0006846FCF732FB17492068884227D1042037
:103DF0000024009003946846FEF75EFD08B1FCF7CE
:103E000099FC1148816D41F480218165816D01F437
:103E100080211691C16C41F00201C164C06C11A9EE
:103E200000F0020016904FF4406011900220CDE99E
:103E300012040720CDE914400448FDF719FE18B01C
:103E400010BD00000048004000100240000400487F
:103E5000FEE70000F0B500230A24302537261F4670
:103E600011E000BFB4EB107F02D905EB107C01E03C
:103E700006EB107C01F813C001EB430C00015B1C46
:103E80008CF80170DBB29342ECD3F0BD00EB810003
:103E9000006E00F0F840704700EB8100006E00F00B
:103EA000F84070478068C0F3C00070478068C0F376
:103EB000C00070478068C0F3800070478068C0F31E
:103EC00080007047C06810F4406F01D00020704738
:103ED00001207047042303EAD15310B51844436905
:103EE000C1F3045107248C40A3438A401343436128
:103EF00010BD042303EAD15310B518444369C1F33C
:103F0000045107248C40A3438A401343436110BDEE
:103F100000EB8100016E21F0004111430166704702
:103F200000EB8100016E21F00041114301667047F2
:103F3000F0B59BB000241794189420210FA8199471
:103F4000FCF783FA3C216846FCF77FFA3C484FF0C7
:103F5000A041042501604FF44031C0E9011485619E
:103F60000121C460C0E9044104774477016280F80C
:103F70002440C462046380F83840C46380F8404041
:103F8000FDF7B4FA08B1FCF7D5FB17A92C48179434
:103F9000FCF7FCFE08B1FCF7CDFB2A4E10A9062069
:103FA0007F270F9681E89100CDE913540FA924488B
:103FB000FCF758FF08B1FCF7BDFB2348009001A9AE
:103FC000092081E8A100CDE9045484200A908DF8ED
:103FD000244080208DF825400B9008958DF82640D0
:103FE0008DF8304069461648FCF7A8FB08B1FCF78D
:103FF000A1FB1648009040F20F100190694610484E
:10400000FCF79CFB08B1FCF795FB1148009040F2CF
:104010001520019069460A48FCF790FB08B1FCF7AF
:1040200089FB40F21B30CDE9006069460448FCF78B
:1040300085FB002801D0FCF77DFB1BB0F0BD000024
:10404000B001002040002019020030040400600884
:104050000800900C00B58DB030216846FCF7F5F9EA
:104060001149104808600846FDF76CFC08B1FCF7E0
:1040700061FB0220009000208DF804008DF80500FF
:104080000290039001210490CDE9050102460790BA
:1040900069460548FDF77CFB002801D0FCF74AFB88
:1040A0000DB000BD000800501C020020F0B587B024
:1040B00014216846FCF7C9F92148C16C41F004019C
:1040C000C164C16C01F004010591C16C41F0200193
:1040D000C164C16C01F020010591C16C41F0010186
:1040E000C164C16C01F001010591C16C41F0020194
:1040F000C164C06C134E00F002004FF4C044059040
:10410000002221463046FDF7DFFD0F4F00224021FF
:104110003846FDF7D9FD0125CDE90045002402947C
:10412000694630460394FDF7A3FC40200090CDE99A
:104130000154694638460394FDF79AFC07B0F0BD78
:10414000001002400008004800040048124810B562
:10415000104901604FF48271416000214FF4E06228
:10416000C0E902120222026101224261520282610E
:104170001022C0E9072107224162C0E90A12016347
:104180004163FFF733F8002803D0BDE81040FCF787
:10419000D1BA10BD003001403002002010B598B0F7
:1041A0000024149415941C2168461694FCF74DF9CC
:1041B000342107A8FCF749F931483049C0E9001417
:1041C0002021816042F23411C0E90314446184610A
:1041D000FFF79AFC08B1FCF7ADFA1494159414A9F2
:1041E00027481694FFF70AFB08B1FCF7A3FA6020F2
:1041F000CDE90004029403940494059400226946D6
:104200001F480694FFF7EEFB08B1FCF793FA04226F
:1042100069461B48FFF7E6FB08B1FCF78BFA08225A
:1042200069461748FFF7DEFB08B1FCF783FA052063
:1042300001900C2269461248FFF7D4FB08B1FCF745
:1042400079FA0794089409944FF400500A94CDE940
:104250000B400D9400030E94CDE90F40119412947D
:1042600007A907481394FFF773FA08B1FCF762FA3D
:104270000348FFF76DFB18B010BD0000002C014093
:1042800094020020184810B5164901604FF4E1313E
:104290004160002181600C22C160C0E9041281618B
:1042A000C161016241628162FFF75DFD08B1FCF707
:1042B00041FA00210C48FFF730FD08B1FCF73AFA4B
:1042C00000210948FFF703FD08B1FCF733FA06485F
:1042D000FFF7DEFC002803D0BDE81040FCF72ABA47
:1042E00010BD000000480040E002002010B5002290
:1042F0000F49104801F082FA08B1FCF71BFA0E4989
:104300000C4801F053FC08B1FCF714FA0B490948BA
:1043100001F0C0F808B1FCF70DFA064801F0C0FC46
:10432000002803D0BDE81040FCF704BA10BD00001F
:1043300000000020840800205401002054000020C8
:10434000FEE7FEE72DE9F84F044640F68F7A40F28B
:10435000064B48F60F784FF00009A7E1B0F844107B
:1043600011F00F0539D030F8256031047ED530F8D2
:10437000251001EA0A0141F0800120F8251005EB23
:10438000850004EBC00797F8740107F5B47700289F
:104390006DD0F87802286BD03A78216831F8220085
:1043A00048F68F73184048F2C003184321F82200E2
:1043B0003978206830F821205204B0F8502002EB00
:1043C00000037DD540F2024202EBC101595A890532
:1043D000890D009175D03A89C7E0C9062CD40188AF
:1043E00001EA080141F400410180206804F1280538
:1043F000B0F850102A78014440F2024000EBC200AD
:10440000085AC0F309006064E16B0144E1630021D4
:104410002046FDF749FD94F8240000289DD0A869A6
:1044200000289AD194F8240040F080012068A0F878
:104430004C1084F8249039E1018804F5B4750A051C
:104440001ED5B0F850102A7801440BEBC200085A70
:1044500004F52C71C0F30903EB61EA88206802F0CF
:10446000F6F92168088800EA0A0002E098E05FE0B7
:104470006CE040F0800008802046FEF789F915E1E5
:104480000904D8D5018801EA0A0141F080010180C0
:104490002068B0F850102A7801440BEBC200085A8B
:1044A00083059B0DEB6110D0696971B1EA882068C2
:1044B00002F0CDF9E969686908440021686101E00A
:1044C0004BE049E02046FDF7F8FC2068018809052B
:1044D000B1D4B0F850100844296900F206403E29D2
:1044E00008D94A09C90600D1521E4FF4004141EAD9
:1044F000822108E0A1B14A08C90700D0521C4FF63A
:10450000FF7101EA82210180216808884BF68F72D1
:10451000104080F4405048F2800210430880C5E00B
:10452000018821F4F8410180018841F40041EAE763
:104530002068B0F850103B780A180BEBC301515AB1
:104540008905890D009114D0FA880EE0324639466B
:104550002046FDF710FD00900BE00BEBC101595A0E
:104560008905890D009104D07A897969009B02F050
:104570006EF9F96900980844F8617969009808446F
:104580007861B86918B139690098814204D93978DD
:104590002046FDF792FC03E03946206801F002FF57
:1045A000300677D505EB850004EBC001206830F8B4
:1045B000252002EA080242F4004220F8252091F862
:1045C0002B002831022848D0C1F81890087B4A46B1
:1045D00008B3700620D5487810B1012812D03AE00F
:1045E0002068B0F8502010440A7800EBC200B0F800
:1045F000022422F4F842A0F80224B0F8022442F483
:10460000004206E02068B0F8503018440B7800EB08
:10461000C300A0F802241EE04B78206813B1012BE0
:1046200011D018E0B0F8502010440A7800EBC20016
:10463000B0F8062422F4F842A0F80624B0F80624C4
:1046400042F4004205E0B0F8503018440B7800EB1B
:10465000C300A0F80624097820E0F00522D42068E1
:10466000B0F850200B78104440F2024202EBC30233
:10467000805A8A69C0F3090082420CD9121A8A61F1
:104680000BD04A6902444A61CA691044C861206873
:1046900001F088FE0AE0C1F81890D9B22046FDF773
:1046A00003FC03E032462046FDF7D3FC2068B0F857
:1046B000441009043FF552AE0020BDE8F88F704762
:1046C000F8B515460E460B460092044600224FF4FC
:1046D000C05100F019F888B93346002280212046E5
:1046E000009500F081F848B9334600224FF4C061CC
:1046F0002046009500F008F8002804D0206E40F015
:10470000200020660320F8BD2DE9FE4F4FF0000A7F
:10471000984617460E4604460C9D8DF804A0FDF7FA
:10472000D9FA411BA8EB0105FDF7D4FA81462068B0
:104730004FF4C06B0C3002902A480068C0EBC000F8
:1047400000EB8000000D6843009043E05E4506D119
:104750002FB9029800788DF804009DF80400B8F194
:10476000FF3F37D0FDF7B6FAA0EB0900A84203D20D
:1047700015B1009858B32BE02068416821F0E001A2
:1047800041606068B0F5827F0BD1A068B0F5004F42
:1047900002D0B0F5806F04D12068016821F040019B
:1047A0000160A06AB0F5005F09D12068016821F4BA
:1047B000005101602068016841F40051016001204E
:1047C00084F85D0084F85CA00320BDE8FE8F00251E
:1047D000401E0090206880683040B842B6D100206A
:1047E000F3E70000740000202DE9F8431E469146CF
:1047F00088460446089DFDF76DFA401B351AFDF703
:1048000069FA074625480068C0F3CB30684338E0B2
:10481000701C37D0FDF75EFAC01BA84203D215B159
:10482000009860B32CE02068416821F0E00141600D
:104830006068B0F5827F0BD1A068B0F5004F02D060
:10484000B0F5806F04D12068016821F0400101605B
:10485000A06AB0F5005F09D12068016821F4005119
:1048600001602068016841F400510160012084F872
:104870005D00002084F85C000320BDE8F88300257B
:10488000401E00902068816838EA010004D00021B1
:104890004945BDD10020F0E70121F9E7740000206F
:1048A00070470178407841EA00207047FDF718BA58
:1048B00010B594B038216846FBF7C7FD14210EA847
:1048C000FBF7C3FD0020FDF791FF212000904FF47E
:1048D00080300190032405210120CDE90841069094
:1048E00002204421CDE90A1007900621CDE90C10E1
:1048F0006846FEF775FA08B172B6FEE70F20CDE9FB
:104900000E04002010901190129004210EA8FEF7C2
:1049100017F9002801D072B6FEE714B010BD0000F0
:104920000248016841F470010160704788ED00E0C1
:104930002DE9F0430268234B234D244E244C4FF0C5
:104940008049984207D0484505D0A84203D0B042DC
:1049500001D0A04203D122F070074A683A431D4FAC
:10496000DFF874C0DFF8748098420DD048450BD052
:10497000A84209D0B04207D0A04205D0B84203D027
:10498000604501D0404503D122F44075CA682A43EE
:104990004D6922F080022A4302608A68C2620A6876
:1049A0008262984207D0A04205D0B84203D0604549
:1049B00001D0404501D10969016301214161BDE890
:1049C000F0830000002C014000040040000800407B
:1049D00000340140004001400044014000480140D3
:1049E00010B501F01F030121046A99408C43046251
:1049F000016A9A401143016210BD10B501F01F0316
:104A00000421046A99408C430462016A9A4011436C
:104A1000016210BD2DE9F043026A22F00102026238
:104A2000056A436882691C4C25F0020522400C6827
:104A300022F0030214438A68194E2A43174D194F76
:104A4000DFF864C0DFF86490A84207D0B04205D018
:104A5000B84203D0604501D0484506D122F008088D
:104A6000CA6842EA080222F00402A84207D0B04213
:104A700005D0B84203D0604501D0484505D14D6905
:104A800023F440731D438B692B4343608461496861
:104A900041630262BDE8F0838FFFFEFF002C0140FE
:104AA0000034014000400140004401400048014002
:104AB000F0B5026A22F010020262056A4268836958
:104AC000194C1B4E23400C6823F4407343EA042422
:104AD00025F020038D6843EA0513144DA84201D048
:104AE000B04206D1CF6823F0800343EA071323F0D6
:104AF0004003A8420AD0B04208D00E4DA84205D0CB
:104B00000D4DA84202D00D4DA84207D14D6922F4A7
:104B1000406242EA85028D6942EA85024260846110
:104B2000496881630362F0BDFF8FFFFE002C0140E6
:104B30000034014000400140004401400048014071
:104B4000F0B5026A22F480720262056A4368C269A3
:104B5000194C1B4E22400C6822F00302144325F42A
:104B600000728D6842EA0522144DA84201D0B0427D
:104B700006D1CF6822F4006242EA072222F4806262
:104B8000A8420AD0B04208D00E4DA84205D00E4D22
:104B9000A84202D00D4DA84207D14D6923F44053DD
:104BA00043EA05138D6943EA05134360C46149680C
:104BB000C1630262F0BD00008FFFFEFF002C0140C8
:104BC00000340140004001400044014000480140E1
:104BD000F0B5026A22F480520262056A4268C36933
:104BE000194C1B4E23400C6823F4407343EA042401
:104BF00025F400538D6843EA0533144DA84201D0D3
:104C0000B04206D1CF6823F4004343EA073323F4CC
:104C10008043A8420AD0B04208D00E4DA84205D029
:104C20000D4DA84202D00D4DA84207D14D6922F486
:104C3000404242EA85128D6942EA85124260C461AF
:104C4000496801640362F0BDFF8FFFFE002C014044
:104C50000034014000400140004401400048014050
:104C600030B5026A22F480320262046A4268036D3F
:104C7000114D2B400D681D4324F400330C8943EA89
:104C800004430E4CA0420BD00D4CA04208D00D4C5A
:104C9000A04205D00C4CA04202D00C4CA04204D142
:104CA0004C6922F4803242EA042242600565496878
:104CB0008164036230BD00008FFFFEFF002C0140C5
:104CC00000340140004001400044014000480140E0
:104CD00030B5026A22F480120262046A4268036DEF
:104CE000114D24F400142B400D6843EA05230D896F
:104CF00044EA05540D4DA8420BD00D4DA84208D0F2
:104D00000C4DA84205D00C4DA84202D00B4DA84234
:104D100004D14D6922F4802242EA85224260036573
:104D20004968C164046230BDFF8FFFFE002C014062
:104D3000003401400040014000440140004801406F
:104D400030B5416EB9B1026891689268C1F34261B1
:104D50000B4B520F9C5CE50003F10804A25CB5FB11
:104D6000F2F2A0F86A205A5C615CD200B2FBF1F169
:104D7000A0F8681030BD0121A0F86A10F8E7000023
:104D80004E7E000890F82810C90706D001684A68CE
:104D9000C36A22F400321A434A6090F82810890747
:104DA00006D501684A68036B22F480321A434A60D0
:104DB00090F82810490706D501684A68436B22F429
:104DC00080221A434A6090F82810090706D5016826
:104DD0004A68836B22F400421A434A6090F8281014
:104DE000C90606D501688A68C36B22F480521A434B
:104DF0008A6090F82810890606D501688A68036CD5
:104E000022F400521A438A6090F82810490611D5FE
:104E100001684A68436C22F480121A434A60416C6C
:104E2000B1F5801F06D101684A68836C22F4C00284
:104E30001A434A6090F82810090606D501684A68A6
:104E4000C06C22F4002202434A607047F8B5002685
:104E50000446C0F88C60FCF73DFF054620680068FA
:104E60006FF07E47000708D52B4600224FF4001153
:104E70002046009700F054F960B9206800684007A8
:104E80000AD52B4600224FF480012046009700F0FF
:104E900047F908B10320F8BD2020C4F88400C4F805
:104EA000880044F86C6F00202675F8BD2DE9F041AC
:104EB0000446016880682269E3691043626900253D
:104EC0001A431043DFF82CC20A688B4B1A40024386
:104ED0000A6020684168E26821F440511143416052
:104EE0002168A069614501D0226A10438A68834B1A
:104EF0001A4002438A602068C16A626A21F00F0189
:104F00001143C1627E4923687E488B420DD1D0F89F
:104F1000880010F0030006D0012855D0022842D0A6
:104F200003283FD152E001203DE077498B420BD16D
:104F3000D0F8880010F00C0035D0042833D00828B1
:104F400040D00C282ED141E070498B420BD1D0F8D3
:104F5000880010F0300026D0102835D0202831D01D
:104F600030281FD132E06A498B420BD1D0F888003B
:104F700010F0C00017D0402826D0802822D0C028AA
:104F800010D123E063450DD1D0F8880010F44060C3
:104F900009D0B0F5806F17D0B0F5006F12D0B0F522
:104FA000406F13D010205B495B4F00264FF4004246
:104FB00063453BD160B1022813D004280BD00828E8
:104FC00072D10DE00220EEE70420ECE70820EAE7CA
:104FD000FDF7AAFE01E0FDF7CBFE010001D17CE068
:104FE0001146606A37F810206768B1FBF2F007EBF2
:104FF0004703834270D8B0EB073F6DD800230846C3
:105000001946FBF779F9090241EA106102027808B2
:10501000101871413A460023FBF76EF93F4AA0F59C
:105020004071914258D82168C86056E0E3694FF654
:10503000EF7893422CD109284ED2DFE800F0050822
:10504000114D0D4D4D4D1000FDF76EFE01E0FDF7C9
:105050007DFE010004D140E0FDF78AFEF9E711462C
:10506000606A37F81000B1FBF0F04100606801EBB6
:105070005001B1FBF0F0A0F1100141452CD84FF6E2
:10508000F0710140C0F3420001432068C16024E098
:10509000092821D2DFE800F0050912200E20202087
:1050A0001100FDF741FE02E016E0FDF74FFE0100A2
:1050B00004D112E0FDF75CFEF9E71146606A37F8AB
:1050C0001000B1FBF0F1606801EB5001B1FBF0F0B2
:1050D000A0F1100141450AD901250120A4F86A0078
:1050E00024F8680F2846A660E660BDE8F08180B22B
:1050F00099E7000000800040F369FFCFFFF4FF1143
:1051000000380140001002400044004000480040C8
:10511000004C00400024F400367E0008FFFC0F0025
:105120002DE9F0479A4617460E4604464FF000090F
:105130004FF02008089D4AE0681C48D0FCF7CAFDE3
:10514000A0EB0A00A8422AD84DB32068016849079D
:105150003DD5C069C043000539D421684FF40060D3
:105160000862206850E8001F21F4D07140E8001266
:10517000002AF6D12068083050E8001F21F0010114
:1051800040E80012002AF5D144F8848FC4F8048066
:10519000C4F8088004F8049C0320BDE8F087216867
:1051A00051E8000F20F4D07041E80002002AF6D147
:1051B0002068083050E8001F21F0010140E800128B
:1051C000002AF5D144F8848FC4F80480E2E720680F
:1051D000C06936EA000004D00020B842ACD00020FC
:1051E000DBE70120F9E7000010B50A46024903A0F9
:1051F00000F0D4FA004810BD540B00204344432073
:10520000436F6E66696700002DE9F0410C46D0F8E7
:10521000C422D0F8BC12E9B104EB840600EB860589
:105220000027AB693BB102EBC602926BB3FBF2F60F
:1052300002FB163282B1C1F81472D0F8C0020369C1
:105240002BB1D1F80802224601F5047198470020DD
:10525000BDE8F0810320FBE700231A462146AF6139
:1052600000F085FCF3E770B5D0F8BC4205466CB1A0
:1052700000F073FBC4F80C02D5F8C012D4F8040295
:10528000CA6804F503719047002070BD032070BD0B
:1052900070B50446812100F0CDFA00252587012153
:1052A000204600F0C7FAA4F878518221204600F089
:1052B000C1FAA4F84C50A4F84E50D4F8BC0248B13E
:1052C000D4F8C00204F52F7440688047206800F0CD
:1052D0003CFE2560002070BD122008800048704709
:1052E0002400002010B5D0F8BC4284B1D0F8C01220
:1052F00059B194F80002FF2807D08B6894F8012276
:1053000021469847FF2084F80002002010BD0320AA
:1053100010BD00000A210180004870477C00002079
:105320004321018000487047CC00002043210180C8
:1053300000487047880000204321018000487047E2
:10534000100100202DE9F04704464FF4077000F0EB
:10535000FDFD05004FF0000735D0C4F8BC52207C9D
:105360004FF010084FF40079012680B34023022249
:105370008121204600F048FB26874023022201219C
:10538000204600F041FBA4F87861A4F84E80082381
:1053900003228221204600F037FBA4F84C60D4F8A9
:1053A000C00200688047C5F81472C5F81872207CE6
:1053B000D5F80422A8B140230121204600F030FB9B
:1053C0000020BDE8F0870220C4F8BC72F9E7FFE7CF
:1053D0004B4602228121204600F016FB26874B46D1
:1053E000CCE74B46E8E7000010B50A46024903A0A7
:1053F00000F0D4F9004810BD540B00204344432072
:10540000496E74657266616365000000042008805F
:10541000004870472000002010B50A46024903A04A
:1054200000F0BCF9004810BD540B002053544D69E6
:1054300063726F656C656374726F6E69637300008D
:1054400010B50A46024903A000F0A8F9004810BDB3
:10545000540B002053544D333220566972747561D9
:105460006C20436F6D506F727400000010B5D0F85F
:10547000BC1251B1027C002AD1F8042207D040238B
:10548000012100F0CDFA002010BD032010BD4FF423
:105490000073F5E719B1C0F8C0120020704703206F
:1054A0007047000010B51A2008800A480168001DE6
:1054B0000468001D0068081809D008220649FEF794
:1054C000C9FC0549042210312046FEF7C3FC0248FE
:1054D000801E10BD9075FF1F3A000020D0F8BC025E
:1054E00018B1C0F804120020704703207047D0F8AC
:1054F000BC0228B1C0F81022C0F808120020704782
:10550000032070472DE9FC410646D0F8BC7200200C
:105510000C468DF80000ADF80400054637B1207840
:1055200010F0600128D0202944D102E00320BDE81A
:10553000FC81E288C2B1000660780AD5D6F8C012B4
:105540008B6839469847E288072A00D907223946EE
:1055500028E087F80002A07987F80102E28839463E
:10556000304600F06CF82AE0D6F8C01260780022CD
:105570008B682146984722E0607830B101281ED020
:105580000A2809D00B2815D110E096F89C020328B0
:1055900010D1022201A905E096F89C02032809D146
:1055A00001226946304600F064F808E096F89C0253
:1055B000032804D02146304600F036F8032528465B
:1055C000B5E710B5D0F8BC12012219B1D1F81432E8
:1055D00013B10FE0032010BD0122C1F81422D1F84D
:1055E0001022C262D1F81032D1F80822812100F0D5
:1055F000BEFA0022104610BD10B5D0F8B8220AB18C
:1056000052689047002010BD134610B50A4600218D
:1056100000F006FA002010BD134610B50A4600211E
:1056200000F0A5FA002010BD10B50446802100F05E
:1056300083FA2046BDE81040002100F07DBA10B585
:105640000323C0F89432C0F858211346C0F85C21F7
:105650000A46002100F0E4F9002010BD10B5052134
:10566000C0F8941200231A46194600F0D9F9002018
:1056700010BD10B50223C0F8943282611346C26196
:105680000A46002100F073FA002010BD10B5042175
:10569000C0F8941200231A46194600F068FA002058
:1056A00010BDF8B504460020ADF8000048880D464E
:1056B000010A062947D006DC01290FD0022912D0A1
:1056C000032962D11DE0072946D00F295DD1D4F806
:1056D000B402C26920E0694690473BE0D4F8B412B6
:1056E000207C0A68F7E7207C02260028D4F8B8025C
:1056F00005D0C16A684688470146467036E0816A2F
:10570000F8E7C0B2062840D2DFE800F003090D1127
:105710001519D4F8B4024268B2B3207CDBE7D4F8A0
:10572000B4028268F8E7D4F8B402C268F4E7D4F8A7
:10573000B4020269F0E7D4F8B4024269ECE7D4F8A5
:10574000B4028269E8E7207CF0B9D4F8B802416B72
:1057500068468847014609E0207CA8B9D4F8B80219
:10576000016B68468847014607204870EA888AB17D
:10577000BDF8000040B1824200D90246ADF80020D9
:105780002046FFF776FFF8BDFFE729462046FFF7E2
:105790004BFFF8E72046FFF779FFF4E770B50023E9
:1057A00000281ED00025044602E06D1CEDB2641CEA
:1057B0002678002EF9D1022404EB450414801278D7
:1057C000CA545B1C0322CA5400245B1C06E0CA5462
:1057D0005B1CDAB28C54521CD3B2401C0278002AF3
:1057E000F5D170BD01004FF0000004D0012901D0B7
:1057F000022901D0032070470120704778B10023AF
:10580000C0F8B832C0F8C032C0F8CC3209B1C0F824
:10581000B412012180F89C12027000F0A3B803209A
:10582000704710B5D0F8C402FCF777FBBDE8104014
:10583000FFF7D8BF10B5D0F8C402FCF748FBBDE8AD
:105840001040FFF7CFBF70B51646044621B194F85B
:105850009C02032841D048E0D4F8941204F11400CB
:105860000025022932D1D0E902318B4206D95A1AD9
:10587000826031462046FFF7CFFE0FE0994214D1F7
:105880004068884211D3D4F8981288420DD2002281
:1058900011462046FFF7C0FEC4F8985200231A466E
:1058A0001946204600F0BCF810E094F89C0203284A
:1058B00005D1D4F8B802C16809B1204688478021D3
:1058C000204600F039F92046FFF7C8FE94F8A00200
:1058D00001280AD184F8A05207E0D4F8B80242693E
:1058E0001AB120469047002800D1002070BD10B5A5
:1058F0001346044621B194F89C02032823D02AE0E1
:10590000D4F8941204F5AA70032924D1D0E9021224
:1059100091420AD98A1A8260C068824200D3024644
:1059200019462046FFF770FE15E094F89C02032804
:1059300005D1D4F8B802016909B12046884720464C
:10594000FFF7A4FE07E0D4F8B80282691AB1204636
:105950009047002800D1002010BDD0F8C402FCF709
:1059600010BD000010B51E490446C1F8F002C0F891
:10597000C4121C4808600820486002208860086142
:10598000002048618861C86108620846FCF73AFE59
:1059900008B1FAF7CFFE0022D4F8C402182311464A
:1059A00004F53174FCF762FA582300228021206844
:1059B000FCF75CFAC023002281212068FCF756FA2C
:1059C0004FF48873002201212068FCF74FFA4FF44E
:1059D0008073002282212068FCF748FA002010BD65
:1059E00090050020005C00400A0601F07F01D0F81D
:1059F000C40201EB810100EBC10002D590F82A003E
:105A0000704790F86A01704710B51C461346D0F8ED
:105A1000C4022246FCF7BEFCBDE81040FFF7E2BE20
:105A200010B5D0F8C402FCF7E5FCBDE81040FFF764
:105A3000D9BE70B50125044680F89C520020C4F8F8
:105A400094026060C4F8A402D4F8B802E0B1D4F8BB
:105A5000BC1221B1426812B10021204690470022B9
:105A6000402311462046FFF7CFFF4026A4F864519B
:105A70003346002280212046C4F86061FFF7C4FF4E
:105A8000A5840020266270BD032070BD90F89C1292
:105A9000042903D190F89D1280F89C1200207047D1
:105AA00010B5D0F8B81221B190F89C22032A02D088
:105AB00004E0032010BDC96901B18847002010BD72
:105AC00001740020704710B5D0F8C402FCF74CFEFA
:105AD000BDE81040FFF786BE70B5044600F2AA206C
