:020000040800F2
:1000000030070020790200088319000885180008CD
:10001000811900087F030008051A0008000000008D
:100020000000000000000000000000008719000828
:1000300081030008000000008519000889190008E4
:10004000930200089302000893020008930200083C
:10005000930200089302000893020008930200082C
:10006000930200089302000893020008930200081C
:10007000930200089302000893020008930200080C
:100080009302000800000000930200089302000899
:1000900093020008890300089302000893020008F5
:1000A00093020008930200089302000893020008DC
:1000B00093020008930200089302000893020008CC
:1000C00093020008930200089302000893020008BC
:1000D00093020008930200089302000893020008AC
:1000E000930200089302000893020008930200089C
:1000F0009302000893020008930200080000000029
:1001000000000000930200080000000093020008B5
:100110009302000800000000930200089302000808
:10012000930200089302000893020008930200085B
:100130009302000800000000000000009302000885
:100140009302000893020008000000000000000075
:10015000000000000000000000000000000000009F
:1001600000000000000000000000000093020008F2
:1001700093020008000000000000000000000000E2
:1001800000000000930200080000000000000000D2
:10019000000000000000000000000000000000005F
:1001A0000000000000000000930200089302000815
:1001B0009302000893020008930200080000000068
:1001C0000000000093020008000000000000000092
:1001D000930200089302000800F002F800F03CF8D7
:1001E0000AA090E8000C82448344AAF10107DA4592
:1001F00001D100F031F8AFF2090EBAE80F0013F0A8
:10020000010F18BFFB1A43F0010318477C180000C8
:100210009C180000103A24BF78C878C1FAD8520759
:1002200024BF30C830C144BF04680C607047000070
:100230000023002400250026103A28BF78C1FBD8EF
:10024000520728BF30C148BF0B6070471FB501F08F
:1002500005FC1FBD10B510BD00F058F81146FFF7A2
:10026000F5FF01F0E1FB00F076F803B4FFF7F2FFD1
:1002700003BC00F07DF800000948804709480047AA
:10028000FEE7FEE7FEE7FEE7FEE7FEE7FEE7FEE746
:10029000FEE7FEE704480549054A064B70470000A3
:1002A000F5190008D90100083001002030070020AE
:1002B00030030020300300204FF0000200B5134649
:1002C00094469646203922BFA0E80C50A0E80C5076
:1002D000B1F12001BFF4F7AF090728BFA0E80C5027
:1002E00048BF0CC05DF804EB890028BF40F8042B20
:1002F00008BF704748BF20F8022B11F0804F18BF8D
:1003000000F8012B7047704770477047754600F042
:100310002BF8AE4605006946534620F00700854697
:1003200018B020B5FFF7B6FFBDE820404FF000063B
:100330004FF000074FF000084FF0000B21F00701CD
:10034000AC46ACE8C009ACE8C009ACE8C009ACE810
:10035000C0098D46704710B50446AFF300802046B3
:10036000BDE81040FFF781BF00487047D000002073
:1003700001491820ABBEFEE7260002007047FEE7E9
:10038000704772B6FEE70000014800F0A2B9000015
:100390006C0000200B4910B501220023C1E90023A5
:1003A000D204C1E902320B614B6152228B61C1E977
:1003B0000732024601F1240000F0BCF8002800D00A
:1003C000012010BD48000020F0B5D1E901650C699D
:1003D0002C430D68BEB145F080452C43D1E906653C
:1003E000354391F820704E69406D46EA0766354303
:1003F000CE6803EBC303354300EBC3000023E0E802
:1004000002450A4C0AE044EA8544E7E7D618D55C81
:10041000D6F801601B1D45EA062520C0CD6804EB17
:1004200015452D789D42F1D8F0BD0000661A0008F0
:1004300070B5044600F0A4FC0546601C02D00448D8
:100440004068044400F09CFC401BA042FAD370BDFD
:100450001000002030B590F85C30012B07D0022B43
:1004600005D0016E41F002010166012030BD046833
:10047000A36D4D0701D0DD071DD011F0380F01D05D
:100480009D0718D511F4E07F01D05D0713D511F455
:10049000F05F01D01D070ED511F4604F01D0DD06CD
:1004A00009D511F4403F01D09D0604D511F47C0F0D
:1004B00005D05D0603D4E56D45F00105E5654C0703
:1004C00001D0DC071DD111F0380F01D09C0718D4E2
:1004D00011F4E07F01D05C0713D411F4F05F01D078
:1004E0001C070ED411F4604F01D0DC0609D411F4BE
:1004F000403F01D09C0604D411F47C0F06D05B066B
:1005000004D50368DC6D44F00204DC650B0604D5F9
:10051000036853F8DC4F14431C60CB0504D5036813
:1005200053F8E04F14431C600068426D0A43426573
:10053000002030BD70B5044690F85C00022803D05E
:10054000206E40F0080007E02068D0F8C4309B021D
:1005500005D5206E40F400702066012070BDD0F8F3
:10056000C400C0F301452B462046FFF72DFF21684C
:100570000120A840C1F8CC00A065002070BD10B5D6
:1005800090F85C20012A07D0022A05D0016E41F0C4
:1005900002010166012010BD0A687AB10B7B0A696D
:1005A0000C7A42EA43734A69406C496842EA8472B1
:1005B00000EBC100C0E90032002010BD0B7A4A698F
:1005C0000C8A42EA83720B7B006CDB06496843EAC3
:1005D00004431A4340F82120EEE7704770470000BB
:1005E000F0B590F85C40022C03D0016E41F0080198
:1005F0004DE0046840293DD0D4F898502D0743D0F1
:10060000D4F89840C4F30126D0F84C4006EBC60558
:1006100004EBC504256815F080455560256839D080
:1006200025F0604515602568284F05F00055956058
:1006300020CC05F00045156134F8045BADB2D561FE
:1006400054F8045C05F47025D56054F8045C05F496
:100650008015556154F8045C05F40015956154F853
:10066000045CC5F30665156254F8045CED0F556231
:10067000002518E0D4F890502D0705D0D4F890400C
:10068000C4F30126846CC1E7016E41F480710166F8
:100690000120F0BDC5F38A45C4E700BF14F805C0CA
:1006A00003F805C06D1CD2F80CC007EB1C4C9CF87D
:1006B00000C0AC45F2D80068402903D0C0F89C6067
:1006C0000020F0BDC0F89460FAE70000661A000848
:1006D00070472DE9F04704460068016D466D01F44E
:1006E000E0510E40016D476D01F007010F40016DB3
:1006F000426D01F0380102EA0108016D456D01F417
:1007000071010D40016D426D01F4602102EA0109A1
:10071000016D490607D5416D490604D540210165A3
:100720002046FFF7D5FF2068016DC9050DD5416D45
:10073000C9050AD5D0F8D820D0F8E01011404FF400
:1007400080720265204600F0E4F92EB1206806654B
:100750003146204600F0DFF92FB1206807653946A1
:10076000204600F0B1F9B8F1000005D02168086515
:100770004146204600F0B4F92068016D890508D58E
:10078000416D890505D54FF400710165204600F0E3
:10079000C3F92068016D09060CD5416D090609D51C
:1007A000D0F8D420D0F8DC10114080220265204619
:1007B00000F0B0F92068016D890408D5416D890405
:1007C00005D54FF400510165204600F0A1F92068DD
:1007D000016D090408D5416D090405D54FF40041A8
:1007E0000165204600F093F92068016D490409D5A0
:1007F000416D490406D54FF480410165206E40F0FB
:1008000080002066B9F1000005D0216808654946DE
:100810002046FFF7E3FE25B120680565206E2843DA
:100820002066206E002802D02046FFF7D6FEBDE8E5
:10083000F08700002DE9F041040006D0DFF8E881E0
:1008400094F85C00002518B107E00120BDE8F081B4
:1008500084F85D50204600F0EFF82068816921F0AF
:100860001001816100F08CFA0646032705E000BF05
:1008700000F086FA801B0A2811D8206880690007DA
:10088000F6D42068816941F00101816100F078FAB5
:1008900006460BE000F074FA801B0A2806D9206E89
:1008A00040F00100206684F85C70CEE72068806923
:1008B000C007EFD02068816941F0020181612168A1
:1008C000414502D1594960680860207C01282068B0
:1008D000816937D041F040018161607C0128206846
:1008E000816932D021F480418161A07C0128206897
:1008F00081692DD041F48051816120688169A268AD
:1009000021F44071114381612068816921F0A401C3
:1009100081612068016921F010010161E06801280E
:1009200019D010B302281BD02068816941F08001E2
:1009300081612068016941F010010161E0680328CC
:100940000ED012E021F04001C6E741F48041CBE730
:1009500021F48051D0E72068816941F0040103E06F
:100960002068816941F020018161207EE2694006B2
:100970006FF0FF0101EB0222A0F100701043226A28
:10098000A38A521E10430A0202EB03431843236852
:10099000D861A068B0F5407F10D1D4E90A0301EB1B
:1009A0000321401E0843216B131303EB011108437D
:1009B000A18C02EB014108432168C860206850F80F
:1009C000C01FE26B1143016019482064216851F88F
:1009D000802FA38E22F4F81242EA03420A601449DF
:1009E00070316164216851F8802F94F8383022F01A
:1009F000706242EA03620A600D49B031A1640D4998
:100A0000E1640C49D83121650A49F031616500F58E
:100A1000547120C08842FCD3A5652566012084F866
:100A20005C00002012E70000006400400065004008
:100A300000A4004088A5004010B598B004461421D9
:100A400011A8FFF739FC44216846FFF735FC1B4924
:100A50002068884230D18014009040030C90684692
:100A600000F08CFA08B1FFF78CFC1548816D41F05D
:100A700000718165816D01F000711691C16C41F0CA
:100A80000201C164C06C11A900F0020016904FF47D
:100A900040701190022012900020139014900920B1
:100AA0001590084800F03AF800221146152000F091
:100AB000CDF9152000F0BCF918B010BD006400405D
:100AC0000010024000040048C90704D0024B034A4A
:100AD0004021FFF785BD704708000020200000205E
:100AE000704790F85C10012905D0016E41F00401B7
:100AF000016601207047022180F85C1001688A6954
:100B000022F001028A6100210166084670477047A1
:100B10007047704770477047704700002DE9F04FED
:100B2000DFF82092002301260324A9F1040B85B0ED
:100B30000F2709F1040AABF1040EFAE006FA03F5F7
:100B40002A407CD091F804C00CF0030CBCF1010FDA
:100B500002D0BCF1020F26D1D0F808C0CDF800C0F9
:100B60004FEA430C04FA0CF8CDF810C0DDF800C0D1
:100B70002CEA080CCDF800C0D1F80C80DDF810C0CC
:100B800008FA0CF8DDF800C048EA0C08C0F8088044
:100B9000D0F804C02CEA050C0D79C5F300159D4072
:100BA00045EA0C0545600D79ED43AD070ED0C568EB
:100BB0004FEA430804FA08FC25EA0C05D1F808C0FE
:100BC0000CFA08FC4CEA050CC0F80CC00D7905F0D5
:100BD0000305022D16D1DD0800EB850CCDF808C009
:100BE000DCF820805D074FEAD56C07FA0CF528EA9F
:100BF00005080D6905FA0CF5DDF808C045EA080599
:100C0000CCF8205005684FEA430CCDF808C004FA30
:100C10000CFC25EA0C0591F804C00CF00308DDF883
:100C200008C008FA0CF848EA0508C0F800804D68CA
:100C300015F4403F7CD0444DD5F860C000E077E02B
:100C40004CF0010CC5F860C02D6E23F0030C05F0CC
:100C5000010500953D4D65440295AD684FEA837CE2
:100C60004FEA1C7807FA08FC25EA0C05B0F1904F12
:100C700006D0DFF8DCC0604505D14FF0010C20E064
:100C80004FF0000C1DE0DFF8CCC0604502D14FF002
:100C9000020C16E0DFF8C0C0604502D14FF0030C33
:100CA0000FE0DFF8B8C0604502D14FF0040C08E057
:100CB000DFF8ACC0604502D14FF0050C01E04FF009
:100CC000060C0CFA08FC4CEA050C029DC5F808C09D
:100CD000D9F80050CC46D1F8048095435FEAC82883
:100CE00000D51543CCF80050DAF80050D446D1F8BE
:100CF000048095435FEA882800D51543CCF800505E
:100D0000DBF80050DC46D1F8048095435FEA883870
:100D100000D51543CCF80050DEF80050F446D1F869
:100D2000048095435FEAC83800D51543CCF80050DD
:100D30005B1C0A6832FA03F57FF400AF05B0BDE82A
:100D4000F08F000008040140001002400000014044
:100D50000004004800080048000C0048001000484B
:100D600000140048426921EA02030A4043EA0241B2
:100D7000816170470AB181617047816270470000EC
:100D80000148806870470000100000200248816818
:100D900042681144816070471000002010B50024A3
:100DA000032000F073F80F2000F008F808B10124C8
:100DB00001E000F025F8204610BD000070B50E4E91
:100DC00005460024706898B14FF47A71B1FBF0F0D9
:100DD0000A490968B1FBF0F000F040FD40B9102D60
:100DE00006D200222946501E00F030F8356000E09F
:100DF0000124204670BD0000100000201C000020CF
:100E00000A4882B0016E41F001010166016E01F0F5
:100E100001010091816D41F080518165806D00F08C
:100E20008050009002B000F0A1B800000010024015
:100E3000002809DB00F01F020121914040098000D9
:100E400000F1E020C0F8001170470000F0B40E4B34
:100E50001B680C46C3F30223C3F10705042D00D918
:100E60000425191D072901D2002300E0DB1E0126FD
:100E700006FA05F1491E214099409E40761E164013
:100E80003143F0BC00F0BFBD0CED00E0064900F0BE
:100E9000070208684FF6FF03184040EA0220034AA1
:100EA00010430860704700000CED00E00000FA05F8
:100EB0002B492C4B0A6832214A432B4940B1B0F5EB
:100EC000007F086829D020F4C06040F480602CE0E6
:100ED0000868C0F34120022804D051F8800F20F4A4
:100EE000807022E0D1F8800020F48070C1F880008A
:100EF000086820F4C06040F400700860B2FBF3F0B2
:100F0000401C00E0401E4A69520501D50028F9D175
:100F1000486940050AD503207047C0F341200228E4
:100F200006D051F8800F40F48070086000207047B0
:100F3000D1F8800040F48070C1F88000086820F487
:100F4000C06040F400700860B2FBF3F0401C00E0A9
:100F5000401E4A695205DBD50028F9D1D8E70000C8
:100F60001C00002040420F000070004002488168D1
:100F700041F4804181607047007000402DE9F843E2
:100F80000446006800269D4D00035ED5A86D00272D
:100F9000C00008D4A86D40F08050A865A86D012756
:100FA00000F080500090DFF85892D9F8001041F41A
:100FB0008071C9F80010FFF7E3FE804606E000BF2D
:100FC000FFF7DEFEA0EB080002282BD8D9F80000BE
:100FD000C005F5D5D5F8900010F4407014D0216C00
:100FE000814211D0D5F89000D5F8901020F44070CF
:100FF00041F48031C5F89010D5F8901021F480317B
:10100000C5F89010C5F89000C00711D0FFF7B8FEE2
:10101000804641F2883907E0FFF7B2FEA0EB0801F5
:10102000494501D903260BE0D5F890008007F3D598
:10103000D5F89000216C20F440700843C5F890006A
:101040001FB1A86D20F08050A8652078C00707D098
:10105000D5F88800616820F003000843C5F88800CF
:101060002078800707D5D5F88800A16820F00C000B
:101070000843C5F888002078400707D5D5F88800D0
:10108000E16820F030000843C5F8880020780007A8
:1010900007D5D5F88800216920F0C0000843C5F8BD
:1010A00088002078800607D5D5F88800616920F48B
:1010B00040600843C5F888002078400607D5D5F879
:1010C0008800A16920F440500843C5F888002078C2
:1010D000000607D5D5F88800E16920F440400843B0
:1010E000C5F888002088C00507D5D5F88800216A92
:1010F00020F440300843C5F888002088800507D5D3
:10110000D5F88800616A20F440200843C5F88800BB
:10111000208840050FD5D5F88800A16A20F440103A
:101120000843C5F88800A06AB0F5801F03D1E868BD
:1011300040F48010E860208800050FD5D5F88800BD
:10114000E16A20F440000843C5F88800E06AB0F581
:10115000800F03D1E86840F48010E8602088C00464
:101160000FD5D5F88800216B20F040700843C5F8F2
:101170008800206BB0F1807F03D1E86840F48010D4
:10118000E86020884FF0006180040ED5D5F8880013
:10119000626B20F040601043C5F88800606B8842A5
:1011A00003D1E86840F48010E860208840040ED540
:1011B000D5F88800A26B20F040601043C5F8880085
:1011C000A06B884203D1E86840F48010E860208872
:1011D00000040FD5D5F88800E16B20F0405008439B
:1011E000C5F88800E06BB0F1805F03D1E86840F497
:1011F0008030E8603046BDE8F8830000001002400F
:10120000007000402DE9F0470E4605004FF0000742
:1012100025D0DFF8AC81D8F8000000F00F00B04214
:101220000CD2D8F8001021F00F013143C8F800109B
:10123000D8F8000000F00F00B04210D12968614CCE
:10124000C80741F2883A5AD06868DFF87C910328D1
:1012500008D0022820682DD0400500282CDB012072
:10126000BDE8F08720688001F9D5E06800F003024E
:10127000E068C0F30310401C032A19D0534A00BF92
:10128000B2FBF0F0E268C2F306225043E268C2F318
:101290004162521C5200B0FBF2F0484517D9A068D9
:1012A00010F0F00F0CD0880711D5A86840B10EE0FF
:1012B000474AE5E78003D0E700F092F8484506D9B1
:1012C000A06820F0F00040F08000A0608027A068B7
:1012D000696820F003000843A060FFF751FD8146D4
:1012E00006E000BFFFF74CFDA0EB090151453AD8DD
:1012F000A068696800F00C00B0EB810FF2D128689B
:10130000810714D5400703D5A06840F4E060A060D1
:101310002878000705D5A06820F4605040F4E0600C
:10132000A060A068A96820F0F000084304E0802FC6
:1013300003D1A06820F0F000A060D8F8001040466B
:1013400001F00F01B14216D9016821F00F013143BC
:101350000160FFF715FD074607E000BFFFF710FD2E
:10136000C11B514501D903207AE7D8F8000000F0ED
:101370000F00B042F2D12878400705D5A068E9688F
:1013800020F4E0600843A0602878000706D5A06834
:10139000296920F4605040EAC100A06000F020F804
:1013A000A1680C4AC1F30311515C01F01F01C84050
:1013B0000949086009480068BDE8F047FFF7FEBC2E
:1013C000002002400010024000B4C4040024F400D5
:1013D00040787D01761A00081C00002010000020D3
:1013E000184910B58868C0F381021748012A0BD04C
:1013F0008A68164BC2F38102022A06D08A68C2F3B9
:101400008102032A03D0002010BD184610BDCA680F
:1014100002F00304CA68C2F30312521C032C02D068
:10142000B0FBF2F001E0B3FBF2F0CA68C968C2F3A6
:1014300006225043C1F34161491C4900B0FBF1F061
:1014400010BD0000001002400024F40040787D012F
:101450002DE9F84304007AD02078FA4DC00747D030
:10146000A868E96800F00C0001F003010C2802D024
:10147000082817D001E0032914D06068B0F5803F38
:1014800017D0B0F5A02F286817D020F4803028603E
:10149000286820F4802028606068E0B1FFF770FCC5
:1014A000064614E02868800322D560680028D2D060
:1014B0001EE0286840F48030EDE740F4802028608A
:1014C000F7E700BFFFF75CFC801B642870D8286832
:1014D0008003F7D50CE0FFF753FC064605E000BF9C
:1014E000FFF74EFC801B6428F0D828688003F7D4EF
:1014F000207880074CD5A868E96800F00C0001F05E
:1015000003010C2802D004280DD001E002290AD0E2
:10151000E068002828682BD040F480702860FFF72E
:101520002FFC064619E02868400502D5E06800282F
:1015300091D06868217C20F0FE4040EA016068603C
:10154000C1480068FFF73AFC002800D120E076E1AE
:10155000FFF716FC801B0228B8D828684005F7D58D
:101560006868217C20F0FE4040EA016068600FE07E
:1015700020F480702860FFF703FC064605E000BFFA
:10158000FFF7FEFB801B0228A0D828684005F7D48F
:101590002078000729D560690028D5F8940013D079
:1015A00040F00100C5F89400FFF7EAFB064606E0AC
:1015B00090E000BFFFF7E4FB801B022886D8D5F837
:1015C00094008007F6D510E020F00100C5F89400E3
:1015D000FFF7D6FB064604E0FFF7D2FB801B02288C
:1015E00078D8D5F894008007F6D42078400761D5E4
:1015F000A86D0026C00008D4A86D40F08050A865F2
:10160000A86D012600F08050009090480168C9053F
:1016100011D40168804641F480710160FFF7B0FB8E
:10162000074604E0FFF7ACFBC01B022852D8D8F8ED
:101630000000C005F6D5A068012815D00528D5F80A
:10164000900016D020F00100C5F89000D5F8900069
:1016500020F00400C5F89000A06841F28838B8B1C5
:10166000FFF78EFB07460EE0D5F8900040F0010032
:10167000F0E740F00400C5F89000F5E7FFF780FBC5
:10168000C11B414526D8D5F890008007F6D50CE05F
:10169000FFF776FB074604E0FFF772FBC11B4145ED
:1016A00018D8D5F890008007F6D41EB1A86D20F0A8
:1016B0008050A8652078800629D5A0690028D5F833
:1016C000980013D040F00100C5F89800FFF758FBD0
:1016D000064606E077E000BFFFF752FB801B0228BA
:1016E00077D8D5F898008007F6D510E020F00100F3
:1016F000C5F89800FFF744FB064604E0FFF740FBFF
:10170000801B022865D8D5F898008007F6D4E069D8
:10171000F0B3A968C1F38101032961D002282868C8
:1017200020F0807028600BD0E86820F00300E860AB
:10173000E86847490840E860FFF722FB04464BE0B1
:10174000FFF71EFB064604E0FFF71AFB801B02288A
:101750003FD828688001F7D4F4E908016FF00F0240
:1017600002EB01110843218A5204490802EB41515E
:10177000A26841EA02210843217D4FF07E424908D8
:1017800002EB41610843217B40EAC160E96800E067
:1017900062E0304A11400843E860286840F08070F9
:1017A0002860E86840F08070E860FFF7E9FA0446D6
:1017B00005E000BFFFF7E4FA001B022809D82868FB
:1017C0008001F7D548E004E0FFF7DAFA001B0228B1
:1017D00002D90320BDE8F88328688001F4D43BE0F7
:1017E0000128F7D0E868226A00F00301914226D16F
:1017F000616A00F0F0020901103991421FD1A26A1A
:1018000000F4FE41B1EB022F19D194F82C2000F026
:101810007841B1EBC26F12D1218E00F4C0024908A9
:101820004905A1F50011914209D194F8341000F056
:10183000C06049084906A1F1007181420CD0012025
:10184000C8E70000001002401000002000700040B7
:10185000FFFFEEFE0C809F010020BBE710B5401E8D
:10186000B0F1807F01D3012010BD4FF0E024606112
:101870000F21601700F0C7F80020A0610720206149
:10188000002010BDFEE7000030B51C4887B01A49A3
:101890000024C0E900148460C46004744474847437
:1018A0001121416109210A22C0E906120125C0E97E
:1018B00008158562C562C0E90C548463C463FEF7F1
:1018C000B9FF08B1FEF75DFD00940194CDE9024532
:1018D0000494694609480594FEF751FE08B1FEF7E5
:1018E00050FD0648FFF7FDF8002201210348FEF7EE
:1018F000B1FD07B030BD0000006400406C00002066
:1019000030B587B014216846FEF7D6FC1A48C16C82
:1019100041F00401C164C16C01F004010591C16C86
:1019200041F02001C164C16C01F020010591C16C3E
:1019300041F00101C164C16C01F001010591C16C6C
:1019400041F00201C164C06C0C4D00F002004FF484
:1019500080440590002221462846FFF70BFA01201B
:1019600000210094CDE90101039169462846FFF763
:10197000D5F807B030BD0000001002400008004854
:10198000FEE7FEE770477047FFF700BA00B593B077
:1019900038216846FEF790FC14210EA8FEF78CFC57
:1019A0000020FFF785FA0220C10103914021049134
:1019B0000421CDE9080100905521CDE90A100790D6
:1019C0000C900D906846FFF743FD08B172B6FEE734
:1019D0000F200E9003200F90002010901190129075
:1019E00004210EA8FFF70EFC002801D072B6FEE716
:1019F00013B000BD0248016841F4700101607047F6
:101A000088ED00E0FEE70907090E002804DB00F17D
:101A1000E02080F80014704700F00F0000F1E02093
:101A200080F8141D70470000FFF7B8F9FFF7AEFF0C
:101A3000FFF766FFFFF728FF064D4FF4804421466D
:101A40002846FFF78FF90448FEF7A4FC6420FEF750
:101A5000EFFCF4E700080048000000204FF0407061
:101A6000E1EE100A70470001020304050607080CA6
:101A70001014182030400000000000000000010297
:101A80000304060708090000A81A00080000002047
:101A90002000000014020008C81A000820000020DE
:101AA00010070000300200080001020304050607C9
:101AB0000000000000000000100000000100000015
:081AC000000000000024F40006
:04000005080001D915
:00000001FF
