:020000040800F2
:100000006807002065020008AB160008C915000843
:10001000A91600085B040008A919000800000000E8
:10002000000000000000000000000000AF16000803
:100030000D05000800000000AD160008B11600080C
:100040007F0200087F0200087F0200087F0200088C
:100050007F0200087F0200087F0200087F0200087C
:100060007F0200087F0200087F0200087F0200086C
:100070005D0400087F0200087F0200087F0200087C
:100080007F0200087F0200087F0200087F0200084C
:100090007F0200087F0200087F0200087F0200083C
:1000A0007F0200087F0200087F0200087F0200082C
:1000B0007F0200087F0200087F0200087F0200081C
:1000C0007F0200087F0200087F0200087F0200080C
:1000D0007F0200087F0200087F02000891190008D3
:1000E0007F0200087F0200087F0200087F020008EC
:1000F0007F0200087F0200087F0200087F020008DC
:100100007F0200087F0200087F0200087F020008CB
:100110007F0200087F0200087F0200087F020008BB
:100120007F0200087F0200087F0200087F020008AB
:100130007F02000800000000000000007F020008AD
:100140007F0200087F0200087F0200087F0200088B
:100150007F0200087F0200087F0200087F0200087B
:100160007F0200087F0200087F0200087F0200086B
:100170007F0200087F0200087F02000800000000E4
:10018000000000007F0200080000000000000000E6
:100190007F02000800000000000000007F0200084D
:1001A0000000000000000000000000007F020008C6
:1001B0007F0200087F0200087F0200087F0200081B
:1001C0007F02000800F002F800F03CF80AA090E876
:1001D000000C82448344AAF10107DA4501D100F002
:1001E00031F8AFF2090EBAE80F0013F0010F18BF93
:1001F000FB1A43F001031847FC1A00001C1B000007
:10020000103A24BF78C878C1FAD8520724BF30C842
:1002100030C144BF04680C60704700000023002414
:1002200000250026103A28BF78C1FBD8520728BF06
:1002300030C148BF0B6070471FB501F045FD1FBDC1
:1002400010B510BD00F0CFF81146FFF7F5FF01F033
:10025000C3FB00F0EDF803B4FFF7F2FF03BC00F0BE
:10026000F5F800000948804709480047FEE7FEE727
:10027000FEE7FEE7FEE7FEE7FEE7FEE7FEE7FEE756
:1002800004480549054A064B704700005517000809
:10029000C5010008680100206807002068030020ED
:1002A0006803002053EA020C00F069802DE9F04B4E
:1002B0004FF00006002B1FBFB3FA83F503FA05F4D5
:1002C00024FA05F65E4012BF1643B2FA82F502FA2E
:1002D00005F4C5F120051EBF22FA05FC44EA0C0412
:1002E000203556EA044C4FEA144418BF641C4FF002
:1002F00000084FF00009904271EB030C39D300293C
:1003000019BFB1FA81F701FA07F6B0FA80F700FADF
:1003100007F6C7F120071EBF20FA07FC46EA0C06C5
:100320002037B6FBF4FCA7EB0507103F07F01F0BC7
:10033000CBF120060CFA0BFB2CFA06F644BFB346B1
:100340000026202FA4BF5E464FF0000B5BEA060C90
:1003500008BF4FF0010B19EB0B09ABFB027C48EB1C
:100360000608C01B06FB02CC0BFB03CC71EB0C0197
:10037000C1E70B46024641464846BDE8F08B13B53F
:100380004FF000004FF00001AFF30080BDE81C40CB
:1003900070474FF0000200B5134694469646203948
:1003A00022BFA0E80C50A0E80C50B1F12001BFF42E
:1003B000F7AF090728BFA0E80C5048BF0CC05DF894
:1003C00004EB890028BF40F8042B08BF704748BFE2
:1003D00020F8022B11F0804F18BF00F8012B704756
:1003E000704770477047754600F02CF8AE46050020
:1003F0006946534620F00700854618B020B5FFF740
:100400003FFFBDE820404FF000064FF000074FF0DF
:1004100000084FF0000B21F00701AC46ACE8C00922
:10042000ACE8C009ACE8C009ACE8C0098D4670472B
:1004300010B50446AFF300802046BDE81040FFF73A
:100440000ABF000000487047080100200149182039
:10045000ABBEFEE7260002007047FEE7014800F051
:10046000B3B800005C00002001681823CAB2103A3B
:10047000B2FBF3F2054B6FF30901032A9B5CC365E2
:1004800000D9091D8165084670470000D21C00088C
:1004900010B5014600208B698A6A4FF0C07453B1D1
:1004A000B3F5005F15D072B1012A0CD0022A0AD030
:1004B000032A09D104E01AB1012A06D0022A03D185
:1004C000C96AC90100D5012010BDC96AA142FAD08C
:1004D00010BD002AF7D0012AF2D0022AF3D0032A55
:1004E000F3D010BD30B50468256825F4802525605B
:1004F000046863608368402B036803D099600068D8
:10050000C26030BD9A600068C16030BD704772B68D
:10051000FEE72DE9F0410446876D00F0C1FA06467A
:1005200094F835000025022806D08020606584F804
:1005300034500120BDE8F0812068016821F01601E7
:1005400001602068416921F080014161206C08B997
:10055000A06C20B12068016821F0080101602068CA
:10056000016821F0010101600CE000F099FA801BA4
:10057000052807D920206065032084F8350084F819
:100580003450D7E720680068C007EED194F85C10BB
:100590003F208840B860012084F8350084F834504A
:1005A0000020C7E790F83510022903D0802141656B
:1005B00001207047052180F835100068016821F09E
:1005C00001010160002070472DE9F84304464FF017
:1005D0000009CDF8009063484FF41651A56D0068EE
:1005E000B0FBF1F72E6894F85C10082000FA01F1D6
:1005F00031420FD021680A6852070BD50A6822F0F1
:1006000004020A6094F85C108840A860606D40F0B5
:100610000100606594F85C104FF0010808FA01F0E1
:10062000304208D021684969090604D5A860606D88
:1006300040F00200606594F85C100420884030426D
:1006400008D021680968890704D5A860606D40F06A
:100650000400606594F85C1010208840304218D087
:1006600021680968090714D5A86020680168490352
:1006700004D50068000308D5A16C07E00168C9052E
:1006800003D4016821F008010160216C09B1204602
:10069000884794F85C1020208840304231D021688F
:1006A0000968C9062DD5A86094F83500052820688A
:1006B000016806D0490347D5006800031DD4616C6A
:1006C0001CE021F0160101602068416921F08001E1
:1006D0004161206C08B9A06C20B12068016821F04C
:1006E0000801016094F85C103F208840A86084F8FD
:1006F000358084F83490216D1FE0E16B09B120460C
:100700008847606D00282BD0606DC00714D005208D
:1007100084F835002068016821F00101016000982B
:10072000401C0090B84203D820680068C007F6D18A
:1007300084F8358084F83490E16C002910D001B041
:100740002046BDE8F04308470168C905D5D40168D3
:1007500021F01001016084F8358084F83490CCE7F2
:10076000BDE8F8830C0000202DE9F041044600F0BC
:1007700097F906465CB1022084F83500002584F81C
:1007800034502068016821F0010101600DE0012072
:10079000BDE8F08100F084F9801B052805D92020F0
:1007A0006065032084F83500F2E720680068C00720
:1007B000F0D12268116820480140D4E901031843B0
:1007C000D4E903363343184363691843A3691843D4
:1007D000E3691843236A18430843616A042903D173
:1007E000D4E90B1319430843106020684069666A16
:1007F00020F0070130460E43012704280CD1A06ADF
:100800000643E06A40B12046FFF742FE20B1402097
:10081000606584F83570BAE7206846612046FFF7C6
:1008200023FE94F85C203F2191408160656584F847
:1008300035700020ACE700003F8010F070B5044632
:1008400090F83400002501280CD0012084F83400F1
:1008500094F835600020012E06D084F8340002257B
:10086000284670BD022070BD022684F835606065A0
:100870002046FFF737FE2068016841F00101016062
:10088000EEE7000070B5044600F00AF90546601C6A
:1008900002D004480078044400F002F9401BA04252
:1008A000FAD370BD000000202DE9F84FDFF8ACA1AD
:1008B0000022012403254FF00F090AF1040BAAF1CD
:1008C000040E00BF0B6804FA02F63340B3426ED147
:1008D0000F7907F00307012F01D0022F16D1876887
:1008E0004FEA420805FA08FC27EA0C07D1F80CC0C9
:1008F0000CFA08FC4CEA070CC0F808C04768B7437C
:100900000E79C6F3001696403E4346600E79F643D4
:10091000B6070AD0C6684FEA420C05FA0CF7BE4388
:100920008F6807FA0CF73743C7600E7906F00306A5
:10093000022E10D1D60800EB8608D8F820605707A1
:100940004FEAD76C09FA0CF7BE430F6907FA0CF7A8
:100950003743C8F8207006684FEA420C05FA0CF7D6
:10096000BE430F7907F0030707FA0CF73743076018
:100970004E6816F4403F6BD0394E376847F48047D5
:100980003760366822F0030706F480460096354E3D
:1009900007EB060CDCF8086897074FEA177809FAA6
:1009A00008F7BE43304FB84202D100271FE04FE0A6
:1009B0002E4FB84201D1012719E02D4FB84201D185
:1009C000022714E02B4FB84201D103270FE02A4F32
:1009D000B84201D104270AE0284FB84201D10527C7
:1009E00005E0274FB84201D1062700E0072707FAA4
:1009F00008F73743CCF80878DAF800605746D1F8A2
:100A000004C09E435FEACC2C00D51E433E60DBF859
:100A100000605F46D1F804C09E435FEA8C2C00D58D
:100A20001E433E60DEF800607746D1F804C09E4366
:100A30005FEA8C3C00D51E433E60084F083F3E688D
:100A4000D1F804C09E435FEACC3C00D51E433E6013
:100A5000521C102AFFF436AFBDE8F88F083C014065
:100A600044380240003001400000024000040240CF
:100A700000080240000C0240001002400014024036
:100A800000180240426921EA02030A4043EA024197
:100A9000816170470AB1816170470904FBE700007A
:100AA000014880687047000000000020024881680B
:100AB0000278114481607047000000200B4810B597
:100AC000016841F400710160016841F480610160D6
:100AD000016841F480710160032000F06FF80F207D
:100AE00000F006F800F024F8002010BD003C0240A1
:100AF00070B50D4D04464FF47A712878B1FBF0F0D3
:100B00000A490968B1FBF0F000F074FB48B9102CF9
:100B100007D200222146501E00F030F800206C6001
:100B200070BD012070BD0000000000200C000020FE
:100B30000A4808B5016841F480410160006800F48A
:100B4000804000900548001F016841F0805101601D
:100B5000006800F08050009008BD0000443802405A
:100B6000002809DB00F01F020121914040098000AC
:100B700000F1E020C0F8001170470000F0B40E4B07
:100B80001B680C46C3F30223C3F10705042D00D9EB
:100B90000425191D072901D2002300E0DB1E0126D0
:100BA00006FA05F1491E214099409E40761E1640E6
:100BB0003143F0BC00F0F9BE0CED00E0064900F056
:100BC000070208684FF6FF03184040EA0220034A74
:100BD00010430860704700000CED00E00000FA05CB
:100BE0002DE9F8431748016841F080510160006821
:100BF000154F00F08050012600903E64FFF750FF33
:100C000005464FF47A78114C05E000BFFFF748FF26
:100C1000401B40450DD86068C003F7D57E64FFF7E0
:100C20003FFF0546464607E0FFF73AFF401BB0424C
:100C300002D90320BDE8F88360688003F4D5002062
:100C4000F8E700004038024000000E42007000400B
:100C50002DE9F0470E46050065D0DFF81481D8F87D
:100C60000000F7B200F00F00B04207D288F8007021
:100C7000D8F8000000F00F00B04254D128683D4C75
:100C8000810712D5400703D5206840F4E05020606A
:100C90002878000703D5206840F460402060206871
:100CA000A96820F0F000084320602878C0072DD004
:100CB000304968680839012812D0022813D0032867
:100CC00011D00968890700292DDA216821F0030174
:100CD00001432160FFF7E4FE814641F2883A0EE0CD
:100CE00009688903EFE709688901ECE7FFF7D8FE97
:100CF000A0EB0901514502D90320BDE8F087206827
:100D0000696800F00C00B0EB810FEFD1D8F800104B
:100D1000404601F00F01B14207D90770006800F0AA
:100D20000F00B04201D00120E7E72878400705D541
:100D30002068E96820F4E050084320602878000724
:100D400006D52068296920F4604040EAC10020608F
:100D500000F038F82168084AC1F30311515CC8401B
:100D60000649086006480068FFF7C2FE0020C4E795
:100D7000003C024008380240DA1C00080C00002049
:100D8000040000200448054900680968044AC1F3CA
:100D90008221515CC84070470C0000200838024096
:100DA000EA1C00080448054900680968044AC1F3C0
:100DB0004231515CC84070470C00002008380240A6
:100DC000EA1C0008224810B5006810F00C02214807
:100DD00015D02149042A11D01D4C241F082A0FD0F8
:100DE0000C2A0CD12268236802F03F025B0221D555
:100DF0002068C0F38810A0FB010120E0084610BD68
:100E00002268236802F03F025B0205D52068C0F328
:100E10008810A0FB010104E02168C1F38811A1FB47
:100E200000010023FFF73EFA2168C1F30141491C8C
:100E300049000AE02168C1F38811A1FB00010023E9
:100E4000FFF730FA2168C1F30271B0FBF1F010BD79
:100E5000083802400024F400001BB7002DE9F84FC9
:100E600004007DD0DFF878B32078ABF10407C00729
:100E7000A7F1040550D0DBF800105846C1F38101FA
:100E800001290FD00168C1F38101022902D139681B
:100E9000490207D40068C0F38100032809D13868EB
:100EA000400206D52868800336D560680028D8D06F
:100EB00032E06068B0F5803F10D0B0F5A02F286810
:100EC00010D020F480302860286820F4802028602A
:100ED0006068A0B1FFF7E4FD06460CE0286840F426
:100EE0008030F4E740F480202860F7E7FFF7D8FD72
:100EF000801B642876D828688003F7D50CE0FFF7BC
:100F0000CFFD064605E000BFFFF7CAFD801B642841
:100F1000F0D828688003F7D42078DFF8C8928007DB
:100F20004FF0000A44D5DBF80010584611F00C0FC2
:100F30000FD00168C1F38101022902D13968490249
:100F400007D50068C0F3810003280AD13868400241
:100F500007D42868800715D5E068012800D111E082
:100F60003AE1E068B0B10120C9F80000FFF798FD50
:100F7000064604E0FFF794FD801B0228BAD82868D3
:100F80008007F7D52868216920F0F80040EAC10001
:100F900028600DE0C9F800A0FFF782FD064604E0D6
:100FA000FFF77EFD801B02281CD828688007F7D435
:100FB0002078000727D5DFF828828B48616908F17F
:100FC0006C0881B101210160FFF76AFD064604E06B
:100FD000FFF766FD801B022804D8D8F800008007C0
:100FE000F6D510E089E0C0F800A0FFF759FD0646ED
:100FF00005E000BFFFF754FD801B02287DD8D8F81C
:1010000000008007F6D42078400769D574484FF077
:10101000000838300068C0000BD4714838300168CF
:1010200041F08051016000684FF0010800F08050ED
:1010300000906E4E3068C00511D4306840F4807066
:101040003060FFF72DFD009006E000BFFFF728FDA0
:101050000099401A022850D83068C005F6D5604E75
:10106000A068683601280FD00528306810D020F01D
:1010700001003060306820F004003060A068B8B132
:10108000FFF70EFD00900FE0306840F00100F4E73C
:1010900040F004003060F7E7FFF702FD0099411AC5
:1010A00041F28830814264D830688007F4D50EE080
:1010B000FFF7F6FC009007E0FFF7F2FC0099411AF9
:1010C00041F28830814254D830688007F4D4B8F1B6
:1010D000000F05D042483830016821F0805101608E
:1010E000A069A8B3DBF80010C1F38101022947D041
:1010F0000228C9F860A005D000E03AE0FFF7D0FC74
:10110000044639E0FFF7CCFC064604E0FFF7C8FCD4
:10111000801B02282DD828688001F7D4F4E9070144
:101120000843E168324A490802EB0141A26841EAFA
:1011300082110843217C40EA0160217D40EA017070
:1011400038600120C9F86000FFF7AAFC044606E0F9
:1011500044E000BFFFF7A4FC001B022809D8286860
:101160008001F7D53AE000BFFFF79AFC001B022888
:1011700002D90320BDE8F88F28688001F4D42DE05F
:101180000128F7D03868E26900F48001914223D148
:10119000226A00F03F0191421ED147F6C071626A97
:1011A0000140B1EB821F17D1A26A4FF0FF3300F468
:1011B000403103EB5202B1EB024F0DD194F82C20D9
:1011C00000F07061B1EB026F06D194F8301000F0BE
:1011D000E040B0EB017F01D00120CBE70020C9E760
:1011E0000838024000004742800E4742007000402D
:1011F0000000FFFF10B5401EB0F1807F01D3012039
:1012000010BD4FF0E02460610F21601700F0CDFBAE
:101210000020A06107202061002010BD70477047AA
:10122000F8B5016804460868CA684B6910F00F0FEA
:101230004FF0000559D003F0010602F490773743D0
:1012400065D0C10705D0D10503D5216C41F001015E
:101250002164410705D5D90703D0216C41F0020173
:101260002164810705D5D90703D0216C41F0040121
:101270002164010707D502F02001314303D0216C1E
:1012800041F008012164216C00293AD0800604D580
:10129000900602D5204600F094FA20684069216C3F
:1012A000C0F38010090700D460B3204600F062FA52
:1012B00020684069400621D52068143050E8001F9E
:1012C00021F0400140E80012002AF5D1A06BA8B13E
:1012D0006C490165A06BFFF765F9002811D0A06B80
:1012E000016D01B0BDE8F040084783060FD59306B5
:1012F0000DD52046BDE8F84000F063BA2046FFF760
:101300008EFFF8BD2046FFF78AFF2564F8BD266BE7
:101310002023012E79D1C60677D5D60675D5086863
:10132000486800904869400640D5A16B086840684D
:101330000004000CEAD0A28D8242E7D9E085C8699A
:10134000B0F5807F2DD020680C3050E8001F21F4CC
:10135000807140E80012002AF5D12068143050E86E
:10136000001F21F0010140E80012002AF5D1206899
:10137000143050E8001F21F0400140E80012002A1C
:10138000F5D184F83E30256320680C3050E8001F0A
:1013900021F0100140E80012002AF5D1A06BFFF700
:1013A000B8F8A08DE18D401A81B229E0A08DE18DC1
:1013B000401A81B2E08D0028A8D00029A6D020686C
:1013C0000C3050E8002F22F4907240E80026002EE6
:1013D000F5D12068143050E8002F22F0010240E8D7
:1013E0000026002EF5D184F83E30256320680C30AD
:1013F00050E8002F22F0100240E80023002BF5D126
:101400002046FFF70BFFF8BDFFE705062BD51506B5
:1014100029D594F83D002128F5D1A068B0F5805F6A
:1014200001D12069B0B1206A411C21622168007895
:101430004860E08C401E0004000CE084E3D120688A
:10144000C16821F08001C1602068C16841F040019D
:10145000C160D8E7206A0088C0F308004860206AAD
:10146000801C2062E5E74006CDD55006CBD5CA6882
:10147000204622F04002CA6084F83D3000F0A3F814
:10148000C1E700006517000870B5040004D094F8A7
:101490003D00002510B106E0012070BD84F83C50ED
:1014A000204600F023F8242084F83D002068C1681D
:1014B00021F40051C160204600F0E4F92068016980
:1014C00021F4904101612068416921F02A014161C4
:1014D0002068C16841F40051C1602564202084F86F
:1014E0003D0084F83E00002070BD00002DE9F0436F
:1014F00087B0064614216846FEF74BFF2B4930683B
:10150000884250D12A480025016841F480210160B9
:101510000068274900F4802010390590086840F0E1
:1015200004000860086800F004000590086840F0B6
:10153000020008600868022400F0020005902020E4
:1015400003274FF007088DE8B10169461948FFF7F6
:10155000ABF94FF4806901AACDF8009082E8B001A0
:1015600069461548FFF7A0F9154C144820604FF064
:101570000060C4E90105C4E90359C0146561C4E908
:101580000650256220466562FFF7EEF808B1FEF7C7
:10159000BEFFB463002211462720A663FFF7EEFAD0
:1015A0002720FFF7DDFA07B0BDE8F08300480040D0
:1015B0004038024000080240000402402860024017
:1015C0005C00002070477047FEE70000094808B53E
:1015D000016841F4001101600068002200F400106D
:1015E000009011460C20FFF7C9FABDE808400C2016
:1015F000FFF7B6BA3038024030B587B014216846DC
:10160000FEF7C7FE15480024016841F08001016023
:10161000016801F080010591016841F00401016059
:10162000016801F004010591016841F002010160C7
:1016300000680B4D00F002000590002201212846B1
:10164000FFF728FA01210091CDE9011469462846E7
:101650000394FFF729F907B030BD0000303802408D
:10166000000802400E4810B50C4901600D49416068
:101670004FF4805181604900C160C91001610C21A3
:10168000416100218161C161FFF7FEFE002803D0A6
:10169000BDE81040FEF73BBF10BD00000048004011
:1016A00018000020A0860100FEE7FEE770477047A3
:1016B000FFF7FCB910B594B034216846FEF769FE17
:1016C00014210DA8FEF765FE20480024016841F0B2
:1016D00080510160006800F0805012901C48016841
:1016E00041F440410160006800F440401290012044
:1016F00000900004019002204105CDE90601062179
:101700000891B421CDE909100B900C906846FFF7C1
:10171000A5FB08B172B6FEE7FFF762FA08B172B630
:10172000FEE70F200D900320CDE90E044FF4A050EA
:1017300010904FF48050119005210DA8FFF788FA02
:10174000002801D072B6FEE714B010BD4038024048
:10175000007000400248016841F470010160704768
:1017600088ED00E010B5806B0021C185C184FFF7D2
:1017700056FD10BD01680C3151E8002F22F4907223
:1017800041E80023002BF5D10168143151E8002F06
:1017900022F0010241E80023002BF5D1016B012961
:1017A00009D101680C3151E8002F22F0100241E804
:1017B0000023002BF5D1202180F83E100021016389
:1017C000704708B590F83E10222901D0022008BDCC
:1017D00082684FF480539A4201D1016921B1816A34
:1017E0009A421BD04AB10AE00268816A5268C2F389
:1017F00008020A80816A891C08E0026972B10268E5
:10180000526802F07F020A70816A491C8162C18DB0
:10181000491E0904090CC18503D019E00268526809
:10182000F1E70168CA6822F02002CA600168CA684C
:1018300022F48072CA6001684A6922F001024A619A
:10184000202180F83E10016B012903D0FFF7BAFE7A
:10185000002008BD0021016301680C3151E8002F10
:1018600022F0100241E80023002BF5D101680A683C
:10187000D20602D50A6849680091818DFFF7CEFC37
:10188000E6E7000070B5044600680169E26821F4EB
:101890004051114301612169A068E269084361690F
:1018A000114308432168CA6849F20C639A43024312
:1018B000CA6020684169A26921F440711143416105
:1018C00031492068884202D03049884202D1FFF76E
:1018D00069FA01E0FFF756FAE2690023192164254D
:1018E0003226B2F5004F626828D0A0FB0101930FA9
:1018F0009200FEF7D7FC0146B0FBF5F06FF018023E
:10190000504301EB800006EB0010B0FBF5F000F057
:10191000F002B1FBF5F002EB0012B1FBF5F06FF055
:101920001803584301EB800006EB0010B0FBF5F004
:1019300000F00F0021681044886070BDA0FB010119
:1019400092185B41FEF7AEFC0146B0FBF5F00201D8
:10195000B1FBF5F06FF01803584301EB800006EB84
:10196000C000B0FBF5F000F0F80002EB4002B1FB64
:10197000F5F0584301EB800006EBC000B0FBF5F03A
:1019800000F00700D6E700000010014000140140FD
:1019900010B50448FFF744FCBDE81040014800F0D2
:1019A0002DB9000018000020FEE70907090E0028E5
:1019B00004DB00F1E02080F80014704700F00F0015
:1019C00000F1E02080F8141D7047904202DA88424E
:1019D00000DD002070470000FFF770F8FFF76AFE97
:1019E000FFF70AFEFFF7F2FDFFF73CFE00F066F995
:1019F000044C01212046FFF745F86420FEF742FF22
:101A0000F7E7000000080240884201DA0020704732
:101A100001207047884201DB904202DD9FED070AFA
:101A20007047401A00EE100A501AF8EEC00A00EE95
:101A3000100AB8EEC01A80EE810A7047000000005C
:101A40002DE9F04704466C480268521C0260087891
:101A50000F2872D1087E00286FD1C87D4FF0000A90
:101A60000C285BD001202080B1F80100C0F30A08E7
:101A7000A4F802808878CA78C00840EA4210C0F30F
:101A80000A0CA4F804C0C8780A79800940EA8200E8
:101A90004A7940EA8220C0F30A00E0808146487912
:101AA0008A79400840EAC210C0F30A0020818A798E
:101AB000CB79120942EA0312C2F30A076781CA7995
:101AC0000B7AD20942EA43024B7A42EA4322C2F33A
:101AD0000A02A2814B7A8D7A9B0843EA8513C3F3ED
:101AE0000A06E6818B7ACD7A5B0943EAC503238235
:101AF0008D89C5F30A0565824D7B897BED0845EA32
:101B00004111C1F30A014FF47A75A182A84516D19B
:101B1000AC4514D1B9F1000F03D010E0A4F800A037
:101B2000A2E7A8420BD1AF4209D1AA4207D1AE42E7
:101B300005D1AB4203D1C4F800A0BDE8F0870A226A
:101B400056423146A0F58060FFF73FFF2083E088D2
:101B50000A22A0F296604042E08260883146A0F5F9
:101B6000806000B2FFF731FFA083A0880A22A0F5B1
:101B7000806000B23146FFF728FF6083B4F90A00A5
:101B80002946FFF741FF84F82800B4F90C0040F221
:101B90004651FFF739FF84F82900B4F912004FF4D9
:101BA000FA7240F2DC51002807DD904201DA002091
:101BB00004E0884201DA012000E0022084F82A00D3
:101BC000B4F9140029460C34FFF71EFFE07740F209
:101BD0009E654FF49976B4F902002A463146FFF724
:101BE00019FF84ED050AB4F904002A463146FFF7CF
:101BF00011FF84ED060AA0E71400002038B5044662
:101C000000680168C90626D5C068C00623D51248F9
:101C10000168491C01602068016840680090A06B61
:101C20000068016821F0010101600C4884420CD178
:101C3000A06B0068406880B2192802D1084800F003
:101C400037F8A06B322100684160A06B0068016822
:101C500041F00101016038BD100000201800002093
:101C6000BC00002038B5104988421CD10868002506
:101C7000016841680091C16841F01001C1600A4CDF
:101C80000A4A94F83E0020280DD13223A262A3858F
:101C900025642168A06B091DFEF7D0FD206841690D
:101CA00041F04001416138BD18000020BC00002017
:101CB00001460148FFF7C4BED80000200148FFF7E5
:101CC000D1BF0000180000204FF04070E1EE100A74
:101CD00070470006101600061016000000000000F5
:101CE00000000102030406070809000000000102C9
:101CF00003040000141D000800000020180000006C
:101D0000000200082C1D00081800002050070000E9
:101D10001C0200080100000010000000000000008C
:0C1D20000024F40000000000000000009F
:04000005080001C529
:00000001FF
