:020000040800F2
:10000000D806002079020008971600084911000858
:10001000951600087F030008F9180008000000008A
:100020000000000000000000000000007D18000833
:100030008103000800000000991600087F180008DE
:10004000930200089302000893020008930200083C
:10005000930200089302000893020008930200082C
:10006000930200089302000893020008930200081C
:10007000930200089302000893020008930200080C
:100080009302000800000000930200089302000899
:1000900093020008930200089302000893020008EC
:1000A00093020008930200089302000893020008DC
:1000B00093020008930200089302000893020008CC
:1000C00093020008930200089302000893020008BC
:1000D00093020008930200089302000893020008AC
:1000E000930200089302000893020008930200089C
:1000F0009302000893020008930200080000000029
:1001000000000000930200080000000093020008B5
:100110009302000800000000930200089302000808
:10012000930200089302000893020008930200085B
:100130009302000800000000000000009302000885
:100140009302000893020008000000000000000075
:10015000000000000000000000000000000000009F
:1001600000000000000000000000000093020008F2
:1001700093020008000000000000000000000000E2
:1001800000000000930200080000000000000000D2
:10019000000000000000000000000000000000005F
:1001A0000000000000000000930200089302000815
:1001B0009302000893020008930200080000000068
:1001C0000000000093020008000000000000000092
:1001D000930200089302000800F002F800F03CF8D7
:1001E0000AA090E8000C82448344AAF10107DA4592
:1001F00001D100F031F8AFF2090EBAE80F0013F0A8
:10020000010F18BFFB1A43F001031847E850000024
:1002100008510000103A24BF78C878C1FAD85207B4
:1002200024BF30C830C144BF04680C607047000070
:100230000023002400250026103A28BF78C1FBD8EF
:10024000520728BF30C148BF0B6070471FB501F08F
:10025000B5FB1FBD10B510BD00F058F81146FFF7F3
:10026000F5FF01F05BFB00F076F803B4FFF7F2FF57
:1002700003BC00F07DF800000948804709480047AA
:10028000FEE7FEE7FEE7FEE7FEE7FEE7FEE7FEE746
:10029000FEE7FEE704480549054A064B70470000A3
:1002A000E9180008D9010008D8000020D80600206D
:1002B000D8020020D80200204FF0000200B51346FB
:1002C00094469646203922BFA0E80C50A0E80C5076
:1002D000B1F12001BFF4F7AF090728BFA0E80C5027
:1002E00048BF0CC05DF804EB890028BF40F8042B20
:1002F00008BF704748BF20F8022B11F0804F18BF8D
:1003000000F8012B7047704770477047754600F042
:100310002BF8AE4605006946534620F00700854697
:1003200018B020B5FFF7B6FFBDE820404FF000063B
:100330004FF000074FF000084FF0000B21F00701CD
:10034000AC46ACE8C009ACE8C009ACE8C009ACE810
:10035000C0098D46704710B50446AFF300802046B3
:10036000BDE81040FFF781BF0048704774000020CF
:1003700001491820ABBEFEE7260002007047FEE7E9
:10038000704772B6FEE7000070B5044600F040F911
:100390000546601C02D004484068044400F038F967
:1003A000401BA042FAD370BD000000202DE9F04FA1
:1003B000DFF82092002301260324A9F1040B85B065
:1003C0000F2709F1040AABF1040EFAE006FA03F56F
:1003D0002A407CD091F804C00CF0030CBCF1010F52
:1003E00002D0BCF1020F26D1D0F808C0CDF800C071
:1003F0004FEA430C04FA0CF8CDF810C0DDF800C049
:100400002CEA080CCDF800C0D1F80C80DDF810C043
:1004100008FA0CF8DDF800C048EA0C08C0F80880BB
:10042000D0F804C02CEA050C0D79C5F300159D40E9
:1004300045EA0C0545600D79ED43AD070ED0C56862
:100440004FEA430804FA08FC25EA0C05D1F808C075
:100450000CFA08FC4CEA050CC0F80CC00D7905F04C
:100460000305022D16D1DD0800EB850CCDF808C080
:10047000DCF820805D074FEAD56C07FA0CF528EA16
:1004800005080D6905FA0CF5DDF808C045EA080510
:10049000CCF8205005684FEA430CCDF808C004FAA8
:1004A0000CFC25EA0C0591F804C00CF00308DDF8FB
:1004B00008C008FA0CF848EA0508C0F800804D6842
:1004C00015F4403F7CD0444DD5F860C000E077E0A3
:1004D0004CF0010CC5F860C02D6E23F0030C05F044
:1004E000010500953D4D65440295AD684FEA837C5A
:1004F0004FEA1C7807FA08FC25EA0C05B0F1904F8A
:1005000006D0DFF8DCC0604505D14FF0010C20E0DB
:100510004FF0000C1DE0DFF8CCC0604502D14FF079
:10052000020C16E0DFF8C0C0604502D14FF0030CAA
:100530000FE0DFF8B8C0604502D14FF0040C08E0CE
:10054000DFF8ACC0604502D14FF0050C01E04FF080
:10055000060C0CFA08FC4CEA050C029DC5F808C014
:10056000D9F80050CC46D1F8048095435FEAC828FA
:1005700000D51543CCF80050DAF80050D446D1F835
:10058000048095435FEA882800D51543CCF80050D5
:10059000DBF80050DC46D1F8048095435FEA8838E8
:1005A00000D51543CCF80050DEF80050F446D1F8E1
:1005B000048095435FEAC83800D51543CCF8005055
:1005C0005B1C0A6832FA03F57FF400AF05B0BDE8A2
:1005D000F08F0000080401400010024000000140BC
:1005E0000004004800080048000C004800100048C3
:1005F00000140048426921EA02030A4043EA02412A
:10060000816170470AB18161704781627047000063
:10061000014880687047000000000020024881689F
:1006200042681144816070470000002010B500242A
:10063000032000F065F80F2000F008F808B101244D
:1006400001E000F025F8204610BD000070B50E4E08
:1006500005460024706898B14FF47A71B1FBF0F050
:100660000A490968B1FBF0F000F05AFD40B9102DBD
:1006700006D200222946501E00F022F8356000E024
:100680000124204670BD0000000000200C00002066
:100690000A4882B0016E41F001010166016E01F06D
:1006A00001010091816D41F080518165806D00F004
:1006B0008050009002B000F093B80000001002409B
:1006C000F0B40E4B1B680C46C3F30223C3F10705BD
:1006D000042D00D90425191D072901D2002300E0AB
:1006E000DB1E012606FA05F1491E214099409E4075
:1006F000761E16403143F0BC01F0FFB80CED00E06F
:10070000064900F0070208684FF6FF03184040EA68
:100710000220034A10430860704700000CED00E01F
:100720000000FA052B492C4B0A6832214A432B4919
:1007300040B1B0F5007F086829D020F4C06040F4D3
:1007400080602CE00868C0F34120022804D051F8F2
:10075000800F20F4807022E0D1F8800020F48070B7
:10076000C1F88000086820F4C06040F400700860A0
:10077000B2FBF3F0401C00E0401E4A69520501D56F
:100780000028F9D1486940050AD503207047C0F315
:100790004120022806D051F8800F40F48070086094
:1007A00000207047D1F8800040F48070C1F88000CC
:1007B000086820F4C06040F400700860B2FBF3F0F9
:1007C000401C00E0401E4A695205DBD50028F9D1E3
:1007D000D8E700000C00002040420F0000700040ED
:1007E0000248816841F48041816070470070004098
:1007F0002DE9F0470E4605004FF0000725D0DFF841
:10080000AC81D8F8000000F00F00B0420CD2D8F84C
:10081000001021F00F013143C8F80010D8F8000093
:1008200000F00F00B04210D12968614CC80741F2B6
:10083000883A5AD06868DFF87C91032808D00228EB
:1008400020682DD0400500282CDB0120BDE8F08772
:1008500020688001F9D5E06800F00302E068C0F389
:100860000310401C032A19D0534A00BFB2FBF0F01A
:10087000E268C2F306225043E268C2F34162521CAE
:100880005200B0FBF2F0484517D9A06810F0F00F05
:100890000CD0880711D5A86840B10EE0474AE5E7BB
:1008A0008003D0E700F092F8484506D9A06820F010
:1008B000F00040F08000A0608027A068696820F008
:1008C00003000843A060FFF7A3FE814606E000BFD7
:1008D000FFF79EFEA0EB090151453AD8A068696870
:1008E00000F00C00B0EB810FF2D12868810714D51D
:1008F000400703D5A06840F4E060A06028780007B6
:1009000005D5A06820F4605040F4E060A060A068C5
:10091000A96820F0F000084304E0802F03D1A0680C
:1009200020F0F000A060D8F80010404601F00F0160
:10093000B14216D9016821F00F0131430160FFF780
:1009400067FE074607E000BFFFF762FEC11B514587
:1009500001D903207AE7D8F8000000F00F00B04278
:10096000F2D12878400705D5A068E96820F4E06056
:100970000843A0602878000706D5A068296920F4FC
:10098000605040EAC100A06000F020F8A1680C4A65
:10099000C1F30311515C01F01F01C840094908600F
:1009A00009480068BDE8F047FFF750BE002002404C
:1009B0000010024000B4C4040024F40040787D011B
:1009C000C61900080C00002000000020184910B5CE
:1009D0008868C0F381021748012A0BD08A68164B39
:1009E000C2F38102022A06D08A68C2F38102032A76
:1009F00003D0002010BD184610BDCA6802F00304E1
:100A0000CA68C2F30312521C032C02D0B0FBF2F0EE
:100A100001E0B3FBF2F0CA68C968C2F30622504392
:100A2000C1F34161491C4900B0FBF1F010BD000069
:100A3000001002400024F40040787D012DE9F843C5
:100A400004007AD02078FA4DC00747D0A868E9683A
:100A500000F00C0001F003010C2802D0082817D088
:100A600001E0032914D06068B0F5803F17D0B0F5DD
:100A7000A02F286817D020F480302860286820F440
:100A8000802028606068E0B1FFF7C2FD064614E0F0
:100A90002868800322D560680028D2D01EE028682C
:100AA00040F48030EDE740F480202860F7E700BF95
:100AB000FFF7AEFD801B642870D828688003F7D547
:100AC0000CE0FFF7A5FD064605E000BFFFF7A0FD1F
:100AD000801B6428F0D828688003F7D4207880072A
:100AE0004CD5A868E96800F00C0001F003010C285F
:100AF00002D004280DD001E002290AD0E0680028C5
:100B000028682BD040F480702860FFF781FD0646EE
:100B100019E02868400502D5E068002891D068688F
:100B2000217C20F0FE4040EA01606860C148006816
:100B3000FFF78CFD002800D120E076E1FFF768FD8B
:100B4000801B0228B8D828684005F7D56868217C42
:100B500020F0FE4040EA016068600FE020F4807001
:100B60002860FFF755FD064605E000BFFFF750FD82
:100B7000801B0228A0D828684005F7D420780007F9
:100B800029D560690028D5F8940013D040F0010001
:100B9000C5F89400FFF73CFD064606E090E000BF74
:100BA000FFF736FD801B022886D8D5F89400800711
:100BB000F6D510E020F00100C5F89400FFF728FDFD
:100BC000064604E0FFF724FD801B022878D8D5F8FC
:100BD00094008007F6D42078400761D5A86D0026E0
:100BE000C00008D4A86D40F08050A865A86D01260B
:100BF00000F08050009090480168C90511D4016848
:100C0000804641F480710160FFF702FD074604E071
:100C1000FFF7FEFCC01B022852D8D8F80000C00520
:100C2000F6D5A068012815D00528D5F8900016D073
:100C300020F00100C5F89000D5F8900020F00400E5
:100C4000C5F89000A06841F28838B8B1FFF7E0FC21
:100C500007460EE0D5F8900040F00100F0E740F0C4
:100C60000400C5F89000F5E7FFF7D2FCC11B414531
:100C700026D8D5F890008007F6D50CE0FFF7C8FC21
:100C8000074604E0FFF7C4FCC11B414518D8D5F85E
:100C900090008007F6D41EB1A86D20F08050A865A2
:100CA0002078800629D5A0690028D5F8980013D0AF
:100CB00040F00100C5F89800FFF7AAFC064606E0E0
:100CC00077E000BFFFF7A4FC801B022877D8D5F897
:100CD00098008007F6D510E020F00100C5F89800D4
:100CE000FFF796FC064604E0FFF792FC801B022803
:100CF00065D8D5F898008007F6D4E069F0B3A96804
:100D0000C1F38101032961D00228286820F0807096
:100D100028600BD0E86820F00300E860E8684749E5
:100D20000840E860FFF774FC04464BE0FFF770FCF6
:100D3000064604E0FFF76CFC801B02283FD82868B9
:100D40008001F7D4F4E908016FF00F0202EB011102
:100D50000843218A5204490802EB4151A26841EA42
:100D600002210843217D4FF07E42490802EB416198
:100D70000843217B40EAC160E96800E062E0304A54
:100D800011400843E860286840F080702860E868F7
:100D900040F08070E860FFF73BFC044605E000BFD0
:100DA000FFF736FC001B022809D828688001F7D518
:100DB00048E004E0FFF72CFC001B022802D90320C6
:100DC000BDE8F88328688001F4D43BE00128F7D01F
:100DD000E868226A00F00301914226D1616A00F0BE
:100DE000F0020901103991421FD1A26A00F4FE41BC
:100DF000B1EB022F19D194F82C2000F07841B1EB1F
:100E0000C26F12D1218E00F4C00249084905A1F534
:100E10000011914209D194F8341000F0C0604908E3
:100E20004906A1F1007181420CD00120C8E7000001
:100E3000001002400000002000700040FFFFEEFEA6
:100E40000C809F010020BBE770B5040009D0606AE8
:100E5000002540B125616561A56294F85D0040B14F
:100E60000CE0012070BD6068B0F5827FF4D0E561D0
:100E7000F2E784F85C50204600F05CF8022084F829
:100E80005D002068016821F040010160E1684FF4D5
:100E9000E062914201D9002001E04FF48050B1F5A9
:100EA000706F02D0914200D0A562A188228901F41E
:100EB000827102F404421143227C02F002021143C7
:100EC000227D02F001021143228B02F400721143D1
:100ED000227F02F03802114394F8202002F08002B1
:100EE0001143228D02F40052114322681160A1695E
:100EF000042202EA114194F8242000F4805002F008
:100F00001002114394F8342002F008021143A28920
:100F100002F4706211430143206841602068C16996
:100F200021F40061C1612566012084F85D00002084
:100F300070BD000010B586B0044614216846FFF766
:100F4000BBF91249206888421ED11148816D41F4D5
:100F500000418165816D01F400410591C16C41F052
:100F60000401C164C06C694600F0040005904FF4B0
:100F7000A0500090022001900020029003900620D3
:100F800004900448FFF712FA06B010BD003C004080
:100F900000100240000800482DE9F84F044690F880
:100FA0005C0000271D461646894601280DD04FF0EB
:100FB000010B84F85CB0FFF72BFB804694F85D00D2
:100FC000BA46012804D00227A4E00220BDE8F88F29
:100FD000B9F1000F74D0002E72D0032084F85D00A8
:100FE000C4F860A0C4F83890A687E687C4F840A08B
:100FF000A4F844A0A4F846A0C4F850A0C4F84CA09B
:10100000A068B0F5004F09D12068016821F04001C7
:1010100001602068016841F4804101602068016836
:10102000490603D4016841F040010160E068B0F571
:10103000E06F606823D908B1012E1CD1A06B216834
:101040000088C86006E020688168890709D5A16B1F
:101050000988C160A06B801CA063E08F401EE08700
:1010600009E0FFF7D5FAA0EB0800A84202D3681CFC
:1010700001D046E0ADB3E08F0028E4D136E008B1FE
:10108000012E30D1E08F0128A06B03D921680088A0
:10109000C8600FE021680078087314E0E08722E060
:1010A00020688168890714D5E18F0129A16B08D9CF
:1010B0000988C160A06B801CA063E08F801EEDE7F3
:1010C00027E009780173A06B401CA063E08F401EED
:1010D000E4E7FFF79DFAA0EB0800A84202D3681CE2
:1010E00001D00EE06DB1E08F0028D9D142462946EB
:1010F000204600F0D2FA08B120202066A06810B186
:1011000005E0032706E02068C16880680090206E33
:1011100000B1012784F85DB084F85CA0384655E73B
:1011200010B5401EB0F1807F01D3012010BD4FF0FB
:10113000E02460610F21601700F0DFFB0020A06158
:1011400007202061002010BDFEE72DE9F041074691
:101150001C4615460E462A2000F0C8F92837B8B2BA
:1011600000F0B9F92835A8B200F0B5F92B2000F04D
:10117000BDF93436B0B200F0AEF93434A0B200F0AC
:10118000AAF9BDE8F0412C2000F0B0B910B5144622
:101190000B460246FFF7D9FF2046BDE8104000F09D
:1011A0009AB92DE9F04780461F46581E83B216466D
:1011B000501E82B20C464046DDF82090FFF7C5FF76
:1011C0000AE0454604E0484600F085F96D1CADB2E2
:1011D000B542F8D3641CA4B2BC42F2D3BDE8F08798
:1011E00070B54FF400444FF0904500222146284648
:1011F000FFF708FA6420FFF7C7F8012221462846C6
:10120000FFF700FA6420FFF7BFF8012280215F4852
:10121000FFF7F8F96420FFF7B7F8112000F066F93E
:101220007820FFF7B1F8362000F060F9A02000F038
:1012300073F93A2000F05AF9052000F06DF9B22058
:1012400000F054F90C2000F067F90C2000F064F96C
:10125000002000F061F9332000F05EF9332000F047
:101260005BF9B72000F042F9352000F055F9BB20BA
:1012700000F03CF9192000F04FF9C02000F036F9D9
:101280002C2000F049F9C22000F030F9012000F0D4
:1012900043F9C32000F02AF9122000F03DF9C420E0
:1012A00000F024F9202000F037F9C62000F01EF9E4
:1012B0000F2000F031F9D02000F018F9A42000F040
:1012C0002BF9A12000F028F9E02000F00FF9D02040
:1012D00000F022F9042000F01FF90D2000F01CF9A5
:1012E000112000F019F9132000F016F92B2000F05E
:1012F00013F93F2000F010F9542000F00DF94C20B4
:1013000000F00AF9182000F007F90D2000F004F9A8
:101310000B2000F001F91F2000F0FEF8232000F060
:10132000FBF8E12000F0E2F8D02000F0F5F804200E
:1013300000F0F2F80C2000F0EFF8112000F0ECF8CB
:10134000132000F0E9F82C2000F0E6F83F2000F030
:10135000E3F8442000F0E0F8512000F0DDF82F2001
:1013600000F0DAF81F2000F0D7F81F2000F0D4F8C2
:10137000202000F0D1F8232000F0CEF8212000F04A
:10138000B5F8BDE87040292000F0B0B8000400486E
:101390002DE9FF4F81B00446DDF83C9000904FEA04
:1013A00059074FF00008780700D0012000EBD70064
:1013B00000FB09FB203AD0B20390029802994844FE
:1013C000401E83B2E019401E82B22046FFF7BDFEE8
:1013D000002553E0B9F10C0F2AD0B9F1100F2ED02F
:1013E000B9F1180F2ED0B9F1200F49D12749039830
:1013F00001EB8010002610F805A0109800284FF08F
:10140000010000FA06F000EA0A0022D020B12046CE
:10141000049A0299FFF7BAFE641C0098A4B2201A3D
:10142000B84225D10298009C401C80B2029023E073
:101430000398174900EB400001EB8000DAE71549FB
:10144000039803E00398144900EB400001EB0010FF
:10145000D0E708B1049800E00E9800F03CF808F1DD
:101460000100C0B2B0FBF7F1804607FB118050B11C
:10147000761CF6B2082EC0D36D1CADB25D45A9D363
:1014800005B0BDE8F08F4FF00008F5E70A36000818
:10149000D61900084A1E00083A2400082DE9FE4F1C
:1014A0009946DDE90D6714468A460546DDF8308029
:1014B0000CE0CDF800804B4651462846CDE9016747
:1014C000FFF766FF05EB560085B2641C2278002A00
:1014D000EFD1BDE8FE8F10B50446000A00F01CF8FD
:1014E000E0B2BDE8104000F017B8000070B5094D3B
:1014F00006464FF40064002221462846FFF782F892
:10150000304600F009F821462846BDE87040012227
:10151000FFF778B80008004831B5094C00220421D3
:101520002046FFF76FF84FF6FF7301226946054822
:10153000FFF732FD012204212046FFF763F838BD92
:10154000000C0048100000202DE9F04786B014215F
:101550006846FEF7B1FE3748C16C41F00401C16432
:10156000C16C01F004010591C16C41F02001C1641E
:10157000C16C01F020010591C16C41F00101C16411
:10158000C16C01F001010591C16C41F00801C16419
:10159000C16C01F008010591C16C41F00201C16408
:1015A000C06C254F00F002004FF4D044059000229B
:1015B00021463846FFF726F84FF400464FF0904892
:1015C000002231464046FFF71DF8DFF870900022F8
:1015D00004214846FFF716F8DFF864A000228021B6
:1015E0005046FFF70FF80125CDE90045002402948D
:1015F000694638460394FEF7D9FE0096CDE90154BA
:10160000694640460394FEF7D1FE04200090CDE9E0
:101610000154694648460394FEF7C8FE80200090B6
:10162000CDE90154694650460394FEF7BFFE06B06B
:10163000BDE8F0870010024000080048000C004898
:1016400000040048124810B5104901604FF482713F
:10165000416000214FF4E062C0E902120222C0E9B9
:101660000421120282611022C0E90721072241628F
:10167000C0E90A12016308214163FFF7E5FB002876
:1016800003D0BDE81040FEF77CBE10BD003C00401A
:1016900010000020FEE7FEE77047F8B515460E463D
:1016A0000B460092044600224FF4C05100F01AF895
:1016B00088B93346002280212046009500F082F848
:1016C00048B9334600224FF4C0612046009500F02F
:1016D00009F8002804D0206E40F020002066032086
:1016E000F8BD00002DE9FE4F4FF0000A984617465E
:1016F0000E4604460C9D8DF804A0FEF789FF411BA1
:10170000A8EB0105FEF784FF814620684FF4C06B0B
:101710000C3002902A480068C0EBC00000EB80004B
:10172000000D6843009043E05E4506D12FB9029852
:1017300000788DF804009DF80400B8F1FF3F37D021
:10174000FEF766FFA0EB0900A84203D215B100988E
:1017500058B32BE02068416821F0E00141606068E7
:10176000B0F5827F0BD1A068B0F5004F02D0B0F584
:10177000806F04D12068016821F040010160A06AF7
:10178000B0F5005F09D12068016821F400510160C3
:101790002068016841F400510160012084F85D0077
:1017A00084F85CA00320BDE8FE8F0025401E009059
:1017B000206880683040B842B6D10020F3E70000CE
:1017C0000C0000202DE9F8431E4691468846044649
:1017D000089DFEF71DFF401B351AFEF719FF07464F
:1017E00025480068C0F3CB30684338E0701C37D020
:1017F000FEF70EFFC01BA84203D215B1009860B3DC
:101800002CE02068416821F0E00141606068B0F59B
:10181000827F0BD1A068B0F5004F02D0B0F5806F89
:1018200004D12068016821F040010160A06AB0F590
:10183000005F09D12068016821F40051016020682F
:10184000016841F400510160012084F85D0000202E
:1018500084F85C000320BDE8F8830025401E00905A
:101860002068816838EA010004D000214945BDD1D3
:101870000020F0E70121F9E70C0000207047FEF797
:10188000CDBE10B594B038216846FEF715FD142181
:101890000EA8FEF711FD0020FEF744FF0120009086
:1018A0000004032405210190CDE9084102204421D0
:1018B000CDE90A1007900C900D906846FFF7BEF82E
:1018C00008B172B6FEE70F20CDE90E04002010909B
:1018D0001190129004210EA8FEF78AFF002801D073
:1018E00072B6FEE714B010BD0248016841F4700101
:1018F0000160704788ED00E0FEE70907090E002847
:1019000004DB00F1E02080F80014704700F00F00C5
:1019100000F1E02080F8141D704700000EB500268D
:101920003546FEF783FEFFF7ACFFFFF70DFEFFF72E
:1019300089FE012280211D48FEF764FEFFF750FC5E
:1019400000248723F022214620460094FFF729FC3B
:10195000DFF85CB04FF4005A4FF4FA7820274FF6C6
:10196000FF7900BFFEF754FE801BC82806D95146F8
:101970005846FEF73FFEFEF74BFE0646FEF748FED2
:10198000401B404507D94FF480415846FEF732FED0
:10199000FEF73EFE0546CDE900474B4605A228214D
:1019A0003C200294FFF77AFDDCE7000000040048C9
:1019B000000800486469736E6F7800004FF0407053
:1019C000E1EE100A70470000000000000000010274
:1019D00003040607080900000000000000000000E2
:1019E00000000000040404040400000400001414B7
:1019F0000A00000000000000000000000A0A1F0AA0
:101A00000A1F0A0A000000040E1505060C14150E24
:101A10000400000012150D152E2C2A1200000000E3
:101A2000040A0A36151529160000020201000000FA
:101A30000000000000001008080404040404080862
:101A4000100002040408080808080404020000004A
:101A50000004150E0E150400000000000008083EEA
:101A60000808000000000000000000000000020262
:101A7000010000000000003F000000000000000026
:101A80000000000000000002000000201010080804
:101A900004040202010000000E1111111111110EB7
:101AA00000000000040604040404040E000000000A
:101AB0000E1111080402011F000000000E11100C8D
:101AC0001010110E00000000080C0C0A091F081C61
:101AD000000000001F01010F1110110E0000000096
:101AE0000C12010D1311110E000000001E10080849
:101AF00004040404000000000E11110E1111110E57
:101B0000000000000E111119161009060000000057
:101B100000000400000000040000000000000004B9
:101B20000000000404000000100804020204081071
:101B30000000000000003F003F0000000000000027
:101B40000204081010080402000000000E11110821
:101B500004040004000000001C22292D2D1D221C5D
:101B60000000000004040C0A0A1E123300000000EA
:101B70000F12120E1212120F000000001E110101AE
:101B80000101110E000000000F1212121212120FAA
:101B9000000000001F120A0E0A02121F00000000BF
:101BA0001F120A0E0A020207000000001C120101A7
:101BB0003911120C000000003312121E12121233DF
:101BC000000000001F0404040404041F00000000BF
:101BD0003E080808080808080907000037120A0626
:101BE0000A12123700000000070202020202223F1E
:101BF000000000003B1B1B1B1515153500000000E5
:101C00003B1216161A1A1217000000000E111111BD
:101C10001111110E000000000F12120E0202020735
:101C2000000000000E1111111117190E180000000C
:101C30000F12120E0A121237000000001E110106C8
:101C40000810110F000000001F1504040404040E06
:101C500000000000331212121212120C00000000D9
:101C60003312120A0A0C04040000000015151515A1
:101C70000E0A0A0A000000001B0A0A04040A0A1BD2
:101C8000000000001B0A0A0A0404040E0000000001
:101C90001F0908040402121F00001C0404040404A9
:101CA000040404041C0000020204040408080810D0
:101CB00010000E0808080808080808080E00040AA2
:101CC0000000000000000000000000000000000014
:101CD00000000000003F02040000000000000000BF
:101CE000000000000000000C121C123C0000000369
:101CF0000202020E1212120E000000000000001C70
:101D00001202120C000000181010101C1212123CCB
:101D1000000000000000000C121E021C0000001851
:101D20002404041E0404041E000000000000003C03
:101D3000120C021C221C00030202020E12121237A5
:101D400000000004040000060404040E0000000863
:101D50000800000C08080808080700030202021A1D
:101D60000A060A1300000007040404040404041F04
:101D7000000000000000000F151515150000000000
:101D80000000000F12121237000000000000000CCB
:101D90001212120C000000000000000F1212120EAE
:101DA000020700000000001C1212121C1038000074
:101DB0000000001B06020207000000000000001ED9
:101DC000020C101E000000000004041E0404041C89
:101DD000000000000000001B1212123C0000000076
:101DE0000000001B0A0A04040000000000000015A7
:101DF000150E0A0A000000000000001B0A040A1B5E
:101E0000000000000000003312120C080403000060
:101E10000000001E0804041E000018080808080C32
:101E2000080808081800080808080808080808082A
:101E3000080806040404040804040404060016093F
:101E40000000000000000000000000000000000092
:101E5000000000000000000000000000000808086A
:101E60000808080800001818000000486C24120038
:101E700000000000000000000000000000242424F6
:101E80007F1212127F12121200000000081C2A2A70
:101E90000A0C1828282A2A1C0808000000222515E8
:101EA00015152A585454542200000000000C121238
:101EB000120A76252911916E00000006060403001F
:101EC000000000000000000000000040201010088A
:101ED0000808080808101020400000020408081034
:101EE000101010101008080402000000000008087C
:101EF0006B1C1C6B080800000000000000000808B4
:101F000008087F0808080800000000000000000022
:101F100000000000000006060403000000000000AE
:101F20000000FE00000000000000000000000000B3
:101F30000000000000000606000000008040402075
:101F400020101008080404020200000000182442B7
:101F500042424242424224180000000000080E089B
:101F6000080808080808083E00000000003C42423B
:101F7000422020100804427E00000000003C424243
:101F8000201820404042221C000000000020302881
:101F9000242422227E20207800000000007E0202FD
:101FA000021A26404042221C000000000038240291
:101FB000021A26424242241800000000007E22221B
:101FC000101008080808080800000000003C424201
:101FD000422418244242423C0000000000182442DF
:101FE000424264584040241C0000000000000000F1
:101FF0001818000000001818000000000000000081
:102000000008000000000008080400000040201044
:102010000804020408102040000000000000000036
:102020007F0000007F0000000000000000020408A4
:10203000102040201008040200000000003C424232
:10204000464020101000181800000000001C225A02
:10205000555555552D42221C000000000008081857
:102060001414243C224242E700000000001F2222F8
:10207000221E22424242221F00000000007C4242F7
:10208000010101010142221C00000000001F224248
:10209000424242424242221F00000000003F4212E0
:1020A000121E12120242423F00000000003F421284
:1020B000121E12120202020700000000003C22223F
:1020C000010101712122221C0000000000E74242B0
:1020D00042427E42424242E700000000003E0808C1
:1020E000080808080808083E00000000007C1010DE
:1020F0001010101010101010110F00000077221295
:102100000A0E0A12122222770000000000070202C3
:10211000020202020202427F00000000007736360F
:1021200036362A2A2A2A2A6B0000000000E3464697
:102130004A4A52525262624700000000001C22418B
:10214000414141414141221C00000000003F424208
:1021500042423E020202020700000000001C22412F
:10216000414141414D53321C60000000003F42425A
:10217000423E1212222242C700000000007C42426E
:10218000020418204042423E00000000007F49083F
:10219000080808080808081C0000000000E7424280
:1021A000424242424242423C0000000000E74242BA
:1021B000222424141418080800000000006B494968
:1021C00049495555362222220000000000E74224EA
:1021D00024181818242442E7000000000077222267
:1021E000141408080808081C00000000007E2120C4
:1021F000101008040442423F000000780808080854
:10220000080808080808080878000000020204040A
:1022100008080810102020204040001E1010101048
:1022200010101010101010101E0000384400000094
:10223000000000000000000000000000000000009E
:10224000000000000000000000FF00060800000081
:10225000000000000000000000000000000000007E
:10226000003C4278444242FC0000000000030202AD
:10227000021A26424242261A000000000000000016
:102280000038440202024438000000000060404070
:1022900040784442424264D8000000000000000040
:1022A000003C427E0202423C0000000000F0880830
:1022B000087E08080808083E000000000000000032
:1022C000007C22221C023C42423C0000000302022D
:1022D000023A4642424242E700000000000C0C0075
:1022E000000E08080808083E00000000003030001A
:1022F0000038202020202020221E0000000302029F
:102300000272120A1612227700000000000E08085E
:10231000080808080808083E000000000000000047
:10232000007F9292929292B700000000000000009D
:10233000003B4642424242E700000000000000002D
:10234000003C42424242423C0000000000000000CB
:10235000001B26424242221E02070000000000002D
:10236000007844424242447840E00000000000000F
:1023700000774C040404041F00000000000000006B
:10238000007C42023C40423E000000000000000889
:10239000083E08080808083000000000000000009F
:1023A00000634242424262DC000000000000000084
:1023B00000E7422424140808000000000000000088
:1023C00000EB4949555522220000000000000000A2
:1023D000007624181818246E000000000000000089
:1023E00000E7422424141808080700000000000039
:1023F000007E22100808447E000000C0202020201B
:102400002010202020202020C000101010101010BC
:1024100010101010101010101010000608080808F6
:10242000081008080808080806000C32C20000005E
:10243000000000000000000000000000000000009C
:10244000000000000000000000000000000000008C
:10245000000000000000000000000000000000007C
:10246000000000000000000000000000000000006C
:1024700000006000600060006000600060006000BC
:10248000400020002000200000000000000060004C
:102490006000600000000000000000000000600616
:1024A000600630039801880044000000000000002E
:1024B000000000000000000000000000000000001C
:1024C000000000000000000000000000000000000C
:1024D00000001002100210021002FE07FE070802A0
:1024E0000801080108010801FE07FE0704010401B4
:1024F00004010401000000000000000000000000D2
:1025000040004000F00158034C03CC034C0058003D
:102510007000E000C001C00140034C035C034C03A9
:102520004801F000400040000000000000000000F2
:1025300000000E010A01910091009100510051002C
:102540003A00AE03A0025004500448044804480472
:10255000840284030000000000000000000000006E
:10256000000038006C006C006C006C006C002C00EB
:1025700098071C011A01330133016301E300C3080A
:10258000C6093C07000000000000000000000C002D
:102590001C001000100008000400000000000000F3
:1025A000000000000000000000000000000000002B
:1025B0000000000000000000000000000000000417
:1025C0000002000180008000400040002000200048
:1025D000200020002000200020004000400080005B
:1025E0008000000100020004000000000000020062
:1025F00004000800100010002000200040004000EF
:10260000400040004000400040002000200010003A
:10261000100008000400020000000000000000009C
:102620000000000000004000C0004000460C4E0FBB
:10263000D001F0015E0F460C400040004000000059
:10264000000000000000000000000000000000008A
:10265000000000000000000040004000400040007A
:102660004000FE0F400040004000400040000000DD
:10267000000000000000000000000000000000005A
:10268000000000000000000000000000000000004A
:1026900000000000000000000000000000000C002E
:1026A0001C001000100008000400000000000000E2
:1026B000000000000000000000000000000000001A
:1026C0000000FE0700000000000000000000000005
:1026D00000000000000000000000000000000000FA
:1026E00000000000000000000000000000000000EA
:1026F00000000000000000000000000000001C00BE
:102700001C001C000000000000000000000000048D
:10271000000600020003000100018000800040006C
:102720004000600020002000100010000800080099
:102730000C00040006000200000000000000000081
:1027400000000000F00098010C030C0306060606CA
:102750000606060606060606060606060C030C0313
:102760009801F000000000000000000000000000E0
:102770000000000040007C0060006000600060001D
:102780006000600060006000600060006000600049
:102790006000FC03000000000000000000000000DA
:1027A00000000000F8008401020306030603000392
:1027B00000018001C0006000200010000802040237
:1027C0000602FE0300000000000000000000000000
:1027D000000000007800C6008601860180018001AB
:1027E000C00070008001000100030003060306031F
:1027F0008601F8000000000000000000000000005A
:102800000000000080018001C001A001A001900132
:102810008801880184018201FE0F8001800180010E
:102820008001E00700000000000000000000000040
:1028300000000000FC030400040004000400040085
:10284000F4008C0104030003000306030603820165
:102850008401F800000000000000000000000000FB
:1028600000000000E00118030C030C000400060047
:10287000E60116030E0606060606060604060C0208
:102880001803F0000000000000000000000000003D
:1028900000000000F8070C0604020401000100011A
:1028A0008000800040004000400060006000600048
:1028B0006000600000000000000000000000000058
:1028C00000000000F8010C030606060606060C02CE
:1028D0001C03F000C8010C030606060606060606E1
:1028E0000C03F001000000000000000000000000E8
:1028F00000000000F0000C010C03060206060606AC
:10290000060606078C0678060006000300030C0185
:102910008C017800000000000000000000000000B2
:102920000000000000000000000000000000E000C7
:10293000E000E00000000000000000000000E000F7
:10294000E000E000000000000000000000000000C7
:102950000000000000000000000000000000600017
:102960006000000000000000000000000000000007
:102970006000600040002000200000000000000017
:102980000000000400020001800040002000100050
:102990000800040008001000200040008000000132
:1029A0000002000400000000000000000000000021
:1029B0000000000000000000000000000000FE0712
:1029C000000000000000FE07000000000000000002
:1029D00000000000000000000000000000000000F7
:1029E00000000400080010002000400080000001EA
:1029F00000020004000200018000400020001000DE
:102A000008000400000000000000000000000000BA
:102A100000000000E0031806040C040C0C0C0C0C65
:102A20000007800140004000400000000000E0007E
:102A3000E000E000000000000000000000000000D6
:102A40000000E00018030C02CC0564056605A6052D
:102A5000B604B604B604B604B602E4010C040C02D3
:102A60001803F0000000000000000000000000005B
:102A700000000000600060005000D0009000900056
:102A8000880088010801F80104030403040202021B
:102A900002060F0F00000000000000000000000010
:102AA00000000000FE008C030C030C030C030C035D
:102AB0008C01FC000C030C020C060C060C060C0628
:102AC0000C03FE01000000000000000000000000F8
:102AD00000000000E00318030C060C0404040600C8
:102AE0000600060006000600060006040C040C02A0
:102AF0001803F000000000000000000000000000CB
:102B0000000000007F008C010C030C030C060C0677
:102B10000C060C060C060C060C060C060C030C032B
:102B20008C017F0000000000000000000000000099
:102B300000000000FF0306030604060406008600EA
:102B40008600FE0086008600860006000604060455
:102B50000602FF030000000000000000000000006B
:102B600000000000FF0306030604060406008600BA
:102B70008600FE008600860086000600060006002D
:102B800006001F0000000000000000000000000020
:102B900000000000F00018010C020C020402060004
:102BA000060006000600C60F060306030C030C030E
:102BB0001803F0000000000000000000000000000A
:102BC000000000000F0F06060606060606060606AB
:102BD0000606FE070606060606060606060606069C
:102BE00006060F0F000000000000000000000000BB
:102BF00000000000FC0360006000600060006000F6
:102C000060006000600060006000600060006000C4
:102C10006000FC0300000000000000000000000055
:102C200000000000F807C000C000C000C000C000E5
:102C3000C000C000C000C000C000C000C000C00094
:102C4000C000C000C60066003C000000000000009C
:102C500000000000CF038601C600460026001600D3
:102C600036002E006E004600C60086008601060172
:102C700006038F07000000000000000000000000B5
:102C8000000000001F000600060006000600060007
:102C900006000600060006000600060006040604FC
:102CA0000602FF030000000000000000000000001A
:102CB000000000000707860386038E038E034E0381
:102CC0004E034A035A035A033A03320332033203D0
:102CD0001203870700000000000000000000000051
:102CE000000000008E0F0C021C021C023402340291
:102CF000640264024402C402840284038403040361
:102D000004031F020000000000000000000000009B
:102D100000000000F00098010C030C0206060606F5
:102D20000606060606060606060606060C020C033E
:102D30009801F0000000000000000000000000000A
:102D400000000000FF00060306060606060606064B
:102D500006068603FE0006000600060006000600C2
:102D600006001F000000000000000000000000003E
:102D700000000000F00098010C030C020606060695
:102D80000606060606060606060676064C02CC036E
:102D90009801F00080070003000000000000000020
:102DA00000000000FF0106030606060606060606EA
:102DB0000603FE004600C6008600860106030603E1
:102DC00006060F0E000000000000000000000000DA
:102DD00000000000F8020C030602060206000E00C6
:102DE0003C00F800E0038003000702060206060626
:102DF0000C03F001000000000000000000000000D3
:102E000000000000FE0762046108610860006000C5
:102E100060006000600060006000600060006000B2
:102E20006000F80100000000000000000000000049
:102E3000000000001E070C020C020C020C020C0227
:102E40000C020C020C020C020C020C020C020C0212
:102E50001801F00000000000000000000000000069
:102E6000000000000F070602040104010C010C0120
:102E700088008800980098005000500070003000D2
:102E80002000200000000000000000000000000002
:102E900000000000F70E6204420446044604640287
:102EA0006402E402E4029C029C01980198018801FA
:102EB0008800880000000000000000000000000002
:102EC000000000009E070C01080118019000B000EE
:102ED0006000200060006000D000900088010801C0
:102EE00004038E0700000000000000000000000046
:102EF000000000000F0F060404020C020801180174
:102F0000B800B00070006000600060006000600009
:102F10006000F80100000000000000000000000058
:102F200000000000FC070C02060302018001800083
:102F300040004000200020001000180008040C048D
:102F40000402FE0300000000000000000000E00397
:102F50002000200020002000200020002000200071
:102F60002000200020002000200020002000200061
:102F7000200020002000E00300000000000000000E
:102F800000000400040008000800100010001000F9
:102F90002000200040004000C000800080000001B0
:102FA00000010002000200020004000000007C009A
:102FB0004000400040004000400040004000400011
:102FC0004000400040004000400040004000400001
:102FD0004000400040007C000000000060009000C5
:102FE00008010000000000000000000000000000D8
:102FF00000000000000000000000000000000000D1
:1030000000000000000000000000000000000000C0
:1030100000000000000000000000000000000000B0
:1030200000000000000000000000000000000000A0
:103030000000000000000000FF0F0000000018006A
:103040006000000000000000000000000000000020
:103050000000000000000000000000000000000070
:103060000000000000000000000000000000000060
:103070000000000000000000000000000000F0015F
:103080000C030C030003E0031C030E0306030603FA
:103090008E0B7C0E0000000000000000000000000D
:1030A000000008000E000C000C000C000C00CC010D
:1030B0003C031C060C060C060C060C060C060C0247
:1030C0001C03E401000000000000000000000000FC
:1030D0000000000000000000000000000000F00000
:1030E0008C018C01860106000600060006020C0217
:1030F0000C01F000000000000000000000000000D3
:1031000000000002C0030003000300030003780373
:103110008C030C03060306030603060306030403DD
:103120008C07780100000000000000000000000093
:103130000000000000000000000000000000E001AE
:10314000180308020C060C06FC070C000C001804FF
:103150001802E00100000000000000000000000074
:1031600000000000C0036006300630003000FE01A1
:1031700030003000300030003000300030003000CF
:103180003000FC0100000000000000000000000012
:103190000000000000000000000000000000F00738
:1031A000D8068C018C018C019801F8000C00FC0001
:1031B000CC03060306038E03F800000000000000A5
:1031C000000008000E000C000C000C000C00EC01CC
:1031D0001C030C030C030C030C030C030C030C0367
:1031E0000C039E070000000000000000000000002B
:1031F00000000000600060000000000040007C0053
:1032000060006000600060006000600060006000BE
:103210006000FC030000000000000000000000004F
:1032200000000000C001C001000000000001F0012A
:103230008001800180018001800180018001800186
:10324000800180018001CC007C00000000000000B3
:10325000000008000E000C000C000C000C008C0399
:103260008C008C004C006C005C008C008C010C010C
:103270000C039E070000000000000000000000009A
:10328000000040007C0060006000600060006000A2
:10329000600060006000600060006000600060002E
:1032A0006000FC03000000000000000000000000BF
:1032B00000000000000000000000000000003707D0
:1032C000EE06660666066606660666066606660616
:1032D0006606FF0F00000000000000000000000074
:1032E0000000000000000000000000000000EE01EF
:1032F0001C030C030C030C030C030C030C030C0346
:103300000C039E0700000000000000000000000009
:103310000000000000000000000000000000F000BD
:1033200098010C03060606060606060606060C03AA
:103330000C03F0000000000000000000000000008E
:103340000000000000000000000000000000EE018E
:103350001C030C060C060C060C060C060C060C03D3
:103360001C03EC010C000C003E00000000000000FB
:1033700000000000000000000000000000007802D3
:103380008C030C030603060306030603060304036B
:103390008C03780300030003C00700000000000056
:1033A00000000000000000000000000000009F037B
:1033B00058063806180018001800180018001800E1
:1033C0001800FF00000000000000000000000000E6
:1033D0000000000000000000000000000000F003FA
:1033E0001C030C020C023800F000C00304030403A9
:1033F0008C03FC0100000000000000000000000041
:103400000000000000002000200030003000FE011D
:10341000300030003000300030003000300030022A
:103420003002E00100000000000000000000000089
:1034300000000000000000000000000008028E03F1
:103440000C030C030C030C030C030C030C030C0304
:103450009C07780100000000000000000000000050
:1034600000000000000000000000000000001E0737
:103470000C020801080118019000B000B0006000C3
:1034800060002000000000000000000000000000BC
:103490000000000000000000000000000000F70E27
:1034A0006204460464026402EC029C0198019801E3
:1034B000980108000000000000000000000000006B
:1034C0000000000000000000000000000000BC0739
:1034D00018011001B00060006000E00090000801D9
:1034E00008039E070000000000000000000000002C
:1034F00000000000000000000000000000009E0727
:1035000008010801080190009000B0006000600010
:1035100060002000200024001C00000000000000CB
:103520000000000000000000000000000000FC019E
:103530008401C4004400600020003000180208022A
:103540000C03FC010000000000000000000000036C
:10355000800080008000800080008000800080006B
:10356000400020004000800080008000800080003B
:103570008000800080000003000040004000400008
:10358000400040004000400040004000400040003B
:10359000400040004000400040004000400040002B
:1035A00040004000400040004000000000000C00CF
:1035B000100010001000100010001000100010008B
:1035C000200040002000100010001000100010002B
:1035D0001000100010000C00000000001C0022046D
:1035E000C204800300000000000000000000000092
:1035F00000000000000000000000000000000000CB
:1036000000000000000000000000000000000000BA
:1036100000000000000000000000000000000000AA
:10362000000000000000000000000000000000009A
:10363000000000000000000000000000000000008A
:10364000000000000000000000000000000000007A
:1036500000000000C001C001C001C001C001C001E4
:10366000C001800080008000800080008000800019
:1036700000000000000000008001C003C0038001C2
:10368000000000000000000000000000000000003A
:10369000E01CE01CF01E700E3807180308018400BF
:1036A000000000000000000000000000000000001A
:1036B000000000000000000000000000000000000A
:1036C00000000000000000000000000000000000FA
:1036D00000000000000020102010201020102010FA
:1036E000FE7FFE7F10081008100810081008100850
:1036F0001008FE7FFE7F080408040804080408047C
:1037000000000000000000000000000000000000B9
:10371000000000010001C00760191031183118398C
:10372000183938017001E001C0038007000F001D47
:10373000003900311C311C310C310C11180DE0071F
:103740000001000100010000000000000000000076
:103750000000000000001C1036186308630C6304AE
:103760006304630263026301361D9C378022806319
:103770004063406320632063306310221836081CC6
:103780000000000000000000000000000000000039
:10379000000000000000F00098018C018C018C01F9
:1037A0008C018C00CC007800183E1C0836083208CA
:1037B00063046304C304C303834306438E26781C57
:1037C00000000000000000000000000000000000F9
:1037D0001C003C003C003000300010000C000600D3
:1037E00000000000000000000000000000000000D9
:1037F00000000000000000000000000000000000C9
:1038000000000000000000000000000000000000B8
:103810000040002000100008000C00040006000317
:10382000000300038001800180018001800180018C
:103830008001800100030003000300060006000C65
:103840000008001000200040000000000000000000
:103850000200040008001000300020006000C000DA
:10386000C000C000800180018001800180018001D2
:1038700080018001C000C000C00060006000300016
:10388000100008000400020000000000000000001A
:103890000000000000000000000000018003800321
:1038A00000011C713C79783DC0070001C007783DDC
:1038B0003C791C710001800380038001000000003E
:1038C00000000000000000000000000000000000F8
:1038D00000000000000000000000000000010001E6
:1038E00000010001000100010001FC7F0001000156
:1038F00000010001000100010001000000000000C3
:1039000000000000000000000000000000000000B7
:1039100000000000000000000000000000000000A7
:103920000000000000000000000000000000000097
:10393000000000000000000000001C003C003C00F3
:103940003000300010000C000600000000000000F5
:103950000000000000000000000000000000000067
:1039600000000000000000000000FE7F00000000DA
:103970000000000000000000000000000000000047
:103980000000000000000000000000000000000037
:103990000000000000000000000000000000000027
:1039A0000000000000000000000000000000000017
:1039B000000000000000000018003C003C0018005F
:1039C00000000000000000000000000000000000F7
:1039D0000040006000200030001000180008000CBB
:1039E0000004000600020003000180018000C00006
:1039F00040006000200030001000180008000C009B
:103A000004000600020000000000000000000000AA
:103A1000000000000000C007600C3018183018309B
:103A200018200C600C600C600C600C600C600C606A
:103A30000C600C601820183018303018600CC0076B
:103A40000000000000000000000000000000000076
:103A500000000000000000018001F80180018001E9
:103A6000800180018001800180018001800180014E
:103A7000800180018001800180018001C003F81F66
:103A80000000000000000000000000000000000036
:103A9000000000000000E007101C0818043004308B
:103AA0000C300C3000300018000800040002000147
:103AB000800040002020102008200430FC1FFC1F44
:103AC00000000000000000000000000000000000F6
:103AD000000000000000E003180E0C0C0C180C187D
:103AE0000C180018000C0006C003000E001800108F
:103AF000003000300C300C300C100C18180CE003A7
:103B000000000000000000000000000000000000B5
:103B1000000000000000000C000E000E000F800EE0
:103B2000800E400E600E200E100E100E080E040EB9
:103B3000040EFE7F000E000E000E000E000E000EA2
:103B4000C07F000000000000000000000000000036
:103B5000000000000000F03FF03F100010001000D7
:103B600008000800C807280C18180810003000309A
:103B7000003000300C300C3004180418080CF0032E
:103B80000000000000000000000000000000000035
:103B9000000000000000800FC0102030103018001E
:103BA000180008000C008C0F6C183C301C600C6076
:103BB0000C600C600C601860182030306018C00772
:103BC00000000000000000000000000000000000F5
:103BD000000000000000F83FF83F1C100C0804082B
:103BE0000404000400020002000100010001800042
:103BF00080008000C000C000C000C000C000C00045
:103C000000000000000000000000000000000000B4
:103C1000000000000000E007300C18180C300C30D9
:103C20000C301C3038187008E007B007180E0C1C58
:103C3000063806300630063006300C18180CE00343
:103C40000000000000000000000000000000000074
:103C5000000000000000E00318040C080C18061017
:103C6000063006300630063006380C3C1836F03187
:103C700000300018001800180C0C0C060C03F001A2
:103C80000000000000000000000000000000000034
:103C90000000000000000000000000000000000024
:103CA000000000008001C003C0038001000000008C
:103CB00000000000000000008001C003C00380017C
:103CC00000000000000000000000000000000000F4
:103CD00000000000000000000000000000000000E4
:103CE00000000000C000C000000000000000000054
:103CF000000000000000000000000000C000C00044
:103D00008000800040004000000000000000000033
:103D1000000000000020001000080004000600035E
:103D20008001C0006000300018000C001800300056
:103D30006000C000800100030006000400080010BD
:103D40000020000000000000000000000000000053
:103D50000000000000000000000000000000000063
:103D600000000000FE7F00000000000000000000D6
:103D7000FE7F0000000000000000000000000000C6
:103D80000000000000000000000000000000000033
:103D90000000000004000800100020006000C000C7
:103DA000800100030006000C001800300018000C11
:103DB000000600038001C000600020001000080021
:103DC00004000000000000000000000000000000EF
:103DD00000000000C0073018083008600C601C604C
:103DE0001C601C600030001C000600018000800088
:103DF00080008000000000008001C003C00380013B
:103E000000000000000000000000000000000000B2
:103E1000000000000000C0076018103018200C2FB0
:103E20008C4D864CC64CC64C664C66446644662631
:103E300066266615CC1C0C40082018303018C007C8
:103E40000000000000000000000000000000000072
:103E5000000000000001C001C001C001400160037A
:103E60002003200320033006100610061006F80F6A
:103E7000080C080C080C0C0C0418041806181F7CFD
:103E80000000000000000000000000000000000032
:103E9000000000000000FE07181C18381830183009
:103EA000183018301818180CF8071818183018207F
:103EB0001860186018601860186018301818FE0F25
:103EC00000000000000000000000000000000000F2
:103ED000000000000000C0276038103018200C409F
:103EE0000C4004000600060006000600060006005E
:103EF000060006000C400C400C2018303018C0079B
:103F000000000000000000000000000000000000B1
:103F1000000000000000FE03180E181818301830BA
:103F20001830186018601860186018601860186001
:103F3000186018601830183018101818180EFE0382
:103F40000000000000000000000000000000000071
:103F5000000000000000FE3F1830182018601840D4
:103F6000180018081808180CF80F180C180818086A
:103F70001800180018001840184018201830FE3F8C
:103F80000000000000000000000000000000000031
:103F9000000000000000FE7F1870184018C0188054
:103FA0001800181018101818F81F181818101810E2
:103FB00018001800180018001800180018007E00DB
:103FC00000000000000000000000000000000000F1
:103FD000000000000000C013701C101018100C200E
:103FE0000C2004000600060006000600060006FC81
:103FF000063006300C300C30183018303008C0074E
:1040000000000000000000000000000000000000B0
:104010000000000000003F7E0C180C180C180C1853
:104020000C180C180C180C180C18FC1F0C180C1879
:104030000C180C180C180C180C180C180C183F7EC7
:104040000000000000000000000000000000000070
:10405000000000000000F81F800180018001800145
:104060008001800180018001800180018001800148
:104070008001800180018001800180018001F81FA2
:104080000000000000000000000000000000000030
:10409000000000000000E07F0006000600060006A9
:1040A00000060006000600060006000600060006E0
:1040B00000060006000600060006000600060006D0
:1040C00000060E060E038E01FC000000000000003A
:1040D0000000000000007E7C18181808180418065C
:1040E0001802180198019801D801B803380318077D
:1040F0001806180E180C181C1818183018307EFCEA
:1041000000000000000000000000000000000000AF
:104110000000000000007E001800180018001800C1
:1041200018001800180018001800180018001800CF
:104130001800180018001840184018201830FE3FCA
:10414000000000000000000000000000000000006F
:104150000000000000001FF81C381C381C381C3CF4
:104160003434343434343436743264326432643245
:104170006431C431C431C431C430C43084309FFC94
:10418000000000000000000000000000000000002F
:104190000000000000001F7C1C103C103410341084
:1041A00074106410E410C410C41184118413041337
:1041B00004170416041E041C041C041C04181F18F5
:1041C00000000000000000000000000000000000EF
:1041D000000000000000C003300C181808100C305C
:1041E0000C300660066006600660066006600660C9
:1041F000066006600C200C3008101818300CC00344
:1042000000000000000000000000000000000000AE
:10421000000000000000FE0F181818301860186029
:1042200018601860186018301818F80F1800180077
:1042300018001800180018001800180018007E0058
:10424000000000000000000000000000000000006E
:10425000000000000000C003300C18180C100C30D7
:104260000C20066006600660066006600660066058
:1042700006600660E4612C331C321816300EC0074D
:10428000004C007C0038000000000000000000002E
:10429000000000000000FE07181C18381830183005
:1042A000183018301818180CF80798031803180756
:1042B00018061806180E180C180C181C18187E78FA
:1042C00000000000000000000000000000000000EE
:1042D000000000000000E027303818300C200C20CF
:1042E0000C000C0018007800E003800F001E00385E
:1042F0000070006004600460086018303818C80F4F
:1043000000000000000000000000000000000000AD
:10431000000000000000FC3F8C218461824182414A
:104320008001800180018001800180018001800185
:104330008001800180018001800180018001E0070F
:10434000000000000000000000000000000000006D
:104350000000000000003F7C0C100C100C100C1032
:104360000C100C100C100C100C100C100C100C106D
:104370000C100C100C100C100C1008083804E00382
:10438000000000000000000000000000000000002D
:104390000000000000003EF81820182018203010FF
:1043A000301030103010600860086008E00CC00465
:1043B000C004C00480038003800380030001000167
:1043C00000000000000000000000000000000000ED
:1043D000000000000000DFF38661862186218C2129
:1043E0000C218C238C138C138C134C1358125816DD
:1043F000580E380E380E380E300C1004100410040D
:1044000000000000000000000000000000000000AC
:104410000000000000007E3E180838083004300418
:1044200070026002E001C001C0018001800340030E
:10443000400720062006100C100C081808183E7CB7
:10444000000000000000000000000000000000006C
:104450000000000000007E7C1C10181018083008B6
:10446000300C700460046002C002C002C001800110
:104470008001800180018001800180018001E007CE
:10448000000000000000000000000000000000002C
:10449000000000000000F83F18180818040C040E73
:1044A00000060007000380038001C001C000E00097
:1044B000600070003000382018201C100C18FE1FFF
:1044C00000000000000000000000000000000000EC
:1044D000C03F40004000400040004000400040001D
:1044E00040004000400040004000400040004000CC
:1044F00040004000400040004000400040004000BC
:1045000040004000C03F000000000000000000002C
:104510000000000008001800180010003000200003
:10452000600060004000C000800080018001000148
:1045300000030002000600060004000C000800183A
:1045400000180010003000200000000000000000F3
:10455000FC0300020002000200020002000200024E
:10456000000200020002000200020002000200023B
:10457000000200020002000200020002000200022B
:1045800000020002FC030000000000000000000028
:104590008007C00620081010000000000000000086
:1045A000000000000000000000000000000000000B
:1045B00000000000000000000000000000000000FB
:1045C00000000000000000000000000000000000EB
:1045D00000000000000000000000000000000000DB
:1045E00000000000000000000000000000000000CB
:1045F00000000000000000000000000000000000BB
:104600000000000000000000FFFF000000000000AC
:104610007800C00000010000000000000000000061
:10462000000000000000000000000000000000008A
:10463000000000000000000000000000000000007A
:10464000000000000000000000000000000000006A
:10465000000000000000000000000000000000005A
:1046600000000000F00318060C0C0C0C000C800F6E
:10467000700C1C0C0C0C060C060C064C0C4FF8387D
:10468000000000000000000000000000000000002A
:104690000000000010001E0018001800180018008C
:1046A00018001800180FD8183830386018601860D3
:1046B0001860186018601860182038307818C8071B
:1046C00000000000000000000000000000000000EA
:1046D00000000000000000000000000000000000DA
:1046E00000000000C007700C181818180C180C00F7
:1046F0000C000C000C000C20182018103008C0070B
:1047000000000000000000000000000000000000A9
:10471000000000000010001E00180018001800180B
:1047200000180018E01B301C181818180C180C186A
:104730000C180C180C180C180818181C307AE00902
:104740000000000000000000000000000000000069
:104750000000000000000000000000000000000059
:1047600000000000C007300C181808100C300C3086
:10477000FC3F0C000C000C00182018107018C0072B
:104780000000000000000000000000000000000029
:10479000000000000000003E80C380C0C0C0C00018
:1047A000C000C000FC1FC000C000C000C000C000AE
:1047B000C000C000C000C000C000C000C000F80FB2
:1047C00000000000000000000000000000000000E9
:1047D00000000000000000000000000000000000D9
:1047E00000000000C077306C10181818181818183E
:1047F0001018300CF00718001800F00FF03F087088
:104800000C600C600C603838E00F00000000000005
:104810000000000010001E0018001800180018000A
:1048200018001800980FD818383018301830183081
:1048300018301830183018301830183018307EFC06
:104840000000000000000000000000000000000068
:1048500000000000000080038003800300000000CF
:1048600000000001F80180018001800180018001C9
:104870008001800180018001800180018001F81F9A
:104880000000000000000000000000000000000028
:104890000000000000000038003800380000000070
:1048A00000000010801F00180018001800180018E1
:1048B0000018001800180018001800180018001838
:1048C00000180018180C1806F00300000000000083
:1048D0000000000010001E0018001800180018004A
:1048E00018001800183E180C180618031801980133
:1048F000D801380318071806180C181C18187E7CE5
:1049000000000000000000000000000000000000A7
:10491000000000000001F801800180018001800199
:10492000800180018001800180018001800180017F
:104930008001800180018001800180018001F81FD9
:104940000000000000000000000000000000000067
:104950000000000000000000000000000000000057
:1049600000000800EE1C9C338C318C318C318C3172
:104970008C318C318C318C318C318C318C31DE7BB3
:104980000000000000000000000000000000000027
:104990000000000000000000000000000000000017
:1049A000000010001E0FD81838301830183018309A
:1049B00018301830183018301830183018307EFC85
:1049C00000000000000000000000000000000000E7
:1049D00000000000000000000000000000000000D7
:1049E00000000000C007701C103018300C600C6014
:1049F0000C600C600C600C60183018303018C00768
:104A000000000000000000000000000000000000A6
:104A10000000000000000000000000000000000096
:104A2000000010009E0F58183830182018601860C9
:104A300018601860186018601830383078189807B7
:104A400018001800180018007E0000000000000088
:104A50000000000000000000000000000000000056
:104A600000000000C023303C183818300C300C30E7
:104A70000C300C300C300C3008301838303CE0333F
:104A8000003000300030003000FC0000000000006A
:104A90000000000000000000000000000000000016
:104AA000000060007E3C60666061E000E000600045
:104AB0006000600060006000600060006000FE0751
:104AC00000000000000000000000000000000000E6
:104AD00000000000000000000000000000000000D6
:104AE00000000000E027303818301820180070004F
:104AF000E003800F001C043004300C301C18EC0F55
:104B000000000000000000000000000000000000A5
:104B10000000000000000000000080008000800015
:104B2000C000E000FC1FC000C000C000C000C0000A
:104B3000C000C000C000C000C020C0208011000F15
:104B40000000000000000000000000000000000065
:104B50000000000000000000000000000000000055
:104B6000000010201E3C1830183018301830183053
:104B700018301830183018301830183830F4E01366
:104B80000000000000000000000000000000000025
:104B90000000000000000000000000000000000015
:104BA000000000007E3C1818180838083004300453
:104BB000700260026002E001C001C001C00080001C
:104BC00000000000000000000000000000000000E5
:104BD00000000000000000000000000000000000D5
:104BE00000000000DFF78E630C238C238C239813C6
:104BF000981358165816700E700E700E200420046C
:104C000000000000000000000000000000000000A4
:104C10000000000000000000000000000000000094
:104C200000000000FC3E70087004E004C002C001F7
:104C30008003800340076006200C100C18183E7E8D
:104C40000000000000000000000000000000000064
:104C50000000000000000000000000000000000054
:104C6000000000007E7C1818180830083008300456
:104C700060046004C002C002C002800180018001A3
:104C80008000800080004C003C000000000000001C
:104C90000000000000000000000000000000000014
:104CA00000000000FC1F0C0C040E0406000380032F
:104CB0008001C000E0007020302038301C18FC1F3C
:104CC00000000000000000000000000000000000E4
:104CD0000030000800040004000400040004000484
:104CE000000400040004000400028001000200042B
:104CF0000004000400040004000400040004000494
:104D00000004000400080030000000010001000160
:104D1000000100010001000100010001000100018B
:104D2000000100010001000100010001000100017B
:104D3000000100010001000100010001000100016B
:104D4000000100010001000100010000000000005E
:104D50000C00100020002000200020002000200077
:104D600020002000200020004000800140002000A2
:104D70002000200020002000200020002000200033
:104D80002000200010000C00000000003800C400CB
:104D9000864002610022001C0000000000000000AC
:104DA0000000000000000000000000000000000003
:104DB00000000000000000000000000000000000F3
:104DC00000000000000000000000D6D020002000FD
:104DD0002000FE03220222022202FE032202200001
:104DE00020002000BEB0FC010401FC010401FC0114
:104DF0002000FF070401FC01200024013202D4B08E
:104E0000FE070204FA0402040204FE0552045204DE
:104E10004A0586050204FE07B5E710001000FF01F1
:104E200011011101FF0111011101FF011104100411
:104E3000E007D7D30000FC018000400020002000E4
:104E4000FF0720002000200020003800D6D080007E
:104E5000800080008000FC1F841084108410841067
:104E60008410FC1F84108000800080008000BEB091
:104E7000F80F0808F80F0808F80F8000FF7F0000FF
:104E8000F80F08080808F80F80008410A2204000DE
:104E9000D4B00000FE3F0220F22702200220FA2FA9
:104EA000222122212221122912290A2E0220FE3F2C
:104EB0000220B5E7800080008000FC1F8410841071
:104EC0008410FC1F841084108410FC1F84508040C8
:104ED0008040007FD7D30000FE1F000800040002BE
:104EE00080018000FF7F80008000800080008000C3
:104EF0008000A0004000D6D0000000000000001894
:104F000000000800000800000800080818F8FF1F4B
:104F10001808181808181808181808181808181861
:104F20000818F8FF1F08080800080000080000081B
:104F30000000080000180000180000180000000021
:104F4000BEB0000000000000400006C0FF074000A7
:104F500006C0FF07400006C0FF07400802003000FF
:104F6000FEFF3F000000C0FF07C00002C00002C0FB
:104F70000002C0FF0380100080110160100E30108D
:104F8000180C1E30001C00000000D4B0000000000F
:104F90000000080030F8FF1F08001008C010083F8C
:104FA00010080010080010080013C8FF1008221095
:104FB0000822100822100822100821120821148843
:104FC000601648C013280010080010F8FF1F0800E2
:104FD00010000000B5E7000000000000001800000D
:104FE0000800000800000800F0FF0F100804100877
:104FF00004100804100804F0FF0710080410080447
:10500000100804100804F0FF071008000008100042
:10501000081000082000183000F01F000000D7D34F
:10502000000000000000000004F0FF0F0000060078
:10503000000100C00000280000180000180000183F
:1050400030FEFF7F00180000180000180000180054
:1050500000180000180000180000180000180000D8
:105060001F00000C00000000D6D00000000000006F
:10507000000000800000008001000080010000802E
:10508000010000800100008001001080010CF0FF91
:10509000FF0F308001043080010430800104308033
:1050A000010430800104308001043080010430802C
:1050B0000104F0FFFF07308001043080010400800C
:1050C00001000080010000800100008001000080DC
:1050D00001000080010000800100008001000080CC
:1050E00001000080000000000000BEB000000000D1
:1050F00000000000000000000001800100FFFF012F
:10510000000380010003800100FFFF010003800114
:105110000003800100FFFF01008181000000030007
:105120000000031CFCFFFF3F000040000003C00123
:1051300000FFFF010003C0000003C0000003C00027
:1051400000FFFF000001410000040100000E71009B
:1051500000078101800101076000010E1898011C01
:1051600004E0011800C0000000000000D4B00000FE
:1051700000000000000000000008F0FFFF1F3000EA
:10518000000C3000000C3000100C30FE3F0C3004DE
:10519000000C3000000C3000000C3000000C30001F
:1051A000C00CF0FFFF0D3030060E3030060C301012
:1051B000060C3010060C3010060C3018860C301817
:1051C000860C3008060D300C860D3006EE0F3002CE
:1051D000FC0D3001000CF000000C3000000CF0FF62
:1051E000FF0F3000000C1000000400000000B5E7C5
:1051F000000000000000000000C0000000C001002E
:1052000000C0000000C0000000C0000000C000009E
:10521000E0FFFF0360C0000360C0000360C0000344
:1052200060C0000360C0000360C00003E0FFFF0334
:1052300060C0000360C0000360C0000360C00003E2
:1052400060C00003E0FFFF0360C0000160C0000019
:1052500000C0000800C0001000C0001000C000180E
:1052600000C001380080FF1F0000000000000000A7
:10527000D7D3000000000000000000000000000084
:105280000003C0FFFF07000080070000C00000000F
:1052900060000000180000000C0000800300008087
:1052A000030000800100008001080080011CFCFF59
:1052B000FF3F0080010000800100008001000080AD
:1052C00001000080010000800100008001000080DA
:1052D00001000080010000800100008001000080CA
:1052E000010000FC010000E00000004000000000A0
:1052F000000000001453000800000020100000000F
:10530000140200082453000810000020C806000002
:105310003002000810000000010000000000000042
:045320000024F40071
:04000005080001D915
:00000001FF
